:020000040000FA
:06000000E4EF0AF012001B
:020006001200E6
:0600080057EF1FF012008B
:02000E000000F0
:050010000000000000EB
:06001800ACEF1FF0120026
:02001E00D9CF38
:10002000E6FFE1CFD9FFE652F250800B01E0010E6E
:10003000DF6EF29E550EA76EAA0EA76EA682A6B21E
:10004000FED7A66ADF50E8B0F28EE8A0F29E00D09C
:10005000E552E552E7CFD9FF1200D9CFE6FFE1CF55
:10006000D9FFE652000E146E1C0E156E000E166EB1
:10007000FD0EDBCFE6FFFE0EDB50E824E552E72461
:10008000176E186A196A0A0ED8901736183619367C
:10009000E806FAE114501724F66E15501820F76E92
:1000A00016501920F86E0800F550DF6EFC0EDB507C
:1000B000020A0FE0030A07E0010A01E011D0010E75
:1000C000DF14DF6E0FD0020EDF14E8407F0BDF6E0F
:1000D00009D0040EDF14E840E8403F0BDF6E02D089
:1000E000DF6A00D0DF50146E156A14C0F3FF15C02C
:1000F000F4FF00D0E552E552E7CFD9FF1200D9CF87
:10010000E6FFE1CFD9FF000E146E1C0E156E000E37
:10011000166EFD0EDBCFE6FFFE0EDB50E824E55247
:10012000E724176E186A196A0A0ED890173618361F
:100130001936E806FAE114501724F66E1550182007
:10014000F76E16501920F86E140EA66E68DF00D0F8
:10015000E552E7CFD9FF1200D9CFE6FFE1CFD9FFB3
:10016000080EE126050EF6CFDBFF060EF7CFDBFF0C
:10017000070EF8CFDBFF020EDB6A030EDB6A020E0E
:10018000DBCF14F0030EDBCF15F0020E145C000E73
:1001900015581BE2010EE66E020EDBCFE6FFFE0EE7
:1001A000DBCFE6FF5ADFE552E552E552F3CF16F01A
:1001B000F4CF17F0010E161801E1175006E1020EF8
:1001C000DB2A030E01E3DB2ADAD7000E146E1C0EC5
:1001D000156E000E166EFE0EDB50E8241A6E1B6ABA
:1001E000020EDB501A24176E030EDB501B20186E14
:1001F000196A0A0ED890173618361936E806FAE149
:1002000014501724F66E15501820F76E165019204A
:10021000F86E020EDE6EDD6A020EF626000EF72282
:10022000000EF822020EDE26000EDD22020EF62659
:10023000000EF722000EF8220800040EF5CFDBFFB7
:10024000040EDB50FF0809E0DECF14F0DDCF15F01F
:10025000000E145C040E1558E5E3D9CFE9FFDACFA0
:10026000EAFFEE5002E1040EED1802E1DE6ADD6AFB
:10027000050EDBCFF6FF060EDBCFF7FF070EDBCF59
:10028000F8FFDECF14F0DDCF15F014C0F3FF15C07A
:10029000F4FF00D0080EE15C02E2E16AE552E16E93
:1002A000E552E7CFD9FF1200D9CFE6FFE1CFD9FF62
:1002B000140EE126080EF6CFDBFF090EF7CFDBFFA9
:1002C0000A0EF8CFDBFF0B0EDB6A020EF36E0B0E8D
:1002D000DBCFF4FFF350F45C18E2010EE66E0B0E78
:1002E000DBCFE6FFFE0EDBCFE6FFB7DEE552E552E1
:1002F000E552F3CF14F0F4CF15F0010E141801E11C
:10030000155003E10B0EDB2AE0D70B0EDB50020881
:1003100010E1080EDBCFF6FF090EDBCFF7FF0A0E68
:10032000DBCFF8FF0001FF87030EF36EF46A34D2CF
:100330003ED00B0EDB28E76E0C0EE7CFDBFF0C0E7A
:10034000DB50020802E10C0EDB6A020EE66E0C0EB8
:10035000DBCFE6FFFE0EDBCFE6FF7FDEE552E552A8
:10036000E552F3CF14F0F4CF15F0145015101FE13F
:100370000C0EDB2A0C0EDB50020802E10C0EDB6ACD
:100380000B0EDB50F36E0C0EDB50F35C0FE1080E2E
:10039000DBCFF6FF090EDBCFF7FF0A0EDBCFF8FF4E
:1003A0000001FF83010EF36EF46AF6D1CED7000E82
:1003B000146E1C0E156E000E166E0C0EDBCFE6FFD3
:1003C000FE0EDB50E824E552E724176E186A196A1E
:1003D0000A0ED890173618361936E806FAE1145086
:1003E0001724F66E15501820F76E16501920F86E67
:1003F000020EF6CFDBFF030EF7CFDBFF040EF8CFC4
:10040000DBFF000E146E1C0E156E000E166E0B0E2A
:10041000DBCFE6FFFE0EDB50E824E552E724176E43
:10042000186A196A0A0ED890173618361936E8066F
:10043000FAE114501724F66E15501820F76E165076
:100440001920F86E050EF6CFDBFF060EF7CFDBFFA7
:10045000070EF8CFDBFFFE0EDBCFE6FF7DDEE552B9
:10046000F3CF14F0F4CF15F01450151002E0000192
:10047000FF85020EDBCFF6FF030EDBCFF7FF040E86
:10048000DBCFF8FFF568DE6ADD6ADECF14F0DDCF82
:1004900015F0040E145C000E155806E20D00DF2A5C
:1004A000010E01E3DB2AF1D70D0EDB6A0F0EFFC050
:1004B000DBFF0001FF910D0EDB50146E156AFF0E7D
:1004C000141801E1155059E0DECF16F0DDCF17F01A
:1004D000400E165C000E175850E20D0EDB50186EE1
:1004E000196AFE0EDB50166E176A0868096A16C094
:1004F0000DF017C00EF0C5EC1FF006501824146E56
:1005000007501920156E14C0E6FF15C0E6FFDCDAAF
:10051000E552E5520E0EF3CFDBFF0001FFA103D041
:100520000001FF910CD00D0EDB50F56E0D000E0E8C
:10053000DB50F56E0D00020EDE26000EDD220D0EE4
:10054000DB2A0D0EDB50146E156AFF0E141801E144
:10055000155012E1DECF16F0DDCF17F0400E165C1D
:10056000000E175809E2F5680D00F5680D00020E3F
:10057000DE26000EDD22E5D79ED7F606000EF75ADE
:10058000000EF85A040EA66E4ADDF62A000EF72277
:10059000000EF822DE6ADD6A0D0EDB50146E156A5D
:1005A000FF0E141801E1155001E085D70F0EDBCFC7
:1005B000FFF0020EDBCFF6FF030EDBCFF7FF040EDA
:1005C000DBCFF8FF040EF626000EF722000EF8220D
:1005D00009000D0EF5CFDBFF09000E0EF5CFDBFF96
:1005E0000D0EDB50FF083AE00D0EDB501A6E1B6A51
:1005F000FE0EDB50186E196A0868096A18C00DF003
:1006000019C00EF0C5EC1FF006501A24166E0750E4
:100610001B20176E16C0E6FF17C0E6FF55DAE5523D
:10062000E552F3CF14F0F4CF15F00E0EDB501C6E34
:100630001D6A1C50141802E11D50151806E0000137
:10064000FF8F070EF36EF46AA7D009000D0EF5CFE9
:10065000DBFF09000E0EF5CFDBFFC2D7050EDBCFA7
:10066000F6FF060EDBCFF7FF070EDBCFF8FF090022
:10067000100EF5CFDBFF0900110EF5CFDBFF0900EF
:10068000120EF5CFDBFF0800130EF5CFDBFF0C0ECB
:10069000DB5005E1120EDB2A130E01E3DB2A120EFA
:1006A000DBCF14F0130EDBCF15F0870E145C130EA6
:1006B000155804E3100EDB940001FF83020EDBCF1C
:1006C000F6FF030EDBCFF7FF040EDBCFF8FF100EB3
:1006D000DB50F56E0D00110EDB50F56E0C00240E94
:1006E000A66E9DDCF62A000EF722000EF822120EEE
:1006F000DB50F56E0D00130EDB50F56E0C00240E72
:10070000A66E8DDC0A00130EDB50F55C06E00001DE
:10071000FF8F070EF36EF46A3FD00A00120EDB5013
:10072000F55C06E00001FF8F070EF36EF46A34D02B
:100730000A00110EDB50F55C06E00001FF8F070E8A
:10074000F36EF46A29D00800100EDB50F55C06E069
:100750000001FF8F070EF36EF46A1ED00B0EDBCF85
:10076000E6FFFE0EDBCFE6FFCADCE552E552080EDF
:10077000DBCFF6FF090EDBCFF7FF0A0EDBCFF8FF6A
:100780000001FF51020B01E0010E146E156A14C046
:10079000F3FF15C0F4FF00D0140EE15C02E2E16A41
:1007A000E552E16EE552E7CFD9FF1200D9CFE6FF5F
:1007B000E1CFD9FF090EE126020EF6CFDBFF030ED3
:1007C000F7CFDBFF000EF66E1C0EF76E000EF86E14
:1007D000080EDB6A020EF36E080EDBCFF4FFF35057
:1007E000F45C01E363D1DF6A010EDB6A060EDB6AAB
:1007F000070EDB6A040EDB6A050EDB6A040EDBCF34
:1008000014F0050EDBCF15F0020E145C000E155827
:1008100019E2020EE66E040EDBCFE6FF080EDBCF18
:10082000E6FF1BDCE552E552E552F3CF16F0F4CFBC
:1008300017F01650171006E1040EDB2A050E01E32F
:10084000DB2ADCD7D950040FE96EDACFEAFF020EBB
:10085000EE1801E1ED500BE1020EDBCFF6FF030EC7
:10086000DBCFF7FFF86A0001FF83010E21D1040EF0
:10087000DB6A050EDB6A040EDBCF14F0050EDBCF5E
:1008800015F0020E145C000E15581BE2010EE66E08
:10089000040EDBCFE6FF080EDBCFE6FF2DEC00F009
:1008A000E552E552E552F3CF14F0F4CF15F01450B1
:1008B000151001E1DF2A040EDB2A050E01E3DB2A15
:1008C000DAD7DF5042E1E66A080EDBCFE6FF17DC3D
:1008D000E552E552000E146E1C0E156E000E166EDB
:1008E000080EDB50E824176E186A196A0A0ED890B1
:1008F000173618361936E806FAE114501724F66E42
:1009000015501820F76E16501920F86EFC0EF56E73
:100910000D00F5680C00240EA66E0FEC00F0F62A10
:10092000000EF722000EF822F56A0D00F56A0C00A1
:10093000240EA66E0FEC00F0020EDBCFF6FF030EC6
:10094000DBCFF7FFF86AAFD0AED0DF0409E1020ECB
:10095000DBCFF6FF030EDBCFF7FFF86AA4D0A3D0FE
:10096000020EDF5C01E094D0010EE66E010EE66E31
:10097000080EDBCFE6FF2DEC00F0E552E552E55224
:10098000F3CF14F0F4CF15F0145015101CE1010E44
:10099000E66EE66A080EDBCFE6FF2DEC00F0E552CE
:1009A000E552E552F3CF16F0F4CF17F016501710BA
:1009B0000AE1010EF36E040EF3CFDBFF050EDB6AD6
:1009C000010EDB6A40D0040EDB6A050EDB6A010E05
:1009D000E66E040EDBCFE6FF080EDBCFE6FF2DEC64
:1009E00000F0E552E552E552F3CF14F0F4CF15F0E4
:1009F000010E141801E1155011E1040EDBCF16F0C1
:100A0000050EDBCF17F0020E165C000E175806E23B
:100A1000040EDB2A050E01E3DB2AD9D7010EE76EAF
:100A2000040EDBCF14F0050EDBCF15F0E7501426D3
:100A3000000E1522010E14C0DBFF010EDB50020870
:100A400002E1010EDB6A010EDBCFE6FF080EDBCF11
:100A5000E6FF7FEC00F0E552E552080EDBCFE6FF43
:100A6000ACEC00F0E552F3CF14F0F4CF15F01450D5
:100A7000151005E1080EDBCFE6FF16DCE552020E8D
:100A8000DBCFF6FF030EDBCFF7FFF86A0CD00BD0FD
:100A9000020EDBCFF6FF030EDBCFF7FFF86A000193
:100AA000FF8D060E05D0080EDB2A94D6000E00D06E
:100AB000146E090EE15C02E2E16AE552E16E145047
:100AC000E552E7CFD9FF1200D9CFE6FFE1CFD9FF3A
:100AD0000A0EE126060EF6CFDBFF070EF7CFDBFF8F
:100AE000080EF8CFDBFFFD0EDBCF14F0FE0EDBCFE0
:100AF00015F0FE0E145C010E155805E30001FF8B86
:100B0000F368F46AEED01468156AFD0EDBCF08F0C6
:100B1000FE0EDBCF09F014C00DF015C00EF0BEECD8
:100B20000AF0090E08C0DBFF020EDB6A030EDB6A67
:100B3000020EDBCF14F0030EDBCF15F0020E145CB7
:100B4000000E15581CE2010EE66E020EDBCFE6FF2A
:100B5000090EDBCFE6FF2DEC00F0E552E552E55241
:100B6000F3CF16F0F4CF17F0010E161801E117506D
:100B700006E1020EDB2A030E01E3DB2AD9D7D950A6
:100B8000020FE96EDACFEAFF020EEE1801E1ED5036
:100B90000EE1060EDBCFF6FF070EDBCFF7FF080EE8
:100BA000DBCFF8FF0001FF8DF368F46A9AD0000EE6
:100BB000146E1C0E156E000E166E010EE76E020E00
:100BC000DBCF1AF0030EDBCF1BF0E7501A26000E26
:100BD0001B22090EDB50E82400011A24176E000EB8
:100BE0001B20186E196A0A0ED89017361836193657
:100BF000E806FAE114501724F66E15501820F76E27
:100C000016501920F86E020EF65E000EF75A000E0E
:100C1000F85ADE68010EDD6E0800050EF5CFDBFF29
:100C2000020EF65E000EF75A000EF85ADF06010EAD
:100C300001E2DB06D9CFE9FFDACFEAFF000ED88068
:100C4000EE54000EED541CE2050EDB50146E156AD6
:100C5000FD0EDBCF16F0FE0EDBCF17F00D680E6A2F
:100C600016C008F017C009F0BEEC0AF004C016F078
:100C700005C017F01650141802E117501518CCE1F2
:100C8000D9CFE9FFDACFEAFFEE50ED100EE1000117
:100C9000FF81060EDBCFF6FF070EDBCFF7FF080E56
:100CA000DBCFF8FFF368F46A1CD0030EF626000EC3
:100CB000F722000EF8220A00040EF5CFDBFF060E25
:100CC000DBCFF6FF070EDBCFF7FF080EDBCFF8FF19
:100CD000040EDB50146E156A14C0F3FF15C0F4FF48
:100CE00000D00A0EE15C02E2E16AE552E16EE552F3
:100CF000E7CFD9FF1200D9CFE6FFE1CFD9FF0B0E26
:100D0000E126F6CFDFFF010EF7CFDBFF020EF8CFB3
:100D1000DBFFFC0EDBCF14F0FD0EDBCF15F0FE0E7B
:100D2000145C010E155804E30001FF8B050E4BD136
:100D30001468156AFC0EDBCF08F0FD0EDBCF09F05E
:100D400014C00DF015C00EF0BEEC0AF00A0E08C07B
:100D5000DBFF030EDB6A040EDB6A050EDB6AD9508B
:100D6000030FE96EDACFEAFF020EEE5C000EEE58DA
:100D7000000EEF5821E2010EE66E030EDBCFE6FF18
:100D80000A0EDBCFE6FF2DEC00F0E552E552E5520E
:100D9000F3CF14F0F4CF15F0010E141801E1155043
:100DA0000BE1D950030FE96EDACFEAFFEE2A000E0D
:100DB000EE22000EEE22D3D7D950030FE96EDACF20
:100DC000EAFF020EEE1803E1EE5001E1EE500CE1F5
:100DD000DFCFF6FF010EDBCFF7FF020EDBCFF8FF10
:100DE0000001FF8D060EEFD0000E146E1C0E156E66
:100DF000000E166E0A0EDB50E8241A6E1B6A1C6A7F
:100E0000D950030FE96EDACFEAFF1A50EE24176EBD
:100E10001B50EE20186E1C50EE20196E0A0ED89052
:100E2000173618361936E806FAE114501724F66E0C
:100E300015501820F76E16501920F86E090EFFC0D5
:100E4000DBFFFC0EDBCFE6FFFD0EDBCFE6FF3CDE7B
:100E5000E552E552F3CF14F0F4CF15F0FE0EDB505F
:100E6000166E176A1650141802E11750151810E183
:100E70000001FFB10DD0DFCFF6FF010EDBCFF7FF92
:100E8000020EDBCFF8FF090EDBCFFFF0000E9BD088
:100E9000090EDBCFFFF00A0EDBCFE6FFACEC00F073
:100EA000E552060EF3CFDBFF070EF4CFDBFFD95080
:100EB000060FE96EDACFEAFFEE50ED100CE1DFCF5E
:100EC000F6FF010EDBCFF7FF020EDBCFF8FF0001CC
:100ED000FF89040E78D0060EDBCF14F0070EDBCFAF
:100EE00015F0166A1450F6261550F7221650F822FF
:100EF000FC0EDBCF14F0FD0EDBCF15F00D680E6A93
:100F000014C008F015C009F0BEEC0AF004C014F0DB
:100F100005C015F01450F56E0D00060EDB2A070E05
:100F200001E3DB2AFE0EDB50F56E0C00240EA66EEC
:100F30000FEC00F0060EDB2A070E01E3DB2A0A00A5
:100F4000FE0EDB50F55C04E00001FF8F070E3BD086
:100F50000800F550146E156AFC0EDBCF16F0FD0E7E
:100F6000DBCF17F00D680E6A16C008F017C009F045
:100F7000BEEC0AF004C016F005C017F016501418A5
:100F800002E11750151804E00001FF8F070E1BD077
:100F9000D950060FE96EDACFEAFFEE5002E1040EF7
:100FA000ED1807E100000A0EDBCFE6FF54EC01F07C
:100FB000E552DFCFF6FF010EDBCFF7FF020EDBCFEE
:100FC000F8FF000E00D0146E0B0EE15C02E2E16A45
:0E0FD000E552E16E1450E552E7CFD9FF120052
:020FDE00D9CF69
:100FE000E6FFE1CFD9FF180EE76EFD0EDBCF14F060
:100FF000FE0EDBCF15F0E7501416156A030ED890DD
:1010000014361536E804FBE11450736E040EE76ED7
:10101000FD0EDBCF14F0FE0EDBCF15F0E7501416FB
:10102000156AD89014361536D89014361536200E19
:101030001412000E1512030EE76EFD0EDBCF16F034
:10104000FE0EDBCF17F0E7501616176A1450161075
:10105000726E200EE76EFD0EDBCF14F0FE0EDBCFBE
:1010600015F0E7501416156A050ED8901532143293
:10107000E804FBE114C035FEFB0EDBCF33FEFC0EB3
:10108000DBCF34FEFD0EDBCF14F0FE0EDBCF15F010
:1010900015C014F0156AD8901432D890143214C0C8
:1010A00036FEFD0EDBCF37FEFE0EDBCF38FEE552FF
:1010B000E7CFD9FF1200D9CFE6FFE1CFD9FFFD0E70
:1010C000DB50010B0CE0D950FB0FE96EFF0EDA206C
:1010D000EA6EEE50ED1002E08A8401D08A94FD0E93
:1010E000DB50020B0CE0D950FB0FE96EFF0EDA204B
:1010F000EA6EEE50ED1002E08B8C01D08B9CFD0E61
:10110000DB50040B0CE0D950FB0FE96EFF0EDA2028
:10111000EA6EEE50ED1002E0898601D08996FD0E50
:10112000DB50080B0CE0D950FB0FE96EFF0EDA2004
:10113000EA6EEE50ED1002E0898201D08992FD0E38
:10114000DB50100B0CE0D950FB0FE96EFF0EDA20DC
:10115000EA6EEE50ED1002E0898001D08990FD0E1C
:10116000DB50200B0CE0D950FB0FE96EFF0EDA20AC
:10117000EA6EEE50ED1002E08B8401D08B94FD0EF0
:10118000DB50400B0CE0D950FB0FE96EFF0EDA206C
:10119000EA6EEE50ED1002E0899401D08984E552A8
:1011A000E7CFD9FF1200D9CFE6FFE1CFD9FF020E7A
:1011B000E12693829390000EE66EE66A33CEE6FF58
:1011C00034CEE6FF78DFE552E552E552E552340EC3
:1011D000886E866A666AFB0EDBCF14F0FC0EDBCFEE
:1011E00015F01406000E155A1450676EFD0EDBCF75
:1011F00014F0FE0EDBCF15F015C014F0156A145074
:101200006A6EFD0EDB506B6E888088B0FED7330EA1
:10121000936E0E013551E66EE66A33CEE6FF34CEAC
:10122000E6FF49DFE552E552E552E552020EE15C88
:1012300002E2E16AE552E16EE552E7CFD9FF120022
:10124000D9CFE6FFE1CFD9FF020EE126000EE66E10
:10125000E66A33CEE6FF34CEE6FF2DDFE552E552F7
:10126000E552E5520E013751400B05E0030E931293
:101270000E01C96BFB6F300E886E866A666A0E01BE
:101280003605676E6A6A6B6AFD0EDBCF14F0FE0EE0
:10129000DBCF15F015C014F0156A1450686EFD0E02
:1012A000DB50696E888088B0FED70E013551E66E3E
:1012B000E66A33CEE6FF34CEE6FFFDDEE552E552C8
:1012C000E552E5520E013751400B05E00E01040EC8
:1012D000FB6F090EC96F020EE15C02E2E16AE552A2
:0A12E000E16EE552E7CFD9FF1200DE
:0612EA00D9CFE6FFE1CFC1
:1012F000D9FFC76A160EC66E980EC56EFE0EDB507D
:1013000008090E011C6FFE0EDBCF1DFEDB50040929
:101310001E6FFE0EDB50E824C86EC68AE552E7CF8A
:10132000D9FF1200D9CFE6FFE1CFD9FF020EE126A7
:10133000C7BA38D00E01010E1B6FC9407F0B156F65
:10134000176B1C51155D13E1C7A410D0180504E1FB
:10135000E0C0C9FF172B0AD0030E185D07E11F512B
:1013600002E0010E206FA0C0C9FF172B13D01D5142
:10137000155D03E01E51155D0DE1C7A40BD0000EF5
:101380001925E96E090E1A21EA6EEF50C96E192B64
:10139000000E1A231F5104E093988A98C68801D042
:1013A000C68893D0C7A449D00E011C51155D32E107
:1013B0001851040A2DE0010A2BE0060A1FE0010A79
:1013C0001CE0030A05E0010A01E023D0C96A21D02C
:1013D0001751EA6AE00FE96E000EEA22EF500AE0C8
:1013E0001751172BEA6AE00FE96E000EEA22EF5060
:1013F000C96E02D0186BC96A0CD00BD01751172BCD
:10140000EA6AA00FE96E000EEA22EF50C96E01D021
:1014100000D011D01D51155D03E01E51155D0BE18B
:10142000000E1925E96E090E1A21EA6EEF50C96EF9
:10143000192B000E1A23C68848D00E011C51155DC9
:1014400018E1175105E1C9CF18FE010E176F0AD038
:101450001751172BFF0FEA6A600FE96E000EEA22A0
:10146000C9CFEFFFC7A804D0010E1F6F17CE21FE12
:101470002CD01D51155D03E01E51155D26E11B5159
:1014800011E01E51155D04E1146A010E156E02D0C3
:10149000146A156AC9501424196F000E15201A6FAA
:1014A0001B6B13D0000E1925E96E090E1A21EA6E86
:1014B000C9CFEFFF000E1925E96E0B0E1A21EA6E57
:1014C000010EEF6E192B000E1A23020EE15C02E2F0
:0E14D000E16AE552E16EE552E7CFD9FF120066
:0214DE00000EFE
:1014E000F66E2C0EF76E000EF86E0E010900F55028
:1014F000276F0900F550286F03E1276701D03DD021
:101500000900F550226F0900F550236F0900F550CE
:10151000246F09000900F550E96E0900F550EA6EE4
:10152000090009000900F550256F0900F550266FE4
:1015300009000900F6CF29FEF7CF2AFEF8CF2BFECF
:1015400022CEF6FF23CEF7FF24CEF8FF0E0125535F
:1015500002E1265307E00900F550EE6E2507F8E298
:101560002607F9D729CEF6FF2ACEF7FF2BCEF8FFB4
:0C1570000E012707000E285BBFD71200F9
:04157C00056A046A8E
:10158000100EE76ED89008360936043605360D5031
:10159000045C0E50055805E30D50045E0E50055ACC
:0815A000082AE72EF0D7120023
:0815A800C00EF36E00EE00F02E
:1015B0000E0E01D81200EA6002D0EE6AFCD7F3509A
:0815C000E9601200EE6AFCD79D
:0815C8001DEE00F02DEE00F015
:1015D000F86A019C6FEC0AF003EC00F012EC1EF0CC
:0415E000FBD7120023
:0C15E40041442D464D434F4D4D53312DD9
:1015F00045425A205265764220465730303300002B
:10160000000000000000416E616C6F672044657649
:05161000696365730031
:101C0000FFFFFFFFFFFFFFFFFFFFFFFFFFFFFFFFE4
:101C1000FFFFFFFFFFFFFFFFFFFFFFFFFFFFFFFFD4
:101C2000FFFFFFFFFFFFFFFFFFFFFFFFFFFFFFFFC4
:101C3000FFFFFFFFFFFFFFFFFFFFFFFFFFFFFFFFB4
:102C00000500EA3F0000150E00000D000000E43F43
:102C10000000330E00000600000000160000000E49
:102C2000000015000000E4150000E00000001C009A
:0E2C300000000E0000002C0E00000700000047
:022C3E00D9CFEC
:102C4000E6FFE1CFD9FFFD0EDBCF16F0FE0EDBCFA6
:102C500017F0FB0EDBCF18F0FC0EDBCF19F018508D
:102C6000165C1950175807E2FD0EDBCF14F0FE0E6C
:102C7000DBCF15F006D0FB0EDBCF14F0FC0EDBCF64
:102C800015F014C0F3FF15C0F4FF00D0E552E7CFF4
:102C9000D9FF1200656A626A0F01366B636A376991
:102CA000140E396F160E266F010EE96E040EEA6ED1
:102CB000400EEF6E020EE96E040EEA6EEF6A030E2E
:102CC000E96E040EEA6E050EEF6EE96A040EEA6E16
:102CD000880EEF6E050EE96E040EEA6E400EEF6E82
:102CE000060EE96E040EEA6E400EEF6E070EE96EF8
:102CF000040EEA6E050EEF6E040EE96EEA6E080E23
:102D0000EF6E160E276F090EE96E040EEA6E400E86
:102D1000EF6E0A0EE96E040EEA6E800EEF6E0B0E79
:102D2000E96E040EEA6E050EEF6E080EE96E040EF3
:102D3000EA6E800EEF6E0D0EE96E040EEA6EEF6A1B
:102D40000E0EE96E040EEA6EC00EEF6E0F0EE96E07
:102D5000040EEA6E050EEF6E0C0EE96E040EEA6EBE
:102D6000080EEF6E12008050800B09E06550080BD2
:102D700006E10F017A0E366F080E656E02D080AE46
:102D8000656A120065BA03D0110E0F01361362A4F2
:102D900005D0659262A402D06294FCD765B284D05B
:102DA00062A009D062966296629662960F01386BB5
:102DB0000E01026B629062B86298635002E08A86EC
:102DC000636A62BC629C62BA629A62A66BD064CF8C
:102DD000FCF07C0E6414EA6A000FE96E040EEA222D
:102DE000EFCFFDF07C0E6414EA6A010FE96E040E69
:102DF000EA22EFCFFEF06296780E0001FC152DE17D
:102E00003C0EFD152C0A26E0200A22E0380A1DE0BF
:102E1000300A06E0200A01E01FD002CE38FF1CD0A5
:102E2000010EE96E040EEA6E400EEF6EE96A040EC2
:102E3000EA6E880EEF6E050EE96E040EEA6EEF6A1A
:102E4000E96EEA6EC80EEF6E07D028EC1DF004D0D4
:102E5000FFD702D0FFD700D025D0780EFC15080888
:102E600020E1FCB51DD0090EE96E040EEA6EEF50AC
:102E7000E66EE66A800EE66E050EE66ED3EC08F0AE
:102E8000E552E552E552E552090EE96E040EEA6E8E
:102E9000400EEF6E080EE96E040EEA6E800EEF6EC5
:102EA00001D0FFD762B262921200D9CFE6FFE1CF24
:102EB000D9FF040EE126FD0EDB5055E1050EE96E4B
:102EC000040EEA6E020EEF6E410EE96E050EEA6E1A
:102ED000EF6AFE0EDB501F0B07E1400EE96E050E98
:102EE000EA6E010EEF6E39D0FE0EDB501F0B0208AA
:102EF0002FE17F0EE76EF90EDBCF14F0FA0EDBCF79
:102F000015F0E7501416156A020E141801E1155059
:102F100012E0010E141801E1155001E018D0010E65
:102F20000F012715E66E400EE96E050EEA6EE552BA
:102F3000E750EF6E0CD0010E0F012815E66E400E23
:102F4000E96E050EEA6EE552E750EF6E00D005D04F
:102F5000040EE96EEA6E840EEF6E040EE96EEA6E00
:102F6000C80EEF6ED1D3FD0EDB0435E1050EE96E20
:102F7000040EEA6EEF6AD950FB0FE96EFF0EDA20FD
:102F8000EA6EEE50ED1021E17F0EE76EF90EDBCF19
:102F900014F0FA0EDBCF15F0E7501416156A020E86
:102FA000141801E1155009E0010E141801E1155043
:102FB00001E005D00F01279102D00F012891040EE6
:102FC000E96EEA6EC80EEF6E05D0040EE96EEA6E89
:102FD000840EEF6E99D3FD0EDB50030836E1050E2B
:102FE000E96E040EEA6EEF6AD950FB0FE96EFF0E30
:102FF000DA20EA6EEE50ED1022E17F0EE76EF90E58
:10300000DBCF14F0FA0EDBCF15F0E7501416156A7B
:10301000020E141801E1155009E0010E141801E127
:10302000155001E006D00F01278103D00F01288140
:1030300000D0040EE96EEA6EC80EEF6E05D0040EE5
:10304000E96EEA6E840EEF6E5FD3FD0EDB5005086D
:103050000DE1050EE96E040EEA6EEF6AE96EEA6EA6
:10306000C80EEF6EFB0EDBCF02FE4ED3FD0EDB5023
:10307000060801E004D3D950FB0FE96EFF0EDA20F9
:10308000EA6EEE5002E1010EED1801E08CD0400E28
:10309000E96E050EEA6E120EEF6E410EE96E050E38
:1030A000EA6E010EEF6E420EE96E050EEA6EEF6AF1
:1030B000430EE96E050EEA6E020EEF6E440EE96EE7
:1030C000050EEA6EEF68450EE96E050EEA6EEF6AD0
:1030D000460EE96E050EEA6EEF6A470EE96E050EC2
:1030E000EA6E400EEF6E480EE96E050EEA6E560E61
:1030F000EF6E490EE96E050EEA6E040EEF6E4A0E93
:10310000E96E050EEA6E240EEF6E4B0EE96E050EAB
:10311000EA6E700EEF6E4C0EE96E050EEA6EEF6A07
:103120004D0EE96E050EEA6E020EEF6E4E0EE96E62
:10313000050EEA6E010EEF6E4F0EE96E050EEA6E99
:10314000020EEF6E0001FB5102E1000E01D0030EF2
:10315000E66E500EE96E050EEA6EE552E750EF6E30
:10316000510EE96E050EEA6E010EEF6EF70EDBCF23
:10317000E6FFF80EDBCFE6FF120EE66EE66A5FDDD5
:10318000E552E552E552E552F350E66E050EE96E62
:10319000040EEA6EE552E750EF6E040EE96EEA6E39
:1031A000C80EEF6E6BD2FB0EDBCF14F0FC0EDBCF44
:1031B00015F0000E1416FF0E1516145002E1020E43
:1031C000151801E0CED0400EE96E050EEA6E090E2C
:1031D000EF6E410EE96E050EEA6E020EEF6E420EC4
:1031E000E96E050EEA6E200EEF6E430EE96E050ED7
:1031F000EA6EEF6A440EE96E050EEA6E010EEF6E9E
:10320000450EE96E050EEA6E010EEF6E460EE96E92
:10321000050EEA6EEF6A470EE96E050EEA6EC00E05
:10322000EF6E480EE96E050EEA6EEF6A490EE96E22
:10323000050EEA6E090EEF6E4A0EE96E050EEA6E95
:10324000040EEF6E4B0EE96E050EEA6EEF6A4C0E41
:10325000E96E050EEA6EEF6A4D0EE96E050EEA6E36
:10326000020EEF6E4E0EE96E050EEA6EEF684F0E1F
:10327000E96E050EEA6EEF68500EE96E050EEA6E15
:10328000EF68510EE96E050EEA6EEF6A520EE96EB6
:10329000050EEA6E070EEF6E530EE96E050EEA6E2E
:1032A000EF6E540EE96E050EEA6E010EEF6E550ECE
:1032B000E96E050EEA6E020EEF6E560EE96E050E11
:1032C000EA6E400EEF6E570EE96E050EEA6EEF6A7B
:1032D000580EE96E050EEA6EEF6A590EE96E050E9C
:1032E000EA6E070EEF6E5A0EE96E050EEA6EEF6E8D
:1032F0005B0EE96E050EEA6E810EEF6E5C0EE96EF6
:10330000050EEA6E020EEF6E5D0EE96E050EEA6EB8
:10331000400EEF6E5E0EE96E050EEA6EEF6A5F0E0E
:10332000E96E050EEA6EEF6AF70EDBCFE6FFF80EE8
:10333000DBCFE6FF200EE66EE66A81DCE552E55261
:10334000E552E552F350E66E050EE96E040EEA6EA4
:10335000E552E750EF6E040EE96EEA6EC80EEF6EAE
:103360008DD1FB0EDBCF14F0FC0EDBCF15F0000E81
:103370001416FF0E1516145002E1030E151801E085
:103380005BD1FB0EDB50FF0B39E1400EE96E050E01
:10339000EA6E040EEF6E410EE96E050EEA6E030E44
:1033A000EF6E420EE96E050EEA6E090EEF6E430EE9
:1033B000E96E050EEA6E040EEF6EF70EDBCFE6FF48
:1033C000F80EDBCFE6FF400EE96E050EEA6EEF5019
:1033D000E66EE66A34DCE552E552E552E552F3501A
:1033E000E66E050EE96E040EEA6EE552E750EF6EEA
:1033F000040EE96EEA6EC80EEF6E1DD1DE6ADD6A5C
:10340000020EF36EF3CFDBFF030EDB6A410EE96EB3
:10341000050EEA6E030EEF6EFF0EE76EFB0EDBCFBE
:1034200014F0FC0EDBCF15F0E7501416156A010EF0
:10343000141801E1155038E1DECFE9FFDDCFEAFFD6
:10344000060EE9260E0EEA22EF502DE0DECFE9FF50
:10345000DDCFEAFF060EE9260E0EEA22EF50E66EF9
:10346000020EDBCFE9FFDB2A030EDBCFEAFF01E32D
:10347000DB2A400EE926050EEA22E552E750EF6E00
:10348000020EDBCFE9FFDB2A030EDBCFEAFF01E30D
:10349000DB2A400EE926050EEA22EF6ADF2A010E3A
:1034A00001E3DB2AC9D78FD0FF0EE76EFB0EDBCF1F
:1034B00014F0FC0EDBCF15F0E7501416156A020E5F
:1034C000141801E1155038E1DECFE9FFDDCFEAFF46
:1034D000E00EE926000EEA22EF502DE0DECFE9FFF4
:1034E000DDCFEAFFE00EE926000EEA22EF50E66E9D
:1034F000020EDBCFE9FFDB2A030EDBCFEAFF01E39D
:10350000DB2A400EE926050EEA22E552E750EF6E6F
:10351000020EDBCFE9FFDB2A030EDBCFEAFF01E37C
:10352000DB2A400EE926050EEA22EF6ADF2A010EA9
:1035300001E3DB2AC9D747D0FF0EE76EFB0EDBCFD6
:1035400014F0FC0EDBCF15F0E7501416156A030ECD
:10355000141801E1155037E1DECFE9FFDDCFEAFFB6
:10356000FB0EE926000EEA22EF502DE0DECFE9FF48
:10357000DDCFEAFFFB0EE926000EEA22EF50E66EF1
:10358000020EDBCFE9FFDB2A030EDBCFEAFF01E30C
:10359000DB2A400EE926050EEA22E552E750EF6EDF
:1035A000020EDBCFE9FFDB2A030EDBCFEAFF01E3EC
:1035B000DB2A400EE926050EEA22EF6ADF2A010E19
:1035C00001E3DB2AC9D7020E086E096ADECF0DF0CF
:1035D000DDCF0EF0C5EC1FF006C014F007C015F0EB
:1035E000020E1426000E1522400EE96E050EEA6E3C
:1035F00014C0EFFFF70EDBCFE6FFF80EDBCFE6FFE0
:10360000400EE96E050EEA6EEF50E66EE66A1FECBC
:1036100016F0E552E552E552E552F350E66E050E1E
:10362000E96E040EEA6EE552E750EF6E040EE96EA5
:10363000EA6EC80EEF6E22D0FB0EDBCF14F0FC0E4C
:10364000DBCF15F0000E1416FF0E1516145002E114
:10365000060E15180AE1050EE96E040EEA6EEF6A11
:10366000E96EEA6E840EEF6E09D0050EE96E040E67
:10367000EA6EEF6AE96EEA6E840EEF6E45D0FD0EDB
:10368000DB50080811E1400EE96E050EEA6E03CE2C
:10369000EFFFE96E040EEA6E010EEF6E040EE96EA6
:1036A000EA6EC80EEF6E30D0FD0EDB5009080FE158
:1036B000FB0EDBCF03FE0E01046B050EE96E040E5C
:1036C000EA6EEF6AE96EEA6EC80EEF6E1DD0FD0E6F
:1036D000DB500A0806E1040EE96EEA6E840EEF6E16
:1036E00013D0FD0EDB500B0806E1040EE96EEA6E06
:1036F000840EEF6E09D0050EE96E040EEA6EEF6AD5
:10370000E96EEA6E840EEF6E040EE15C02E2E16A9D
:10371000E552E16EE552E7CFD9FF1200D9CFE6FFBF
:10372000E1CFD9FFE552E7CFD9FF1200D9CFE6FFAD
:10373000E1CFD9FF020EE126DF6A010EDB6AFD0E42
:10374000DB50500A01E120D1710A01E11CD1010ACC
:1037500001E102D1300A0EE0110A01E06FD1D58EED
:10376000050EE96E040EEA6EEF6AE96EEA6EC80EA7
:10377000EF6E64D1000EE66EE66AF90EDBCF14F050
:10378000FA0EDBCF15F0000E1416F80E15161550B4
:10379000156AE830E830E8301F0B146E14C0E6FFFD
:1037A00015C0E6FF5BEC08F0E552E552E552E55244
:1037B000FE0EDBBE4FD0F90EDBCF14F0FA0EDBCFDE
:1037C00015F0D89015321432D89015321432C00E3C
:1037D0001414736EF00EE76EF90EDBCF14F0FA0ED0
:1037E000DBCF15F0E7501416156A020E1410726E36
:1037F000F70EDB50E76E010EE7CFDBFFDB5029E170
:10380000FB0EDBCF14F0FC0EDBCF15F015C014F06F
:10381000156A1450756E73B0FED773A0FED7FF0EF5
:10382000E76EFB0EDBCF14F0FC0EDBCF15F0E7509C
:103830001416156A1450756E73B0FED773A0FED7B8
:10384000050EE96E040EEA6EEF6AE96EEA6EC80EC6
:10385000EF6E7BD0F90EDBCF14F0FA0EDBCF15F054
:10386000D89015321432D89015321432C00E141478
:10387000736EFF0EE76EF90EDBCF14F0FA0EDBCF9E
:1038800015F0E7501416156A1450726EF70EDB50DF
:10389000E76E010EE7CFDBFFDB0419E17550DF6E49
:1038A000FF0EE76EFB0EDBCF14F0FC0EDBCF15F046
:1038B000E7501416156A1450756E73B0FED773A0D6
:1038C000FED7400EE96E050EEA6E75CFEFFF010ED2
:1038D000DB5002082EE17550DF6EFB0EDBCF14F0DB
:1038E000FC0EDBCF15F015C014F0156A1450756E80
:1038F00073B0FED773A0FED7400EE96E050EEA6ED8
:1039000075CFEFFFFF0EE76EFB0EDBCF14F0FC0E62
:10391000DBCF15F0E7501416156A1450756E73B0AE
:10392000FED773A0FED7410EE96E050EEA6E75CF85
:10393000EFFF050EE96E040EEA6E010EDBCFEFFF1E
:10394000040EE96EEA6EC80EEF6EFA0EDB50040B41
:1039500002E08A848B8C72D0FE0EDBBE13D0F90E8F
:10396000DB50040B03E0C00E8A1202D03F0E8A1611
:10397000050EE96E040EEA6EEF6AE96EEA6EC80E95
:10398000EF6E00D05BD05AD0FB0EDBCFE6FFFC0E13
:10399000DBCFE6FFF90EDBCFE6FFFA0EDBCFE6FF6B
:1039A000EFEC07F0E552E552E552E552F90EDBCFB8
:1039B00014F0FA0EDBCF15F0000E1416FC0E1516DF
:1039C000000ED8801454000E15542EE2C00EE66E80
:1039D000050EE66E20EC09F0E552E552F90EDBCF5C
:1039E00014F0FA0EDBCF15F015C014F0156AD8905C
:1039F0001432D89014320D0EE96E040EEA6E14C023
:103A0000EFFF0E01055108E00C0EE96E040EEA6EA0
:103A1000C80EEF6E056B08D00C0EE96E040EEA6E50
:103A2000880EEF6E010E056F050EE96E040EEA6E4C
:103A3000EF6AE96EEA6EC80EEF6E00D0020EE15C2E
:103A400002E2E16AE552E16EE552E7CFD9FF1200EA
:103A5000D9CFE6FFE1CFD9FF080EE126E96A050ECE
:103A6000EA6EEFCFDFFF010EE96E050EEA6E010E82
:103A7000EFCFDBFF030EE96E050EEA6EEFCF16F017
:103A800016C017F0166A020EE96E050EEA6EEF50C8
:103A900000011610146E17C015F0020E14C0DBFFE3
:103AA000030E15C0DBFF050EE96EEA6EEFCF16F0D0
:103AB00016C017F0166A040EE96E050EEA6EEF5096
:103AC0001610146E17C015F0040E14C0DBFF050E9F
:103AD00015C0DBFF070EE96E050EEA6EEFCF16F09C
:103AE00016C017F0166A060EE96E050EEA6EEF5064
:103AF0001610146E17C015F0060E14C0DBFF070E6B
:103B000015C0DBFF010EE96E040EEA6E400EEF6E8B
:103B1000040EE96EEA6E080EEF6E800EDF1411E1FE
:103B2000D950060FE96EDACFEAFF000ED880EE54C6
:103B3000000EED5406E2E96A040EEA6EC80EEF6E5E
:103B400005D0E96A040EEA6E880EEF6E6598600E85
:103B5000DF14400A40E0600A21E0200A01E058D06A
:103B6000060EDBCFE6FF070EDBCFE6FF040EDBCF52
:103B7000E6FF050EDBCFE6FF020EDBCFE6FF030E0E
:103B8000DBCFE6FF010EDBCFE6FFDFCFE6FF55EC34
:103B900017F0146E080EE15E14503AD0060EDBCF1B
:103BA000E6FF070EDBCFE6FF040EDBCFE6FF050ED8
:103BB000DBCFE6FF020EDBCFE6FF030EDBCFE6FF37
:103BC000010EDBCFE6FFDFCFE6FFA8DD146E080EA7
:103BD000E15E14501DD0060EDBCFE6FF070EDBCFF3
:103BE000E6FF040EDBCFE6FF050EDBCFE6FF020E9D
:103BF000DBCFE6FF030EDBCFE6FF010EDBCFE6FFF8
:103C0000DFCFE6FF93DD146E080EE15E145000D0A6
:103C1000080EE15C02E2E16AE552E16EE552E7CFAF
:043C2000D9FF1200B6
:0C3C2400400E9B6E700ED36ED6EC03F0C9
:103C30000E012D6B2E6BFE0E2D5D010E2E591FE217
:103C4000000E2D25E96E0B0E2E21EA6EEF6A2DCEA9
:103C5000E6FF2ECEE6FF64EC05F0E552E552F350A8
:103C6000E66E000E0E012D25E96E090E2E21EA6E7C
:103C7000E552E750EF6E2D2B000E2E23DCD70F01FF
:103C800048691F0E496FD08EE00EF26E800EF16E05
:103C9000F06A080E9D6E900EA06EA36A9F860E01BC
:103CA000040EFB6F0A0ED86F120EFC6F090EC96F5F
:103CB0000C0EC86F800E926E0B0E896E330E936ED3
:103CC000C40E8A6E3B0E946E440E8B6ED59ED59CB0
:103CD000D59AD598D596F80ED5140309D56E400E11
:103CE000736E210E726E8250010B146E8250020BA5
:103CF00001E0010EE82450091410E66E75EC09F09D
:103D0000E5524AEC16F0600E89120E012D6B2E6BF7
:103D1000000E0E012D25E96E0B0E2E21EA6EEF50DE
:103D20000EE1FD0E2D1902E1010E2E1908E00E0123
:103D30001F5105E10E012D2B000E2E23E9D7000E99
:103D40000E012D25E96E0B0E2E21EA6EEF5018E0C4
:103D5000000E2D25E96E0B0E2E21EA6EEF6A2DCE98
:103D6000E6FF2ECEE6FF000E2D25E96E090E2E2170
:103D7000EA6EEF50E66E7BEC06F0E552E552E55256
:103D80000E01FD0E2D5D010E2E5904E22D2B000EAD
:103D90002E2302D02D6B2E6BB3EC16F0C00EC61482
:103DA00001E08A960E011F5101E17FD00E011851EA
:103DB000050A69E0010A4AE0070A05E0010A01E094
:103DC0006BD0D58E69D0000160510E012F6F306B22
:103DD0002FCE30FE2F6B00016151146E156A145006
:103DE0000E012F1315503013000162510E01316F77
:103DF000326B31CE32FE316B00016351146E156AA5
:103E000014500E0131131550321331CEE6FF32CE6D
:103E1000E6FF2FCEE6FF30CEE6FFEFEC07F0E552EF
:103E2000E552E552E55230CE14F0156AD8901432BE
:103E3000D89014321450151008E0A00EE66E000E53
:103E4000E66E20EC09F0E552E55226D031CEE6FFD1
:103E500032CEE6FF2FCEE6FF30CEE6FFEFEC07F0E6
:103E6000E552E552E552E5520E012105E66EE66A9D
:103E7000600EE66E000EE66ED3EC08F0E552E552F9
:103E8000E552E55209D0000160A103D0C00E8A12AC
:103E900002D03F0E8A1600D00E01205103E0A0C0D0
:103EA000C9FF206B93880E011F6B32D71200DACF47
:103EB000E4FFE2CFDAFFE9CFE4FFEACFE4FFF6CF99
:103EC000E4FFF7CFE4FFF5CFE4FFF3CFE4FFF4CF57
:103ED000E4FFFACFE4FF00EE00F0140EE80403E381
:103EE000EECFE4FFFBD700EE14F00A0EE80403E384
:103EF000EECFE4FFFBD7E652A1A803D0A198C2EC15
:103F000016F09EA603D092EC09F09E969EB09E906D
:103F1000E55200EE1DF00A0EE80403E3E5CFEDFFE5
:103F2000FBD700EE13F0140EE80403E3E5CFEDFF3A
:103F3000FBD7E5CFFAFFE5CFF4FFE5CFF3FFE5CF01
:103F4000F5FFE5CFF7FFE5CFF6FFE5CFEAFFE5CFD9
:103F5000E9FFE5CFDAFF1100DACFE4FFE2CFDAFFC5
:103F6000E652F2A40ED0F2948AA602D08A9601D02C
:103F70008A860E012C2B2C51190803E2D59E8A96B5
:0A3F80002C6BE552E5CFDAFF1100CB
:063F8A0009C013F008C09D
:103F900012F008500D02F4CF07F0F3CF06F00950ED
:103FA0000E02F4CF09F0F3CF08F00D02F35007260C
:103FB000F4500822E86A092212500E02F350072634
:103FC000F4500822E86A09220EAEEBEF1FF01250FF
:103FD000085E1350095A13AE000C0D50085E0E50C7
:043FE000095A000C6E
:063FE400010001000000D5
:063FEA00FF0000000000D2
:073FF00001000000000000C9
:013FF800AC1C
:013FF900F7D0
:013FFA0012B4
:013FFB00F0D5
:013FFC0001C3
:013FFD00F0D3
:013FFE00CFF3
:013FFF00F1D0
:00000001FF
