:020000040000FA
:06000000F6EF0CF0120007
:020006001200E6
:0600080066EF09F0120092
:02000E000000F0
:050010000000000000EB
:06001800BBEF09F012002D
:02001E000500DB
:100020003F1A0000150E00000D000000391A0000F4
:10003000330E000006000000241A0000000E00002D
:1000400015000000081A0000E00000001C0000007D
:0C0050000E0000002C0E00000700000055
:04005C00D9CFE6FF13
:10006000E1CFD9FFFD0EDBCF16F0FE0EDBCF17F090
:10007000FB0EDBCF18F0FC0EDBCF19F01850165C2E
:100080001950175807E2FD0EDBCF14F0FE0EDBCF40
:1000900015F006D0FB0EDBCF14F0FC0EDBCF15F015
:1000A00014C0F3FF15C0F4FF00D0E552E7CFD9FF2D
:1000B0001200656A626A0F01366B636A3769140E53
:1000C000396F160E266F010EE96E040EEA6E400EB1
:1000D000EF6E020EE96E040EEA6EEF6A030EE96E31
:1000E000040EEA6E050EEF6EE96A040EEA6E880EE3
:1000F000EF6E050EE96E040EEA6E400EEF6E060E10
:10010000E96E040EEA6E400EEF6E070EE96E040E05
:10011000EA6E050EEF6E040EE96EEA6E080EEF6EE3
:10012000160E276F090EE96E040EEA6E400EEF6E92
:100130000A0EE96E040EEA6E800EEF6E0B0EE96E8B
:10014000040EEA6E050EEF6E080EE96E040EEA6EFE
:10015000800EEF6E0D0EE96E040EEA6EEF6A0E0E63
:10016000E96E040EEA6EC00EEF6E0F0EE96E040E1D
:10017000EA6E050EEF6E0C0EE96E040EEA6E080EC6
:10018000EF6E12008050800B09E06550080B06E10D
:100190000F017A0E366F080E656E02D080AE656A6A
:1001A000120065BA03D0110E0F01361362A405D0F8
:1001B000659262A402D06294FCD765B284D062A03A
:1001C00009D062966296629662960F01386B0E01B4
:1001D000026B629062B86298635002E08A86636A3A
:1001E00062BC629C62BA629A62A66BD064CFFCF079
:1001F0007C0E6414EA6A000FE96E040EEA22EFCF67
:10020000FDF07C0E6414EA6A010FE96E040EEA2226
:10021000EFCFFEF06296780E0001FC152DE13C0E4A
:10022000FD152C0A26E0200A22E0380A1DE0300ADB
:1002300006E0200A01E01FD002CE38FF1CD0010EDC
:10024000E96E040EEA6E400EEF6EE96A040EEA6E85
:10025000880EEF6E050EE96E040EEA6EEF6AE96E27
:10026000EA6EC80EEF6E07D037EC07F004D0FFD768
:1002700002D0FFD700D025D0780EFC15080820E169
:10028000FCB51DD0090EE96E040EEA6EEF50E66E65
:10029000E66A800EE66E050EE66EB8EC0AF0E552F0
:1002A000E552E552E552090EE96E040EEA6E400E83
:1002B000EF6E080EE96E040EEA6E800EEF6E01D04E
:1002C000FFD762B262921200D9CFE6FFE1CFD9FF29
:1002D000040EE126FD0EDB5055E1050EE96E040E1D
:1002E000EA6E020EEF6E410EE96E050EEA6EEF6ADF
:1002F000FE0EDB501F0B07E1400EE96E050EEA6EA5
:10030000010EEF6E39D0FE0EDB501F0B02082FE1FD
:100310007F0EE76EF90EDBCF14F0FA0EDBCF15F08F
:10032000E7501416156A020E141801E1155012E078
:10033000010E141801E1155001E018D0010E0F0153
:100340002715E66E400EE96E050EEA6EE552E7509F
:10035000EF6E0CD0010E0F012815E66E400EE96E0F
:10036000050EEA6EE552E750EF6E00D005D0040EA0
:10037000E96EEA6E840EEF6E040EE96EEA6EC80E48
:10038000EF6ED1D3FD0EDB0435E1050EE96E040EF0
:10039000EA6EEF6AD950FB0FE96EFF0EDA20EA6EC3
:1003A000EE50ED1021E17F0EE76EF90EDBCF14F079
:1003B000FA0EDBCF15F0E7501416156A020E14186A
:1003C00001E1155009E0010E141801E1155001E09A
:1003D00005D00F01279102D00F012891040EE96E7C
:1003E000EA6EC80EEF6E05D0040EE96EEA6E840E5A
:1003F000EF6E99D3FD0EDB50030836E1050EE96E72
:10040000040EEA6EEF6AD950FB0FE96EFF0EDA2098
:10041000EA6EEE50ED1022E17F0EE76EF90EDBCFB3
:1004200014F0FA0EDBCF15F0E7501416156A020E21
:10043000141801E1155009E0010E141801E11550DE
:1004400001E006D00F01278103D00F01288100D0E1
:10045000040EE96EEA6EC80EEF6E05D0040EE96E6A
:10046000EA6E840EEF6E5FD3FD0EDB5005080DE1E2
:10047000050EE96E040EEA6EEF6AE96EEA6EC80ECA
:10048000EF6EFB0EDBCF02FE4ED3FD0EDB500608F7
:1004900001E004D3D950FB0FE96EFF0EDA20EA6EBB
:1004A000EE5002E1010EED1801E08CD0400EE96E35
:1004B000050EEA6E120EEF6E410EE96E050EEA6E43
:1004C000010EEF6E420EE96E050EEA6EEF6A430E04
:1004D000E96E050EEA6E020EEF6E440EE96E050E31
:1004E000EA6EEF68450EE96E050EEA6EEF6A460E9B
:1004F000E96E050EEA6EEF6A470EE96E050EEA6ECA
:10050000400EEF6E480EE96E050EEA6E560EEF6E67
:10051000490EE96E050EEA6E040EEF6E4A0EE96EA4
:10052000050EEA6E240EEF6E4B0EE96E050EEA6EB6
:10053000700EEF6E4C0EE96E050EEA6EEF6A4D0E10
:10054000E96E050EEA6E020EEF6E4E0EE96E050EB6
:10055000EA6E010EEF6E4F0EE96E050EEA6E020EA8
:10056000EF6E0001FB5102E1000E01D0030EE66EBA
:10057000500EE96E050EEA6EE552E750EF6E510E31
:10058000E96E050EEA6E010EEF6EF70EDBCFE6FFA9
:10059000F80EDBCFE6FF120EE66EE66A5FDDE5528F
:1005A000E552E552E552F350E66E050EE96E040E93
:1005B000EA6EE552E750EF6E040EE96EEA6EC80E81
:1005C000EF6E6BD2FB0EDBCF14F0FC0EDBCF15F021
:1005D000000E1416FF0E1516145002E1020E151827
:1005E00001E0CED0400EE96E050EEA6E090EEF6E08
:1005F000410EE96E050EEA6E020EEF6E420EE96ED6
:10060000050EEA6E200EEF6E430EE96E050EEA6EE1
:10061000EF6A440EE96E050EEA6E010EEF6E450EAE
:10062000E96E050EEA6E010EEF6E460EE96E050EDE
:10063000EA6EEF6A470EE96E050EEA6EC00EEF6EC7
:10064000480EE96E050EEA6EEF6A490EE96E050E78
:10065000EA6E090EEF6E4A0EE96E050EEA6E040EA2
:10066000EF6E4B0EE96E050EEA6EEF6A4C0EE96E08
:10067000050EEA6EEF6A4D0EE96E050EEA6E020E89
:10068000EF6E4E0EE96E050EEA6EEF684F0EE96EE4
:10069000050EEA6EEF68500EE96E050EEA6EEF6821
:1006A000510EE96E050EEA6EEF6A520EE96E050E06
:1006B000EA6E070EEF6E530EE96E050EEA6EEF6EF0
:1006C000540EE96E050EEA6E010EEF6E550EE96EE0
:1006D000050EEA6E020EEF6E560EE96E050EEA6E1C
:1006E000400EEF6E570EE96E050EEA6EEF6A580E79
:1006F000E96E050EEA6EEF6A590EE96E050EEA6EB6
:10070000070EEF6E5A0EE96E050EEA6EEF6E5B0E87
:10071000E96E050EEA6E810EEF6E5C0EE96E050E57
:10072000EA6E020EEF6E5D0EE96E050EEA6E400E89
:10073000EF6E5E0EE96E050EEA6EEF6A5F0EE96E11
:10074000050EEA6EEF6AF70EDBCFE6FFF80EDBCFA1
:10075000E6FF200EE66EE66A81DCE552E552E552E0
:10076000E552F350E66E050EE96E040EEA6EE552B0
:10077000E750EF6E040EE96EEA6EC80EEF6E8DD193
:10078000FB0EDBCF14F0FC0EDBCF15F0000E1416C1
:10079000FF0E1516145002E1030E151801E05BD18F
:1007A000FB0EDB50FF0B39E1400EE96E050EEA6EE1
:1007B000040EEF6E410EE96E050EEA6E030EEF6E4B
:1007C000420EE96E050EEA6E090EEF6E430EE96EFB
:1007D000050EEA6E040EEF6EF70EDBCFE6FFF80EA5
:1007E000DBCFE6FF400EE96E050EEA6EEF50E66ED7
:1007F000E66A34DCE552E552E552E552F350E66E26
:10080000050EE96E040EEA6EE552E750EF6E040E37
:10081000E96EEA6EC80EEF6E1DD1DE6ADD6A020E69
:10082000F36EF3CFDBFF030EDB6A410EE96E050EBC
:10083000EA6E030EEF6EFF0EE76EFB0EDBCF14F0D9
:10084000FC0EDBCF15F0E7501416156A010E1418D4
:1008500001E1155038E1DECFE9FFDDCFEAFF060EFA
:10086000E9260E0EEA22EF502DE0DECFE9FFDDCFC4
:10087000EAFF060EE9260E0EEA22EF50E66E020EA1
:10088000DBCFE9FFDB2A030EDBCFEAFF01E3DB2A44
:10089000400EE926050EEA22E552E750EF6E020E01
:1008A000DBCFE9FFDB2A030EDBCFEAFF01E3DB2A24
:1008B000400EE926050EEA22EF6ADF2A010E01E367
:1008C000DB2AC9D78FD0FF0EE76EFB0EDBCF14F00B
:1008D000FC0EDBCF15F0E7501416156A020E141843
:1008E00001E1155038E1DECFE9FFDDCFEAFFE00E90
:1008F000E926000EEA22EF502DE0DECFE9FFDDCF42
:10090000EAFFE00EE926000EEA22EF50E66E020E44
:10091000DBCFE9FFDB2A030EDBCFEAFF01E3DB2AB3
:10092000400EE926050EEA22E552E750EF6E020E70
:10093000DBCFE9FFDB2A030EDBCFEAFF01E3DB2A93
:10094000400EE926050EEA22EF6ADF2A010E01E3D6
:10095000DB2AC9D747D0FF0EE76EFB0EDBCF14F0C2
:10096000FC0EDBCF15F0E7501416156A030E1418B1
:1009700001E1155037E1DECFE9FFDDCFEAFFFB0EE5
:10098000E926000EEA22EF502DE0DECFE9FFDDCFB1
:10099000EAFFFB0EE926000EEA22EF50E66E020E99
:1009A000DBCFE9FFDB2A030EDBCFEAFF01E3DB2A23
:1009B000400EE926050EEA22E552E750EF6E020EE0
:1009C000DBCFE9FFDB2A030EDBCFEAFF01E3DB2A03
:1009D000400EE926050EEA22EF6ADF2A010E01E346
:1009E000DB2AC9D7020E086E096ADECF0DF0DDCF13
:1009F0000EF0A3EC0CF006C014F007C015F0020EC8
:100A00001426000E1522400EE96E050EEA6E14C083
:100A1000EFFFF70EDBCFE6FFF80EDBCFE6FF400E71
:100A2000E96E050EEA6EEF50E66EE66A2EEC00F017
:100A3000E552E552E552E552F350E66E050EE96ED9
:100A4000040EEA6EE552E750EF6E040EE96EEA6EB0
:100A5000C80EEF6E22D0FB0EDBCF14F0FC0EDBCF06
:100A600015F0000E1416FF0E1516145002E1060EB6
:100A700015180AE1050EE96E040EEA6EEF6AE96EDA
:100A8000EA6E840EEF6E09D0050EE96E040EEA6E72
:100A9000EF6AE96EEA6E840EEF6E45D0FD0EDB5014
:100AA000080811E1400EE96E050EEA6E03CEEFFF75
:100AB000E96E040EEA6E010EEF6E040EE96EEA6E48
:100AC000C80EEF6E30D0FD0EDB5009080FE1FB0EB3
:100AD000DBCF03FE0E01046B050EE96E040EEA6E19
:100AE000EF6AE96EEA6EC80EEF6E1DD0FD0EDB50A8
:100AF0000A0806E1040EE96EEA6E840EEF6E13D06A
:100B0000FD0EDB500B0806E1040EE96EEA6E840E62
:100B1000EF6E09D0050EE96E040EEA6EEF6AE96E1B
:100B2000EA6E840EEF6E040EE15C02E2E16AE552C9
:100B3000E16EE552E7CFD9FF1200D9CFE6FFE1CF52
:100B4000D9FFE552E7CFD9FF1200D9CFE6FFE1CFB9
:100B5000D9FF020EE126DF6A010EDB6AFD0EDB50D3
:100B6000500A01E120D1710A01E11CD1010A01E121
:100B700002D1300A0EE0110A01E06FD1D58E050EC8
:100B8000E96E040EEA6EEF6AE96EEA6EC80EEF6E69
:100B900064D1000EE66EE66AF90EDBCF14F0FA0EB1
:100BA000DBCF15F0000E1416F80E15161550156A49
:100BB000E830E830E8301F0B146E14C0E6FF15C0B3
:100BC000E6FF40EC0AF0E552E552E552E552FE0E32
:100BD000DBBE4FD0F90EDBCF14F0FA0EDBCF15F0F1
:100BE000D89015321432D89015321432C00E141425
:100BF000736EF00EE76EF90EDBCF14F0FA0EDBCF5A
:100C000015F0E7501416156A020E1410726EF70EE6
:100C1000DB50E76E010EE7CFDBFFDB5029E1FB0E77
:100C2000DBCF14F0FC0EDBCF15F015C014F0156A05
:100C30001450756E73B0FED773A0FED7FF0EE76E2B
:100C4000FB0EDBCF14F0FC0EDBCF15F0E7501416D3
:100C5000156A1450756E73B0FED773A0FED7050EDB
:100C6000E96E040EEA6EEF6AE96EEA6EC80EEF6E88
:100C70007BD0F90EDBCF14F0FA0EDBCF15F0D89055
:100C800015321432D89015321432C00E1414736E0B
:100C9000FF0EE76EF90EDBCF14F0FA0EDBCF15F086
:100CA000E7501416156A1450726EF70EDB50E76E9B
:100CB000010EE7CFDBFFDB0419E17550DF6EFF0E9D
:100CC000E76EFB0EDBCF14F0FC0EDBCF15F0E75028
:100CD0001416156A1450756E73B0FED773A0FED744
:100CE000400EE96E050EEA6E75CFEFFF010EDB5088
:100CF00002082EE17550DF6EFB0EDBCF14F0FC0E08
:100D0000DBCF15F015C014F0156A1450756E73B072
:100D1000FED773A0FED7400EE96E050EEA6E75CFC2
:100D2000EFFFFF0EE76EFB0EDBCF14F0FC0EDBCF08
:100D300015F0E7501416156A1450756E73B0FED78F
:100D400073A0FED7410EE96E050EEA6E75CFEFFF78
:100D5000050EE96E040EEA6E010EDBCFEFFF040E06
:100D6000E96EEA6EC80EEF6EFA0EDB50040B02E07D
:100D70008A848B8C72D0FE0EDBBE13D0F90EDB5052
:100D8000040B03E0C00E8A1202D03F0E8A16050E35
:100D9000E96E040EEA6EEF6AE96EEA6EC80EEF6E57
:100DA00000D05BD05AD0FB0EDBCFE6FFFC0EDBCFD2
:100DB000E6FFF90EDBCFE6FFFA0EDBCFE6FFD4EC61
:100DC00009F0E552E552E552E552F90EDBCF14F099
:100DD000FA0EDBCF15F0000E1416FC0E1516000EE1
:100DE000D8801454000E15542EE2C00EE66E050E87
:100DF000E66E05EC0BF0E552E552F90EDBCF14F090
:100E0000FA0EDBCF15F015C014F0156AD890143225
:100E1000D89014320D0EE96E040EEA6E14C0EFFF86
:100E20000E01055108E00C0EE96E040EEA6EC80EC4
:100E3000EF6E056B08D00C0EE96E040EEA6E880E9C
:100E4000EF6E010E056F050EE96E040EEA6EEF6A95
:100E5000E96EEA6EC80EEF6E00D0020EE15C02E2AF
:100E6000E16AE552E16EE552E7CFD9FF1200D9CF32
:100E7000E6FFE1CFD9FF080EE126E96A050EEA6E2A
:100E8000EFCFDFFF010EE96E050EEA6E010EEFCF28
:100E9000DBFF030EE96E050EEA6EEFCF16F016C00B
:100EA00017F0166A020EE96E050EEA6EEF500001A9
:100EB0001610146E17C015F0020E14C0DBFF030EDF
:100EC00015C0DBFF050EE96EEA6EEFCF16F016C017
:100ED00017F0166A040EE96E050EEA6EEF50161052
:100EE000146E17C015F0040E14C0DBFF050E15C0FC
:100EF000DBFF070EE96E050EEA6EEFCF16F016C0A7
:100F000017F0166A060EE96E050EEA6EEF5016101F
:100F1000146E17C015F0060E14C0DBFF070E15C0C7
:100F2000DBFF010EE96E040EEA6E400EEF6E040E5A
:100F3000E96EEA6E080EEF6E800EDF1411E1D950F3
:100F4000060FE96EDACFEAFF000ED880EE54000EED
:100F5000ED5406E2E96A040EEA6EC80EEF6E05D0A3
:100F6000E96A040EEA6E880EEF6E6598600EDF1473
:100F7000400A40E0600A21E0200A01E058D0060E55
:100F8000DBCFE6FF070EDBCFE6FF040EDBCFE6FF8D
:100F9000050EDBCFE6FF020EDBCFE6FF030EDBCF55
:100FA000E6FF010EDBCFE6FFDFCFE6FF64EC01F0EA
:100FB000146E080EE15E14503AD0060EDBCFE6FF49
:100FC000070EDBCFE6FF040EDBCFE6FF050EDBCF1F
:100FD000E6FF020EDBCFE6FF030EDBCFE6FF010EDE
:100FE000DBCFE6FFDFCFE6FFA8DD146E080EE15E83
:100FF00014501DD0060EDBCFE6FF070EDBCFE6FF59
:10100000040EDBCFE6FF050EDBCFE6FF020EDBCFE3
:10101000E6FF030EDBCFE6FF010EDBCFE6FFDFCFFF
:10102000E6FF93DD146E080EE15E145000D0080E4A
:10103000E15C02E2E16AE552E16EE552E7CFD9FFF9
:0210400012009C
:0E104200400E9B6E700ED36EC7EC15F00E01C3
:101050002D6B2E6BFE0E2D5D010E2E591FE2000E24
:101060002D25E96E0B0E2E21EA6EEF6A2DCEE6FFDE
:101070002ECEE6FF55EC17F0E552E552F350E66E42
:10108000000E0E012D25E96E090E2E21EA6EE552A5
:10109000E750EF6E2D2B000E2E23DCD70F01486991
:1010A0001F0E496FD08EE00EF26E800EF16EF06A68
:1010B000080E9D6E900EA06EA36A9F860E01040E10
:1010C000FB6F0A0ED86F120EFC6F090EC96F0C0E63
:1010D000C86F800E926E0B0E896E330E936EC40E27
:1010E0008A6E3B0E946E440E8B6ED59ED59CD59A1F
:1010F000D598D596F80ED5140309D56E400E736EAB
:10110000210E726E8250010B146E8250020B01E0B0
:10111000010EE82450091410E66E5AEC0BF0E5526B
:1011200059EC00F0600E89120E012D6B2E6B000E33
:101130000E012D25E96E0B0E2E21EA6EEF500EE109
:10114000FD0E2D1902E1010E2E1908E00E011F51AE
:1011500005E10E012D2B000E2E23E9D7000E0E0106
:101160002D25E96E0B0E2E21EA6EEF5018E0000ED1
:101170002D25E96E0B0E2E21EA6EEF6A2DCEE6FFCD
:101180002ECEE6FF000E2D25E96E090E2E21EA6E09
:10119000EF50E66E6BEC18F0E552E552E5520E01A9
:1011A000FD0E2D5D010E2E5904E22D2B000E2E2377
:1011B00002D02D6B2E6BC2EC00F0C00EC61401E005
:1011C0008A960E011F5101E17FD00E011851050AC8
:1011D00069E0010A4AE0070A05E0010A01E06BD074
:1011E000D58E69D0000160510E012F6F306B2FCE6C
:1011F00030FE2F6B00016151146E156A14500E0100
:101200002F1315503013000162510E01316F326BF4
:1012100031CE32FE316B00016351146E156A1450E9
:101220000E0131131550321331CEE6FF32CEE6FFF8
:101230002FCEE6FF30CEE6FFD4EC09F0E552E552C2
:10124000E552E55230CE14F0156AD8901432D89099
:1012500014321450151008E0A00EE66E000EE66E73
:1012600005EC0BF0E552E55226D031CEE6FF32CE4A
:10127000E6FF2FCEE6FF30CEE6FFD4EC09F0E552D4
:10128000E552E552E5520E012105E66EE66A600E72
:10129000E66E000EE66EB8EC0AF0E552E552E55255
:1012A000E55209D0000160A103D0C00E8A1202D01D
:1012B0003F0E8A1600D00E01205103E0A0C0C9FFE6
:1012C000206B93880E011F6B32D71200DACFE4FF38
:1012D000E2CFDAFFE9CFE4FFEACFE4FFF6CFE4FFA5
:1012E000F7CFE4FFF5CFE4FFF3CFE4FFF4CFE4FF63
:1012F000FACFE4FF00EE00F0140EE80403E3EECFB3
:10130000E4FFFBD700EE14F00A0EE80403E3EECF8F
:10131000E4FFFBD7E652A1A803D0A198D1EC00F0DE
:101320009EA603D077EC0BF09E969EB09E90E55261
:1013300000EE1DF00A0EE80403E3E5CFEDFFFBD756
:1013400000EE13F0140EE80403E3E5CFEDFFFBD746
:10135000E5CFFAFFE5CFF4FFE5CFF3FFE5CFF5FFEB
:10136000E5CFF7FFE5CFF6FFE5CFEAFFE5CFE9FFF1
:10137000E5CFDAFF1100DACFE4FFE2CFDAFFE65281
:10138000F2A40ED0F2948AA602D08A9601D08A8660
:101390000E012C2B2C51190803E2D59E8A962C6B3A
:0813A000E552E5CFDAFF110070
:0813A800D9CFE6FFE1CFD9FF28
:1013B000180EE76EFD0EDBCF14F0FE0EDBCF15F03E
:1013C000E7501416156A030ED89014361536E80443
:1013D000FBE11450736E040EE76EFD0EDBCF14F0CC
:1013E000FE0EDBCF15F0E7501416156AD8901436B0
:1013F0001536D89014361536200E1412000E15121C
:10140000030EE76EFD0EDBCF16F0FE0EDBCF17F0FE
:10141000E7501616176A14501610726E200EE76EFB
:10142000FD0EDBCF14F0FE0EDBCF15F0E7501416E7
:10143000156A050ED89015321432E804FBE114C089
:1014400035FEFB0EDBCF33FEFC0EDBCF34FEFD0E94
:10145000DBCF14F0FE0EDBCF15F015C014F0156ACB
:10146000D8901432D890143214C036FEFD0EDBCF63
:1014700037FEFE0EDBCF38FEE552E7CFD9FF120074
:10148000D9CFE6FFE1CFD9FFFD0EDB50010B0CE019
:10149000D950FB0FE96EFF0EDA20EA6EEE50ED1028
:1014A00002E08A8401D08A94FD0EDB50020B0CE02E
:1014B000D950FB0FE96EFF0EDA20EA6EEE50ED1008
:1014C00002E08B8C01D08B9CFD0EDB50040B0CE0FA
:1014D000D950FB0FE96EFF0EDA20EA6EEE50ED10E8
:1014E00002E0898601D08996FD0EDB50080B0CE0E6
:1014F000D950FB0FE96EFF0EDA20EA6EEE50ED10C8
:1015000002E0898201D08992FD0EDB50100B0CE0C5
:10151000D950FB0FE96EFF0EDA20EA6EEE50ED10A7
:1015200002E0898001D08990FD0EDB50200B0CE099
:10153000D950FB0FE96EFF0EDA20EA6EEE50ED1087
:1015400002E08B8401D08B94FD0EDB50400B0CE04D
:10155000D950FB0FE96EFF0EDA20EA6EEE50ED1067
:1015600002E0899401D08984E552E7CFD9FF1200C7
:10157000D9CFE6FFE1CFD9FF020EE1269382939007
:10158000000EE66EE66A33CEE6FF34CEE6FF78DF85
:10159000E552E552E552E552340E886E866A666A77
:1015A000FB0EDBCF14F0FC0EDBCF15F01406000EA3
:1015B000155A1450676EFD0EDBCF14F0FE0EDBCF14
:1015C00015F015C014F0156A14506A6EFD0EDB504C
:1015D0006B6E888088B0FED7330E936E0E01355146
:1015E000E66EE66A33CEE6FF34CEE6FF49DFE5522B
:1015F000E552E552E552020EE15C02E2E16AE55293
:10160000E16EE552E7CFD9FF1200D9CFE6FFE1CF77
:10161000D9FF020EE126000EE66EE66A33CEE6FF43
:1016200034CEE6FF2DDFE552E552E552E5520E01DC
:101630003751400B05E0030E93120E01C96BFB6F8F
:10164000300E886E866A666A0E013605676E6A6AB3
:101650006B6AFD0EDBCF14F0FE0EDBCF15F015C06C
:1016600014F0156A1450686EFD0EDB50696E8880A8
:1016700088B0FED70E013551E66EE66A33CEE6FF3E
:1016800034CEE6FFFDDEE552E552E552E5520E01AD
:101690003751400B05E00E01040EFB6F090EC96FB8
:1016A000020EE15C02E2E16AE552E16EE552E7CF4B
:0416B000D9FF12004C
:0C16B400D9CFE6FFE1CFD9FFC76A160EC0
:1016C000C66E980EC56EFE0EDB5008090E011C6F2B
:1016D000FE0EDBCF1DFEDB5004091E6FFE0EDB503D
:1016E000E824C86EC68AE552E7CFD9FF1200D9CFE9
:1016F000E6FFE1CFD9FF020EE126C7BA38D00E01CE
:10170000010E1B6FC9407F0B156F176B1C51155DC8
:1017100013E1C7A410D0180504E1E0C0C9FF172BDE
:101720000AD0030E185D07E11F5102E0010E206F81
:10173000A0C0C9FF172B13D01D51155D03E01E512A
:10174000155D0DE1C7A40BD0000E1925E96E090E39
:101750001A21EA6EEF50C96E192B000E1A231F5181
:1017600004E093988A98C68801D0C68893D0C7A40D
:1017700049D00E011C51155D32E11851040A2DE0CB
:10178000010A2BE0060A1FE0010A1CE0030A05E03B
:10179000010A01E023D0C96A21D01751EA6AE00F9B
:1017A000E96E000EEA22EF500AE01751172BEA6AA1
:1017B000E00FE96E000EEA22EF50C96E02D0186BFE
:1017C000C96A0CD00BD01751172BEA6AA00FE96E2B
:1017D000000EEA22EF50C96E01D000D011D01D5189
:1017E000155D03E01E51155D0BE1000E1925E96E34
:1017F000090E1A21EA6EEF50C96E192B000E1A233A
:10180000C68848D00E011C51155D18E1175105E13D
:10181000C9CF18FE010E176F0AD01751172BFF0FF3
:10182000EA6A600FE96E000EEA22C9CFEFFFC7A88F
:1018300004D0010E1F6F17CE21FE2CD01D51155D57
:1018400003E01E51155D26E11B5111E01E51155D8F
:1018500004E1146A010E156E02D0146A156AC950AB
:101860001424196F000E15201A6F1B6B13D0000E75
:101870001925E96E090E1A21EA6EC9CFEFFF000E95
:101880001925E96E0B0E1A21EA6E010EEF6E192B67
:10189000000E1A23020EE15C02E2E16AE552E16EFB
:0818A000E552E7CFD9FF120069
:0818A8001E0EF66E000EF76E35
:1018B000000EF86E0E010900F550276F0900F55073
:1018C000286F03E1276701D03DD00900F550226F52
:1018D0000900F550236F0900F550246F0900090035
:1018E000F550E96E0900F550EA6E0900090009009B
:1018F000F550256F0900F550266F09000900F6CF55
:1019000029FEF7CF2AFEF8CF2BFE22CEF6FF23CEFC
:10191000F7FF24CEF8FF0E01255302E1265307E01E
:101920000900F550EE6E2507F8E22607F9D729CE13
:10193000F6FF2ACEF7FF2BCEF8FF0E012707000E89
:06194000285BBFD7120076
:0A19460009C013F008C012F00850A9
:101950000D02F4CF07F0F3CF06F009500E02F4CFDA
:1019600009F0F3CF08F00D02F3500726F4500822D7
:10197000E86A092212500E02F3500726F45008229A
:10198000E86A09220EAEC9EF0CF01250085E13503F
:10199000095A13AE000C0D50085E0E50095A000C87
:1019A000056A046A100EE76ED890083609360436C8
:1019B00005360D50045C0E50055805E30D50045ECD
:0C19C0000E50055A082AE72EF0D712003E
:0419CC00C00EF36EE8
:1019D00000EE00F00E0E01D81200EA6002D0EE6AAE
:0C19E000FCD7F350E9601200EE6AFCD75F
:0419EC001DEE00F0FC
:1019F0002DEE00F0F86A019C54EC0CF003EC00F0C2
:081A000021EC08F0FBD71200F5
:081A080041442D464D434F4DB2
:101A10004D53312D45425A2052657642204657306B
:041A20003032000060
:0C1A2400000000000000416E616C6F6764
:091A3000204465766963657300CA
:061A3900010001000000A5
:011A3F00FFA7
:0C1A400000000000000100000000000099
:101C0000FFFFFFFFFFFFFFFFFFFFFFFFFFFFFFFFE4
:101C1000FFFFFFFFFFFFFFFFFFFFFFFFFFFFFFFFD4
:101C2000FFFFFFFFFFFFFFFFFFFFFFFFFFFFFFFFC4
:101C3000FFFFFFFFFFFFFFFFFFFFFFFFFFFFFFFFB4
:10240000D9CFE6FFE1CFD9FFE652F250800B01E0D1
:10241000010EDF6EF29E550EA76EAA0EA76EA68263
:10242000A6B2FED7A66ADF50E8B0F28EE8A0F29E10
:1024300000D0E552E552E7CFD9FF1200D9CFE6FF31
:10244000E1CFD9FFE652000E146E1C0E156E000E81
:10245000166EFD0EDBCFE6FFFE0EDB50E824E552E4
:10246000E724176E186A196A090ED89017361836BD
:102470001936E806FAE114501724F66E15501820A4
:10248000F76E16501920F86E0800F550DF6EFC0E3E
:10249000DB50020A0FE0030A07E0010A01E011D055
:1024A000010EDF14DF6E0FD0020EDF14E8407F0B49
:1024B000DF6E09D0040EDF14E840E8403F0BDF6E0A
:1024C00002D0DF6A00D0DF50146E156A14C0F3FF2B
:1024D00015C0F4FF00D0E552E552E7CFD9FF120056
:1024E000D9CFE6FFE1CFD9FF000E146E1C0E156E9A
:1024F000000E166EFD0EDBCFE6FFFE0EDB50E8246D
:10250000E552E724176E186A196A090ED890173633
:1025100018361936E806FAE114501724F66E1550ED
:102520001820F76E16501920F86E140EA66E68DF8C
:1025300000D0E552E7CFD9FF1200D9CFE6FFE1CFB7
:10254000D9FF080EE126050EF6CFDBFF060EF7CF0A
:10255000DBFF070EF8CFDBFF020EDB6A030EDB6A40
:10256000020EDBCF14F0030EDBCF15F0020E145C6D
:10257000000E15581BE2010EE66E020EDBCFE6FFE1
:10258000FE0EDBCFE6FF5ADFE552E552E552F3CF10
:1025900016F0F4CF17F0010E161801E1175006E1FE
:1025A000020EDB2A030E01E3DB2ADAD7000E146EDB
:1025B0001C0E156E000E166EFE0EDB50E8241A6E11
:1025C0001B6A020EDB501A24176E030EDB501B2011
:1025D000186E196A090ED890173618361936E8069B
:1025E000FAE114501724F66E15501820F76E1650A5
:1025F0001920F86E020EDE6EDD6A020EF626000E5F
:10260000F722000EF822020EDE26000EDD22020E58
:10261000F626000EF722000EF8220800040EF5CF71
:10262000DBFF040EDB50FF0809E0DECF14F0DDCF46
:1026300015F0000E145C020E1558E5E3D9CFE9FF42
:10264000DACFEAFFEE5002E1020EED1802E1DE6A97
:10265000DD6A050EDBCFF6FF060EDBCFF7FF070EB8
:10266000DBCFF8FFDECF14F0DDCF15F014C0F3FFA1
:1026700015C0F4FF00D0080EE15C02E2E16AE55209
:10268000E16EE552E7CFD9FF1200D9CFE6FFE1CFE7
:10269000D9FF140EE126080EF6CFDBFF090EF7CFA7
:1026A000DBFF0A0EF8CFDBFF0B0EDB6A020EF36EC8
:1026B0000B0EDBCFF4FFF350F45C18E2010EE66E74
:1026C0000B0EDBCFE6FFFE0EDBCFE6FFB7DEE552FB
:1026D000E552E552F3CF14F0F4CF15F0010E1418C3
:1026E00001E1155003E10B0EDB2AE0D70B0EDB50A6
:1026F000020810E1080EDBCFF6FF090EDBCFF7FF73
:102700000A0EDBCFF8FF0001FF87030EF36EF46AB9
:1027100034D23ED00B0EDB28E76E0C0EE7CFDBFF8A
:102720000C0EDB50020802E10C0EDB6A020EE66EB4
:102730000C0EDBCFE6FFFE0EDBCFE6FF7FDEE552C1
:10274000E552E552F3CF14F0F4CF15F01450151004
:102750001FE10C0EDB2A0C0EDB50020802E10C0E0E
:10276000DB6A0B0EDB50F36E0C0EDB50F35C0FE1FB
:10277000080EDBCFF6FF090EDBCFF7FF0A0EDBCF2B
:10278000F8FF0001FF83010EF36EF46AF6D1CED795
:10279000000E146E1C0E156E000E166E0C0EDBCFA6
:1027A000E6FFFE0EDB50E824E552E724176E186AB8
:1027B000196A090ED890173618361936E806FAE164
:1027C00014501724F66E15501820F76E1650192065
:1027D000F86E020EF6CFDBFF030EF7CFDBFF040E21
:1027E000F8CFDBFF000E146E1C0E156E000E166E79
:1027F0000B0EDBCFE6FFFE0EDB50E824E552E724AC
:10280000176E186A196A090ED890173618361936D5
:10281000E806FAE114501724F66E15501820F76EEA
:1028200016501920F86E050EF6CFDBFF060EF7CF17
:10283000DBFF070EF8CFDBFFFE0EDBCFE6FF7DDE12
:10284000E552F3CF14F0F4CF15F01450151002E058
:102850000001FF85020EDBCFF6FF030EDBCFF7FF93
:10286000040EDBCFF8FFF568DE6ADD6ADECF14F018
:10287000DDCF15F0040E145C000E155806E20D00B5
:10288000DF2A010E01E3DB2AF1D70D0EDB6A0F0E02
:10289000FFC0DBFF0001FF910D0EDB50146E156AC7
:1028A000FF0E141801E1155059E0DECF16F0DDCF10
:1028B00017F0400E165C000E175850E20D0EDB505C
:1028C000186E196AFE0EDB50166E176A0868096AE0
:1028D00016C00DF017C00EF0A3EC0CF00650182433
:1028E000146E07501920156E14C0E6FF15C0E6FFE0
:1028F000DCDAE552E5520E0EF3CFDBFF0001FFA15B
:1029000003D00001FF910CD00D0EDB50F56E0D00D1
:102910000E0EDB50F56E0D00020EDE26000EDD22DF
:102920000D0EDB2A0D0EDB50146E156AFF0E141807
:1029300001E1155012E1DECF16F0DDCF17F0400EA9
:10294000165C000E175809E2F5680D00F5680D00D9
:10295000020EDE26000EDD22E5D79ED7F606000E1B
:10296000F75A000EF85A040EA66E4ADDF62A000E3B
:10297000F722000EF822DE6ADD6A0D0EDB50146EBF
:10298000156AFF0E141801E1155001E085D70F0EEE
:10299000DBCFFFF0020EDBCFF6FF030EDBCFF7FF3E
:1029A000040EDBCFF8FF040EF626000EF722000E11
:1029B000F82209000D0EF5CFDBFF09000E0EF5CF52
:1029C000DBFF0D0EDB50FF083AE00D0EDB501A6EF8
:1029D0001B6AFE0EDB50186E196A0868096A18C077
:1029E0000DF019C00EF0A3EC0CF006501A24166E70
:1029F00007501B20176E16C0E6FF17C0E6FF55DA1A
:102A0000E552E552F3CF14F0F4CF15F00E0EDB5083
:102A10001C6E1D6A1C50141802E11D50151806E0AA
:102A20000001FF8F070EF36EF46AA7D009000D0EA8
:102A3000F5CFDBFF09000E0EF5CFDBFFC2D7050E89
:102A4000DBCFF6FF060EDBCFF7FF070EDBCFF8FF7D
:102A50000900100EF5CFDBFF0900110EF5CFDBFFEB
:102A60000900120EF5CFDBFF0800130EF5CFDBFFD8
:102A70000C0EDB5005E1120EDB2A130E01E3DB2AFC
:102A8000120EDBCF14F0130EDBCF15F0E70E145C43
:102A9000030E155804E3100EDB940001FF83020EB1
:102AA000DBCFF6FF030EDBCFF7FF040EDBCFF8FF23
:102AB000100EDB50F56E0D00110EDB50F56E0C00A4
:102AC000240EA66E9DDCF62A000EF722000EF822D8
:102AD000120EDB50F56E0D00130EDB50F56E0C0080
:102AE000240EA66E8DDC0A00130EDB50F55C06E0AA
:102AF0000001FF8F070EF36EF46A3FD00A00120E3A
:102B0000DB50F55C06E00001FF8F070EF36EF46A00
:102B100034D00A00110EDB50F55C06E00001FF8F97
:102B2000070EF36EF46A29D00800100EDB50F55C36
:102B300006E00001FF8F070EF36EF46A1ED00B0E45
:102B4000DBCFE6FFFE0EDBCFE6FFCADCE552E55247
:102B5000080EDBCFF6FF090EDBCFF7FF0A0EDBCF47
:102B6000F8FF0001FF51020B01E0010E146E156A1F
:102B700014C0F3FF15C0F4FF00D0140EE15C02E2B4
:102B8000E16AE552E16EE552E7CFD9FF1200D9CFF5
:102B9000E6FFE1CFD9FF090EE126020EF6CFDBFFFB
:102BA000030EF7CFDBFF000EF66E1C0EF76E000E65
:102BB000F86E080EDB6A020EF36E080EDBCFF4FF30
:102BC000F350F45C01E363D1DF6A010EDB6A060EA9
:102BD000DB6A070EDB6A040EDB6A050EDB6A040E95
:102BE000DBCF14F0050EDBCF15F0020E145C000EE7
:102BF000155819E2020EE66E040EDBCFE6FF080E52
:102C0000DBCFE6FF1BDCE552E552E552F3CF16F0D1
:102C1000F4CF17F01650171006E1040EDB2A050E4C
:102C200001E3DB2ADCD7D950040FE96EDACFEAFFE3
:102C3000020EEE1801E1ED500BE1020EDBCFF6FFC4
:102C4000030EDBCFF7FFF86A0001FF83010E21D1ED
:102C5000040EDB6A050EDB6A040EDBCF14F0050EF2
:102C6000DBCF15F0020E145C000E15581BE2010EAE
:102C7000E66E040EDBCFE6FF080EDBCFE6FF1EECB0
:102C800012F0E552E552E552F3CF14F0F4CF15F00F
:102C90001450151001E1DF2A040EDB2A050E01E3B2
:102CA000DB2ADAD7DF5042E1E66A080EDBCFE6FF27
:102CB00017DCE552E552000E146E1C0E156E000E68
:102CC000166E080EDB50E824176E186A196A090E92
:102CD000D890173618361936E806FAE1145017243A
:102CE000F66E15501820F76E16501920F86EFC0E6F
:102CF000F56E0D00F5680C00240EA66E00EC12F0C7
:102D0000F62A000EF722000EF822F56A0D00F56A89
:102D10000C00240EA66E00EC12F0020EDBCFF6FFC4
:102D2000030EDBCFF7FFF86AAFD0AED0DF0409E1C6
:102D3000020EDBCFF6FF030EDBCFF7FFF86AA4D05D
:102D4000A3D0020EDF5C01E094D0010EE66E010E0E
:102D5000E66E080EDBCFE6FF1EEC12F0E552E55200
:102D6000E552F3CF14F0F4CF15F0145015101CE118
:102D7000010EE66EE66A080EDBCFE6FF1EEC12F0EF
:102D8000E552E552E552F3CF16F0F4CF17F01650A6
:102D900017100AE1010EF36E040EF3CFDBFF050EF0
:102DA000DB6A010EDB6A40D0040EDB6A050EDB6ACB
:102DB000010EE66E040EDBCFE6FF080EDBCFE6FF6A
:102DC0001EEC12F0E552E552E552F3CF14F0F4CFC9
:102DD00015F0010E141801E1155011E1040EDBCFBE
:102DE00016F0050EDBCF17F0020E165C000E17581A
:102DF00006E2040EDB2A050E01E3DB2AD9D7010E19
:102E0000E76E040EDBCF14F0050EDBCF15F0E750B4
:102E10001426000E1522010E14C0DBFF010EDB503C
:102E2000020802E1010EDB6A010EDBCFE6FF080EAD
:102E3000DBCFE6FF70EC12F0E552E552080EDBCF77
:102E4000E6FF9DEC12F0E552F3CF14F0F4CF15F04D
:102E50001450151005E1080EDBCFE6FF16DCE55235
:102E6000020EDBCFF6FF030EDBCFF7FFF86A0CD0C4
:102E70000BD0020EDBCFF6FF030EDBCFF7FFF86AB5
:102E80000001FF8D060E05D0080EDB2A94D6000E39
:102E900000D0146E090EE15C02E2E16AE552E16ED7
:102EA0001450E552E7CFD9FF1200D9CFE6FFE1CFAA
:102EB000D9FF0A0EE126060EF6CFDBFF070EF7CF8D
:102EC000DBFF080EF8CFDBFFFD0EDBCF14F0FE0EAC
:102ED000DBCF15F0FE0E145C010E155805E3000162
:102EE000FF8BF368F46AEDD01468156AFD0EDBCF32
:102EF00008F0FE0EDBCF09F014C00DF015C00EF087
:102F0000D0EC0CF0090E08C0DBFF020EDB6A030EEA
:102F1000DB6A020EDBCF14F0030EDBCF15F0020EDE
:102F2000145C000E15581CE2010EE66E020EDBCF9B
:102F3000E6FF090EDBCFE6FF1EEC12F0E552E5528C
:102F4000E552F3CF16F0F4CF17F0010E161801E199
:102F5000175006E1020EDB2A030E01E3DB2AD9D764
:102F6000D950020FE96EDACFEAFF020EEE1801E146
:102F7000ED500EE1060EDBCFF6FF070EDBCFF7FFBD
:102F8000080EDBCFF8FF0001FF8DF368F46A99D0DB
:102F9000000E146E1C0E156E000E166E010EE76EFE
:102FA000020EDBCF1AF0030EDBCF1BF0E7501A2620
:102FB000000E1B22090EDB50E82400011A24176EB4
:102FC000000E1B20186E196A090ED8901736183695
:102FD0001936E806FAE114501724F66E1550182039
:102FE000F76E16501920F86E020EF65E000EF75AB4
:102FF000000EF85ADE68DD6A0800050EF5CFDBFF2B
:10300000020EF65E000EF75A000EF85ADF06010EA9
:1030100001E2DB06D9CFE9FFDACFEAFF000ED88064
:10302000EE54000EED541CE2050EDB50146E156AD2
:10303000FD0EDBCF16F0FE0EDBCF17F00D680E6A2B
:1030400016C008F017C009F0D0EC0CF004C016F060
:1030500005C017F01650141802E117501518CCE1EE
:10306000D9CFE9FFDACFEAFFEE50ED100EE1000113
:10307000FF81060EDBCFF6FF070EDBCFF7FF080E52
:10308000DBCFF8FFF368F46A1CD0030EF626000EBF
:10309000F722000EF8220A00040EF5CFDBFF060E21
:1030A000DBCFF6FF070EDBCFF7FF080EDBCFF8FF15
:1030B000040EDB50146E156A14C0F3FF15C0F4FF44
:1030C00000D00A0EE15C02E2E16AE552E16EE552EF
:1030D000E7CFD9FF1200D9CFE6FFE1CFD9FF0B0E22
:1030E000E126F6CFDFFF010EF7CFDBFF020EF8CFB0
:1030F000DBFFFC0EDBCF14F0FD0EDBCF15F0FE0E78
:10310000145C010E155804E30001FF8B050E4BD132
:103110001468156AFC0EDBCF08F0FD0EDBCF09F05A
:1031200014C00DF015C00EF0D0EC0CF00A0E08C063
:10313000DBFF030EDB6A040EDB6A050EDB6AD95087
:10314000030FE96EDACFEAFF020EEE5C000EEE58D6
:10315000000EEF5821E2010EE66E030EDBCFE6FF14
:103160000A0EDBCFE6FF1EEC12F0E552E552E55207
:10317000F3CF14F0F4CF15F0010E141801E115503F
:103180000BE1D950030FE96EDACFEAFFEE2A000E09
:10319000EE22000EEE22D3D7D950030FE96EDACF1C
:1031A000EAFF020EEE1803E1EE5001E1EE500CE1F1
:1031B000DFCFF6FF010EDBCFF7FF020EDBCFF8FF0C
:1031C0000001FF8D060EEFD0000E146E1C0E156E62
:1031D000000E166E0A0EDB50E8241A6E1B6A1C6A7B
:1031E000D950030FE96EDACFEAFF1A50EE24176EBA
:1031F0001B50EE20186E1C50EE20196E090ED89050
:10320000173618361936E806FAE114501724F66E08
:1032100015501820F76E16501920F86E090EFFC0D1
:10322000DBFFFC0EDBCFE6FFFD0EDBCFE6FF3DDE76
:10323000E552E552F3CF14F0F4CF15F0FE0EDB505B
:10324000166E176A1650141802E11750151810E17F
:103250000001FFB10DD0DFCFF6FF010EDBCFF7FF8E
:10326000020EDBCFF8FF090EDBCFFFF0000E9BD084
:10327000090EDBCFFFF00A0EDBCFE6FF9DEC12F06C
:10328000E552060EF3CFDBFF070EF4CFDBFFD9507C
:10329000060FE96EDACFEAFFEE50ED100CE1DFCF5A
:1032A000F6FF010EDBCFF7FF020EDBCFF8FF0001C8
:1032B000FF89040E78D0060EDBCF14F0070EDBCFAB
:1032C00015F0166A1450F6261550F7221650F822FB
:1032D000FC0EDBCF14F0FD0EDBCF15F00D680E6A8F
:1032E00014C008F015C009F0D0EC0CF004C014F0C4
:1032F00005C015F01450F56E0D00060EDB2A070E02
:1033000001E3DB2AFE0EDB50F56E0C00240EA66EE8
:1033100000EC12F0060EDB2A070E01E3DB2A0A009E
:10332000FE0EDB50F55C04E00001FF8F070E3BD082
:103330000800F550146E156AFC0EDBCF16F0FD0E7A
:10334000DBCF17F00D680E6A16C008F017C009F041
:10335000D0EC0CF004C016F005C017F0165014188D
:1033600002E11750151804E00001FF8F070E1BD073
:10337000D950060FE96EDACFEAFFEE5002E1020EF5
:10338000ED1807E100000A0EDBCFE6FF45EC13F075
:10339000E552DFCFF6FF010EDBCFF7FF020EDBCFEA
:1033A000F8FF000E00D0146E0B0EE15C02E2E16A41
:0E33B000E552E16E1450E552E7CFD9FF12004E
:013FF800AC1C
:013FF900F7D0
:013FFA0012B4
:013FFB00F0D5
:013FFC0001C3
:013FFD00F0D3
:013FFE00CFF3
:013FFF00F1D0
:00000001FF
