:020000041000EA
:1000000000001220C5400110014101100341011000
:1000100005410110074101100941011000000000D5
:100020000000000000000000000000000B41011073
:100030000D410110000000000F410110894E001019
:10004000154101101741011019410110515D0010B7
:100050001D4101102D5D0010395D0010455D00103F
:100060002541011027410110294101102B410110A8
:100070002D41011061580010FD5C0010095D001059
:100080003541011037410110394101103B41011048
:100090003D4101103F410110414101104341011018
:1000A000895500108F550010955500104B410110D7
:1000B0004D4101104F4101105141011053410110B8
:1000C0005541011057410110155D00105B410110B1
:1000D0006D5800105F410110614101106341011032
:1000E0006541011067410110694101106B41011028
:1000F0006D4101106F4101107141011073410110F8
:100100007541011077410110794101107B410110C7
:100110007D4101107F410110814101108341011097
:1001200085410110874101109B5500108B41011042
:100130008D4101108F410110795800109341011039
:100140009541011097410110994101109B41011007
:100150009D4101109F410110A1410110A3410110D7
:10016000A5410110A7410110A9410110AB410110A7
:10017000AD410110AF410110B1410110B341011077
:10018000B5410110B7410110B9410110BB41011047
:10019000BD410110BF410110C1410110C341011017
:1001A000215D0010C7410110C9410110CB41011070
:1001B000CD410110CF410110D1410110D3410110B7
:1001C000D5410110D7410110D9410110DB41011087
:1001D000DD410110DF410110E1410110E341011057
:1001E000E5410110E7410110E9410110EB41011027
:1001F000ED410110EF410110F1410110F3410110F7
:1002000010B5054C237833B9044B13B10448AFF350
:1002100000800123237010BDB013002000000000F7
:10022000EC18031008B5034B1BB103490348AFF3A7
:10023000008008BD00000000B4130020EC1803107B
:100240000A4A116808B5034609B9094911601068DE
:10025000084903448B4206D914F066FC0C23036062
:100260004FF0FF3008BD1360FCE700BFCC13002047
:10027000E82E022000F011206FF0100070476FF0A0
:10028000100070474FF080439A6802F46062B2F544
:10029000206F1ED013D8B2F5806F1DD0B2F5C06F9D
:1002A0001CD0114B1149002A08BF0B464FF0804269
:1002B0009268C2F38212D3400D4A13607047B2F5C0
:1002C000406F0ED0084B0B49B2F5606F08BF0B466C
:1002D000ECE74FF4E103E9E7074BE7E74FF4FA53A4
:1002E000E4E74FF40043E1E7000E2707008793039C
:1002F000D01300200080BB000048E80100207047B8
:100300007047000010B5164C164BA3604FF08043A9
:100310000122C3F8002C4022C3F80C240022C3F8A9
:10032000002C114801F020F90F4801F01FF90E4888
:1003300001F01AF9D4F8883043F47003C4F8883017
:10034000BFF34F8FBFF36F8F042001F09FFEFFF7C5
:1003500099FFFFF7D5FF05F0B1FA62B610BD00BFF7
:1003600000ED00E00000001000A00240014800F095
:1003700005B800BF0080024000F00EB8044BC01A60
:1003800018BF4FF0FF30034B002243F82020704786
:1003900000800240D41300200F28F8B515D814258A
:1003A0000D4E4543771973597BB10C48012101F07B
:1003B000BDFD044660B9FB68705118605A68074873
:1003C0005A6001F0C1FD2046F8BD6FF00204FAE763
:1003D0006FF00504F7E700BFDC130020D8130020FE
:1003E00010B5064C217831B905484FF4207214F04D
:1003F000CDFF01232370002010BD00BF1C1A002078
:100400001C1500202DE9F047DFF868C04468174E3E
:10041000174FDFF864E0DFF86480DFF86490DFF8FE
:1004200064A000250CB9BDE8F087E30713D5036885
:10043000B34213D0734513D0434513D04B4513D06B
:1004400053450CBF04234FF0FF3305EB431347F82C
:1004500023104CF8232001356408E3E70023F4E778
:100460000123F2E70223F0E70323EEE700800040D8
:100470001C1500209C1700200090004000A00040A8
:100480000004084000C0004070B50446C8B101280F
:1004900019D0022819D0032819D00428124D18BFEA
:1004A0000025284600F0EEF801460646284600F0F2
:1004B000DBF80E4D0E4805EBC41500EBC41446B92D
:1004C00070BD0C4DEDE70C4DEBE70C4DE9E70C4D25
:1004D000E7E7F30703D523680BB128689847760848
:1004E00004350434EBE700BF00C000409C17002037
:1004F0001C150020008000400090004000A000403B
:100500000004084010B50446E00702D5002001F0C1
:1005100043FDA10702D5012001F03EFD620702D58F
:10052000022001F039FD230702D5402001F034FDFF
:100530002046BDE81040FFF753BF00000A4B984229
:1005400010B403D05DF8044B00F0CEB9074A5DF853
:10055000044B136A126A9209C3F3C00302F0020249
:10056000134303EA0100704700C00040006C0040E4
:10057000084A90420B460AD10749086ADA0003F09C
:10058000010302F01002034313430B62704700F0B3
:10059000AEB900BF00C00040006C0040084A904265
:1005A0000B460BD10748C900026A01F0100103F0A5
:1005B00001030B4322EA03030362704700F099B979
:1005C00000C00040006C0040084B984201D000F091
:1005D00092B9074B186A1B6ADB0800F0010003F0B0
:1005E0000203034303EA0100704700BF00C000405C
:1005F000006C004010B4084A0468944203D05DF8CF
:10060000044B00F07BB9042914BF6FF010000020E8
:100610005DF8044B704700BF00C00040064A90429E
:100620000B4607D1A2F5B04203F00303916A0B43D6
:100630009362704700F094B900C00040074A9042AE
:100640000B4608D1A2F5B04203F00303916A21EAF8
:1006500003039362704700F085B900BF00C00040FB
:10066000FFF7D0BEFFF710BF054A904205D1A2F5B3
:10067000B04201F003035362704700F075B900BF48
:1006800000C00040044B984201D000F06FB9034B0A
:10069000586A00F00300704700C000400068004046
:1006A000034B984201D000F063B96FF0100070471F
:1006B00000C0004070B5894B04689C42054621D0BB
:1006C00003F580539C421FD003F580539C421DD0FC
:1006D00003F5EC2303F580639C4219D0804B9C42C8
:1006E00040F0E98004260120B040FFF70BFF042E04
:1006F000297A0FD06A68204600F04CF9002800F0F3
:10070000DD8070BD0026EEE70126ECE70226EAE771
:100710000326E8E7012921D0022904D0002930D09E
:100720006FF01000EDE76B686E4958001A010E6A11
:1007300000F0020002F02002024332430A628A689B
:10074000C3F34003034313438B606B7A042B00F223
:10075000B280DFE803F05F76947694006B686149BD
:1007600058001A010E6A00F0020002F02002024353
:1007700032430A628A68C3F34003034322EA030355
:10078000E2E76B68574958001A010E6A00F0020050
:1007900002F02002024326EA0202EAE7226E6968BA
:1007A00022EA01022266636E23EA010363666A6835
:1007B000A97A2046FFF774FF002837D0A1E7236EFF
:1007C0006A6813432366636E23EA02036366D4F800
:1007D000B83023EA02030AE0226E6B681A432266ED
:1007E000626E22EA03026266D4F8B8201343C4F8AA
:1007F000B830DCE7236E6A6823EA02032366636E7F
:100800001343E3E7226E6B6822EA03022266626EFC
:100810001A43E8E76A68334993005201086A03F013
:10082000040302F04002134303430B62287A0028BA
:100830003FF467AF6A68E97A2046BDE8704000F08F
:10084000D4B86B6827495A001E0106F0200602F052
:10085000020232439E0006F0040632435E01086A3B
:1008600006F04006324320EA02020A62086ADA0011
:1008700003F0010302F0100203431343D5E76A6853
:1008800018495300160106F0200603F00203334313
:1008900002F001063343960006F004063343560186
:1008A00006F04006D200086A334302F010021343F8
:1008B00020EA0303B9E76FF0020022E76B7A042B0A
:1008C000F9D801A252F823F09D070010D9070010B3
:1008D00005080010BF070010F50700100080004059
:1008E00000C00040006C0040406A08407047C16191
:1008F00070470162704780690840704703680429A7
:100900002BD8DFE801F00F03221D2600DA6A4168C8
:100910000A43DA62DA6D22EA0102DA659A6A22EAA9
:1009200001020AE0D96A426821EA0201D962D96D5E
:1009300021EA0201D965996A0A439A620020704748
:10094000DA6A416822EA0102E3E7D96A42681143A0
:10095000ECE7D96D42681143ECE76FF00200704795
:1009600081637047C163704781647047006C704752
:1009700021B101290AD06FF002007047D0F8C030D1
:1009800023EA0202C0F8C02000207047D0F8C0302F
:100990001A43F7E7036B134303634260052921D829
:1009A000DFE801F0030B0D13181C4261426002677F
:1009B000C267C0F88820002070470261F6E7C0F8DF
:1009C0008820C26702678260F5E7C0F88820C267A6
:1009D000C266F8E7C0F888208267F3E7C0F888208D
:1009E0008267F5E76FF00200704703291ED8DFE841
:1009F00001F01D020C19D0F8B0301343C0F8B0302C
:100A0000D0F8B43023EA020208E0D0F8B03023EA8C
:100A10000203C0F8B030D0F8B4301A43C0F8B420A4
:100A200000207047D0F8B0301343F2E7D0F8B03070
:100A300023EA0203E2E70AB900F006B96FF01000FA
:100A400070470000114B984210B504460AD10D20A2
:100A500001F080FA102001F091FB2046BDE8104023
:100A600000F010B90A4B984204D11C2001F072FA30
:100A70002020F0E7074B984204D1382001F06AFAB1
:100A80003420E8E76FF0010010BD00BF00D0014046
:100A900000E0014000F0014070B50D4616460446E6
:100AA00008B3FFF7CFFF134B9C420CD10D2001F090
:100AB00073FA1148FFF7FEFD324629462046BDE88D
:100AC000704000F043B80D4B9C4204D11C2001F053
:100AD00063FA0B48EEE70B4B9C4207D1382001F03C
:100AE0005BFA0948E6E74FF0FF3070BD6FF0010098
:100AF000FBE700BF00D00140AC13021000E0014052
:100B0000B813021000F00140C413021000F00AB93B
:100B100000F05AB900F074B900F085B900F091B94D
:100B200000F0A2B900F0B3B900F0B9B900F0BFB954
:100B300000F0C0B900F022BA00F0DEBA00F0EBBA63
:100B4000014B196800F0E0BC000000202DE9F047DF
:100B50000D469146044600286BD0374B984248D04A
:100B600003F58053984247D003F5805398420CBF59
:100B70004FF002084FF0FF3810212046FFF7D8FF52
:100B8000074698BB2368DFF8B0A02C4E43F0010362
:100B900023602046FFF7C6FF2046FFF7C5FF02216E
:100BA0002046FFF7CBFF06212046FFF7C5FF45BBD8
:100BB0002A4649462046FFF73EFF544508D0204BC1
:100BC0009C421CD01F4DAC420CBF02254FF0FF359C
:100BD00006EB451500236B6006EB48136FF001022E
:100BE000C3E9022200221A611A765A613846BDE82A
:100BF000F0874FF00008BFE74FF00108BCE7012580
:100C0000E6E72368544543F0020323600DD00C4B04
:100C10009C420CD00B4884420CBF02244FF0FF349E
:100C200006EB441401236360D6E73C46F8E7012451
:100C3000F6E74FF0FF37D9E700D00140441A002013
:100C400000E0014000F0014090B1032A13D8B1F553
:100C5000806F13D200EB820200237F29D36484BF0C
:100C60004FF40043D364D36C1943D1640020704720
:100C70004FF0FF3070476FF0100070476FF00200C8
:100C800070470000F8B50446002842D0224B984235
:100C900027D003F58053984225D0204DA8420CBFA1
:100CA00002254FF0FF3500212160E1606161A368FA
:100CB0001B4EA360236923616F0106EB4515E161BB
:100CC0002022216228466162A16214F05FFB204667
:100CD000FFF728FF2046FFF727FF2B7E2BB90020C8
:100CE000F8BD0025DFE70125DDE7FFF73FFBA8683A
:100CF000002804DBFFF740FB6FF00103AB603E44CC
:100D0000F0680028EBDBFFF737FB6FF00103F360BF
:100D1000E5E74FF0FF30E3E700D0014000F001408D
:100D2000441A0020002844D0234AA1F574236FF40C
:100D3000107C6344934238D2204B1B685B08B3FBA2
:100D4000F1F103234A00B2FBF3F2B1FBF3F3C9075D
:100D500058BF03F1FF330F2B02F1FF3202DD6FF0BA
:100D6000020070470F2AFADC1B02D2B29BB2134377
:100D7000C3630368124943F4004303600F4B1B68CD
:100D80005B08B3FBF1F14B0811F0010F03F1FF32E7
:100D900008BF1346B3F5007FE1D2002ADFD0C2F3CB
:100DA000080242638363FFF7B3BE064B9942E5D95D
:100DB000D5E74FF0FF307047009F2400D01300208C
:100DC000801A060040E1330003681B040CD5C36B96
:100DD000DBB29A1CC36BC3F307231344074A1068A2
:100DE0004008B0FBF3F07047436B806BC3F308031C
:100DF000C0F3080003440233F0E700BFD013002023
:100E000070B1036B13F0010305D0036B43F00203D1
:100E1000036300207047026B42F001020263F8E7AF
:100E20004FF0FF30704748B1036B43F00403036396
:100E3000036B13F00403FBD1184670474FF0FF30EB
:100E4000704710B568B161B100239A4201D11846CC
:100E500010BD4468A407FAD4C46AE4B2CC54013388
:100E6000F3E74FF0FF30F3E710B568B161B100234D
:100E70009A4201D1184610BD4468E406FAD4CC5C0D
:100E8000E4B2C4620133F3E74FF0FF30F3E7C36924
:100E900043F08003C361C3691B06FCD47047436AF7
:100EA00043F080034362436A1B06FCD470478160B1
:100EB000026170472DE9F0410F460446002859D0E1
:100EC000036843F0010303600668036843F480632A
:100ED00006F4806603604FF00008B8450CD16FF04F
:100EE00008001EB9236823F480632360236823F07D
:100EF00001032360BDE8F0810A2000F0EFFF2368C2
:100F000023F0400323600A2000F0E8FF2368D9059E
:100F100006D5236843F0C003236008F10108DCE72D
:100F20000A2000F0DBFF236823F0800323600A20FF
:100F300000F0D4FF256815F40075EAD10A2000F00E
:100F4000CDFF236843F0800323600A2000F0C6FF32
:100F500023689A05DDD50A2000F0C0FF236843F01E
:100F6000400323600A2000F0B9FF2368DB05D4D5D5
:100F70002846B6E74FF0FF30BCE700002DE9F0410E
:100F8000D0E900437F2B054600F2AA80594B9C42D2
:100F900008D003F580539C4204D003F580539C4253
:100FA00040F0A18023689A0740F1A08007226FF0EB
:100FB0007F412046FFF7BAFD2046FFF7B5FD2046EA
:100FC000FFF7B0FD0023E36063616B690BB1EB6871
:100FD00033B16B685B00E362236B43F0010323636F
:100FE00000262027EA68B24231D80022112120468B
:100FF000FFF79CFD6B697BB1B3F5807F88BF002351
:1010000023622046FFF786FD236B9E07FCD46B68A6
:101010005B0043F00103E362002610274FF0010854
:101020006A69B2422AD8AB69002B51D0236B43F0D6
:1010300002032363A368DB07FCD54123A360A368F5
:1010400013F4FE4F0CBF00206FF0080014E0A368FB
:101050009B0607D5A968921B31442046FFF760FD27
:10106000A7600644A36813F4FE4FBBD0EE60204691
:10107000FFF752FD6FF00800BDE8F081A36813F0A0
:10108000110F07D02969921B31442046FFF746FD16
:10109000A7600644A26812F4FE4201D06E61E6E742
:1010A000A368D907BCD56B69B342B9D29B1BB3F512
:1010B000807F8CBF22622362236B43F00203236391
:1010C0006B68C4F808805B0043F00103E362A7E7A4
:1010D000236B43F004032363A3685A06FCD5A9E7F6
:1010E0006FF01000C8E76FF00200C5E76FF0060070
:1010F000C2E700BF00D001408369DBB28B4221BF51
:10110000C36923F4706343EA0121C1612CBF00204D
:101110006FF0020070478369C3F307238B4221BF3E
:10112000436A23F4706343EA012141622CBF00202B
:101130006FF00200704700000C4B984210D003F58E
:10114000805398420ED003F5805398420CBF022082
:101150004FF0FF30064B53F82000C36923B1184706
:101160000020F7E70120F5E7704700BF00D00140FD
:101170002C1A00200023C3604361826882600269E8
:1011800002610B4A90420ED00A4B98420DD003F5F3
:10119000805398420CBF02204FF0FF30064B0022D4
:1011A00043F8202070471846F8E70120F6E700BF13
:1011B00000D0014000E001402C1A00202DE9F0474A
:1011C0000646C8B1012819D0022840F08F80504C43
:1011D000504B53F82650A36813F4FE4F10D0A36869
:1011E000A360236923610023E36020466361FFF766
:1011F00093FC6FF0080171E0474CE9E7474CE7E7E3
:10120000DFF81CA1EA685AF82680DFF818914245F9
:1012100059F8267013D9A368990609D5A968A2EBD5
:10122000080241442046FFF77BFC20238044A36052
:10123000EB68434538D9E36843F02003E3606A690B
:10124000BA420CD9A36813F0110F08D02969D21B38
:1012500039442046FFF762FC10230744A360EB6883
:1012600043451BD16A69BA4243D0A368DB0715D551
:101270000123A36027B96B685B0043F00103E362BD
:10128000D31BB3F5807F88BF00232362E368BA4293
:101290008CBF43F0110323F01103E3604AF826806A
:1012A00049F82670BDE8F087E3686A6923F02003F7
:1012B000E360C4D1002AC2D0236B43F0020323634E
:1012C0000123A360E36843F00103B7E7236B43F016
:1012D00002032363A16811F4FE418AD12046FFF77F
:1012E0002BFF2046BDE8F047FFF744BF00239B6873
:1012F000FFDE0023E3606361A368A36023692361C9
:10130000AB69002BE2D1236B43F00403E1E700BF9C
:1013100000F001402C1A002000D0014000E0014004
:10132000381A0020201A00202DE9F041D0F808805A
:101330001F4618F4FE4F4FF0000304460D461646B4
:101340003B6065D06FF008033B6011B13A46042161
:10135000A8476FF07F43A360674A072323612046B5
:10136000FFF79DFDFFF793FD00239442C6E900338C
:1013700009D0624B9C4249D003F580539C420CBF7C
:1013800002234FF0FF335E4A002142F823103368F6
:1013900048F220021A4202D17368980755D518F016
:1013A000200F06D01DB1002203212046A84720238C
:1013B000A3602369990706D51DB1002205212046A7
:1013C000A8470223236118F4004F3ED000233B605E
:1013D0001DB13A4604212046A8474FF40043A360BC
:1013E000454B00209C42C6E9000000F0818003F5D7
:1013F00080539C427ED04348844214BF4FF0FF3458
:1014000002243F4B002243F8242055E00123BAE791
:101410001368D9060DD518F0100F0ED12369DB071C
:10142000B5D51DB1002206212046A847012323611E
:10143000ADE75368DA07EED4A9E71DB10022022117
:101440002046A8471023A360E8E733681A0731D580
:1014500018F0080F2ED0226812F400621CD01DB1C3
:10146000002201212046A8474FF48003A3600823EF
:10147000A3604FF40043A3604FF62173336002234F
:10148000736018F0400F19D118F0010F14D0012328
:10149000A360082333600FE015B111462046A8472A
:1014A0004FF40003A3600823A36047F61173336071
:1014B0000123E5E7DB07E4D4BDE8F08100233B60CE
:1014C0001DB13A4604212046A8474023A3600A4B99
:1014D00000209C42C6E900000AD003F580539C42DC
:1014E00008D0084884420CBF02244FF0FF3488E73C
:1014F000044686E7012484E700D0014000E0014073
:101500002C1A002000F001401FB5154B98420446EC
:1015100009D003F5805398420ED003F580539842CA
:101520001CD1022000E0002023689B0706D504B0F0
:10153000BDE81040FFF742BE0120F5E7E368094926
:101540000293636951F82010039302AA01AB20466D
:10155000FFF7EAFE029BE360039B636104B010BDEA
:1015600000D001402C1A002000F002B800F018B89A
:10157000D0F8003123F00103C0F800310123C0F896
:101580000037D0F80031DA03FBD5D0F8003143F052
:101590000103C0F80031D0F80031DB03FBD5704700
:1015A000D0F8003123F00103C0F80031704700008B
:1015B0000146014800F01CB80060004001460148A7
:1015C00000F029B800600040014800F038B800BFC2
:1015D000006000400146014800F035B8006000405E
:1015E000024A13691B07FCD4704700BF006000402B
:1015F00010B511F026040BD0FFF7F2FF0369234367
:10160000036111F0060002D0FFF7EAFF002010BDD1
:101610006FF00200FBE710B511F026040CD0FFF7C5
:10162000DFFF036923EA0403036111F0060002D01F
:10163000FFF7D6FF002010BD6FF00200FBE7006946
:1016400000F0D0007047036901F0D00123EA0103E4
:1016500003610020704700002DE9F74F1D460C9BE9
:101660000193634BDDF834B09DF838809DF8396004
:101670009DF83A70984204468946924600F0AC8044
:1016800003F58053984200F0A78003F580539842F9
:1016900000F0A28003F5EC23984204D003F58063A8
:1016A000984240F09980042D00F39D80514B1B68B7
:1016B0005B45C0F09880504B9C4270D12B2000F0CD
:1016C0005DFD302000F068FC4C48FEF7F3FFB8F1F8
:1016D000000F02D04A48FEF7EDFF16B14948FEF769
:1016E000E9FFCFB148483DE0414B9C4221D10D205C
:1016F00000F044FD062000F04FFC4448FEF7DAFFFE
:10170000B8F1000F02D04248FEF7D4FF16B14148AD
:10171000FEF7D0FF002F66D1019B0C9352462B465B
:1017200049462046CDF834B003B0BDE8F04F00F094
:1017300025B9394B9C4218D10E2000F01FFD07201F
:1017400000F02AFC3548FEF7B5FFB8F1000F02D0D3
:101750003348FEF7AFFF16B13248FEF7ABFF002F5C
:10176000DAD03148FEF7A6FFD6E7304B9C42A2D133
:101770000F2000F003FD082000F00EFC2C48FEF7BF
:1017800099FFB8F1000F02D02A48FEF793FF16B177
:101790002948FEF78FFF002FBED02848E2E7284BEC
:1017A0009C4216D12D2000F0E9FC312000F0F4FB22
:1017B0002448FEF77FFFB8F1000F02D02248FEF761
:1017C00079FF16B12148FEF775FF002FA4D02048FD
:1017D000C8E76FF0010008E0042D04DC054B1B682E
:1017E000BBEB530F80D96FF0020003B0BDE8F08F60
:1017F00000600440D013002000E00B40541402109D
:10180000601402106C14021078140210D01302102D
:10181000DC130210E813021000700440F4130210ED
:10182000001402100C14021018140210008004405E
:1018300024140210301402103C1402104814021038
:1018400000E40B4084140210901402109C14021047
:10185000A814021010B5044600F018F90F4B9C4272
:1018600004D1062000F076FB002010BD0C4B9C42FA
:1018700001D10720F6E70B4B9C4201D10820F1E78C
:10188000094B9C4201D13020ECE7084B9C4201D12E
:101890003120E7E76FF00100E7E700BF0060044098
:1018A000007004400080044000E00B4000E40B4066
:1018B000234B984212D003F5805398420ED003F583
:1018C000805398420AD003F5EC2398420BD003F5DD
:1018D0008063984207D06FF002007047194B186878
:1018E0004008401070474FF080439B68C3F3422389
:1018F000072BF0D801A252F823F000BF27190010DF
:10190000D71800101D1900102B1900103B190010DA
:101910002119001031190010371900100A48E0E7AA
:101920004FF4E100DDE70948DBE74FF4FA50D8E770
:101930004FF40040D5E70648D3E70648D1E700BF9B
:1019400000600440D01300200048E80100879303A2
:101950000080BB00000E270700F0FAB800F030B995
:1019600000F07EB900F085B900F09DB900F0BBB978
:1019700000F0E8B900F0EAB900F016BA2DE9F04736
:101980001F463F4BDDF820A098420446164614D06F
:1019900003F5805398424AD003F58053984249D0CA
:1019A00003F5EC23984248D003F58063984247D072
:1019B0006FF002063046BDE8F0874FF00008DFF810
:1019C000C890282202FB08F209EB0205002349F81F
:1019D00002300122C5E90323C5E90733AB606FF08C
:1019E0000103C5E90533274B85F827206260236191
:1019F000636841B343F00203099963602046FFF72F
:101A0000ABFFBAF1FF0FD3D8E36843EA0A43E360C0
:101A1000236A2362282303FB089898F82730DBB158
:101A2000012F13D1636843F48033636014E04FF0F7
:101A30000108C4E74FF00208C1E74FF00308BEE712
:101A40004FF00408BBE723F00203D5E7022F0BD0C9
:101A5000032F0DD0042F0FD0002EABD0E36843F43A
:101A60000053E3600026A5E7636843F44033DCE7F6
:101A7000636843F4E023D8E7636843F47023D4E752
:101A80000060044001010100A41A00202D4B98427F
:101A90002DE9F04104464DD003F5805398424BD0D8
:101AA00003F58053984249D003F5EC23984247D080
:101AB000254DA8420CBF04254FF0FF35002363627B
:101AC000236A23626368214E23F0010328276360A1
:101AD0006F43E36956F8078023F04013E361F01980
:101AE000B8F1000F08D000F02FFAF3595B6A1BB170
:101AF0006FF00E014046984700236360A360E360E7
:101B00002361282404FB05646069984204DBFEF726
:101B100043FC6FF001036361282303FB0565A8699B
:101B2000002804DBFEF738FC6FF00103AB610020F6
:101B3000BDE8F0810025C1E70125BFE70225BDE72B
:101B40000325BBE70060044000E40B40A41A00201A
:101B500038B51A4B1B68B1EB530F04460D462AD813
:101B6000FFF7A6FEB0FBF5F04308C2074CBF5A1CB6
:101B70001A4600210F2A08DD082902D10F231A4630
:101B800005E052105B100131F4E70829F6D06069D6
:101B9000DBB220F0FF0003436361636923F47F43FA
:101BA00043EA02226261636923F4702343EA01433A
:101BB0006361002038BD6FF00200FBE7D013002006
:101BC000012910B542D0102940DC234B984235D072
:101BD00003F58053984233D003F58053984231D0B7
:101BE00003F5EC2398422FD003F5806398420CBF95
:101BF00004234FF0FF33026BD2072AD4174A28245C
:101C000004FB0323DA68012A23D1426822F001028F
:101C1000426010299960C3681FBF090201F4706116
:101C200023F4706319430ABF23F47063C160C36077
:101C3000436843F001034360002010BD0023DAE74E
:101C40000123D8E70223D6E70323D4E76FF002008D
:101C5000F3E76FF00600F0E700600440A41A0020EC
:101C6000C36813F4706F1ABFC068C0F3032010205C
:101C70007047C36823F43043C360032907D8DFE803
:101C800001F002080A0EC36843F40043C360002059
:101C90007047C368FAE7C36843F48053F6E7C36844
:101CA00043F40053F2E703290BD8DFE801F0020CFC
:101CB0001018C36823F00103C360C36823F0020354
:101CC000C36000207047C36843F00103F4E7C368B2
:101CD00023F00103C360C36843F00203F0E7C36865
:101CE00043F00103F6E7F8B5074614460E4639B34C
:101CF000C2B1FFF73DFE05463846FFF731FEA5426B
:101D000028BF2546082888BF25F0010500244DB1CD
:101D1000082810D9032D07D93A683251043D0434FC
:101D2000012DF4D12046F8BD012DFBD03A88325365
:101D3000023D0234F4E73A783255013D0134E6E7DA
:101D40000C46EFE7C069C0F305607047F8B5074679
:101D500014460E4631B372B1FFF70EFE0546384603
:101D6000FFF7FEFDA54228BF2546082888BF25F0BD
:101D7000010500240DB92046F8BD08280DD9032D12
:101D800004D932593A60043D0434F3E7012DF4D00C
:101D9000325B3A80023D0234ECE7325D3A70013D3D
:101DA0000134E7E70C46E6E7C069C0F30520C0F15F
:101DB0002000704738B54FF0E02318499C691A6934
:101DC00022F480320A601A69D2075BBF6FF07F4449
:101DD00005225D695C615CBF9C611A61104B114A10
:101DE00019684FF00003A0FB010154BF4FF080754C
:101DF000013512F0CFFC0C4BB0FBF5F205FB1200E5
:101E000084421A6098BF1A6808499CBF641901325D
:101E1000A4EB000098BF1A60086038BD701B00205A
:101E2000D013002040420F0004000020741B00204B
:101E300010B50C4A0C4C11602268002A0EDC08B95F
:101E4000002010BDFFF7B6FF2368002BC1BF4FF085
:101E5000E022136943F002031361F1E76FF005001C
:101E6000EFE700BF6C1B00200400002010B5094CF8
:101E7000236823B16FF00F00984700232360064BBF
:101E80001A684FF0E0231A61044B4FF0FF321A60DA
:101E900010BD00BF6C1B0020701B00200400002040
:101EA0004FF0E02310B51B69DB0306D5094B1A6818
:101EB000002A03DD1A68013A1A6010BD064CFFF7CC
:101EC000D5FF2368002BF8D000209847002323601B
:101ED000F3E700BF040000206C1B002010B5114C7C
:101EE0002268002A1ADC80B1FFF764FF4FF0E0227D
:101EF0002368002B0ADC0C4B1B684FF0E0218A6939
:101F00009A42FCD8FFF7B2FF002010BD1369DB0333
:101F100042BF236803F1FF332360E9E76FF0050058
:101F2000F3E700BF04000020741B002050E8003FCE
:101F30003BB940E80013002BF8D1BFF35F8F184680
:101F400070476FF005007047BFF35F8F0023036099
:101F5000704700003F2809D90E4A4038D168C0B206
:101F6000012303FA00F00843D06070471F284FF0A8
:101F7000804208D92038916CC0B2012303FA00F0E6
:101F8000084390647047516A012303FA00F0084344
:101F900050627047000008403F280AD91049403875
:101FA000CB68C0B2012202FA00F023EA0000C86048
:101FB00070471F284FF0804309D920389A6CC0B26F
:101FC000012101FA00F022EA0000986470475A6A81
:101FD000012101FA00F022EA00005862704700BFB8
:101FE0000000084010B5002104464FF47A70FFF756
:101FF0001FFF4FF0804293682342FCD0002010BDA9
:1020000007283DD8DFE800F0173C2623040E3320D4
:102010004FF080424FF00060936843F400239360D8
:10202000FFF7E0BF4FF080424FF08050936843F4D9
:1020300080139360F4E74FF080424FF08060936824
:1020400043F480239360EBE70F48FEF733BB4FF078
:102050000050E5E74FF080434FF080705A6F42F038
:1020600011025A679A6842F480329A60D8E74FF0BA
:1020700080424FF00070936843F400339360CFE7E1
:102080006FF00200704700BFA013021038B54FF088
:102090008044A56807286DD8DFE800F0136C475529
:1020A000041F5B2DA368180302D40420FFF7A8FFC8
:1020B0004FF08042936823F4606343F400639360BD
:1020C00020E0A06810F4802001D1FFF799FF4FF0C5
:1020D0008042936823F46063F1E7A368D90202D4D5
:1020E0000520FFF78DFF4FF08042936823F4606373
:1020F00043F42063E3E70720FFF782FFA36843F47C
:102100006063A3604FF40050FFF76CFF044670B3A8
:102110004FF0804205F46065936823F460632B43BD
:1021200093606FF00904204638BDA368DA0302D437
:102130000220FFF765FF4FF08042936823F460634D
:1021400043F48063BBE7A36823F4606343F4C06394
:10215000D7E7A3689B0302D40620FFF751FF4FF097
:102160008042936823F4606343F44063A7E7FEF77B
:1021700089F8D8E76FF00204D5E700003F284FF058
:10218000010309D94038C0B203FA00F00D4B986042
:102190009A681042FCD170471F280AD92038C0B273
:1021A00003FA00F04FF0804358645A6C1042FCD19F
:1021B000704703FA00F04FF0804358605A681042AD
:1021C000FCD17047000008402DE9F04104469046DC
:1021D0000E46002900F0D1806B4B98421FD003F5CA
:1021E000805398421DD003F5805398421BD003F5CD
:1021F0008053984219D003F5DB2303F5806398429E
:1022000015D0624DA8420CBF0525FF25F7787B1E2F
:10221000052B5ED8DFE803F0560D2D1F354A00254B
:10222000F4E70125F2E70225F0E70325EEE70425B0
:10223000ECE7032D00F2A5800020FFF7E1FE5449F2
:10224000204600F0FFF80127052D5AD8DFE805F0F9
:1022500049606F7E248D032D4FF005008CBF002751
:102260000227FFF7CDFE4FF4E101204600F0EAF827
:10227000EAE7032D00F285800220FFF7C1FE454901
:10228000F3E7042D7DD10620FFF7BAFE4FF400419D
:10229000204600F0D7F801273F48FEF70BFA42200E
:1022A000FFF76CFF4220FFF777FE2AE0032D68D985
:1022B0000320FFF7A5FE4FF4FA51204600F0C2F8C4
:1022C0000227C1E7022D5CD80720FFF799FE0327FC
:1022D000BAE7324B19682046490800F0B3F80027E6
:1022E000B2E70520FFF74AFF0F20FFF755FEB8F1D0
:1022F000000F06D0B378022B14BF29482948FEF7F7
:10230000D9F93A4631462046BDE8F04100F00CB913
:102310000620FFF733FF1020FFF73EFEB8F1000F55
:10232000EFD0B378022B14BF1F482048E7E70720FF
:10233000FFF724FF1120FFF72FFEB8F1000FE0D0C8
:10234000B378022B14BF1A481A48D8E70820FFF7C1
:1023500015FF1220FFF720FEB8F1000FD1D0B3789F
:10236000022B14BF14481548C9E71548FEF7A2F917
:102370004320FFF703FF432095E74FF0FF30BDE810
:10238000F0816FF01000FAE70000014000100840F3
:10239000008793030048E80114150210D0130020B1
:1023A000B4140210C0140210CC140210D81402107D
:1023B000E4140210F0140210FC14021008150210AC
:1023C0002015021010B5044600F0E4F8114B9C42B1
:1023D00007D10F20FFF7BEFD0F4B9C4219D14320C0
:1023E00007E00E4B9C4208D003F580539C4206D177
:1023F0001120BDE81040FFF7ADBD1020EAE7084B03
:102400009C4201D11220F4E7064B9C42E4D14220C9
:10241000EFE710BD0000014000100840001001402F
:1024200000300140000C084000F0E8B800F0EEB8C1
:1024300000F0F1B800F0F2B800F0F5B800F0F8B82C
:1024400000F0FBB8164B984220D003F58053984219
:102450001ED003F5805398421CD003F58053984258
:102460001AD003F5DB2303F58063984216D003F5F9
:10247000806398420CBF05204FF0FF30094B0122CA
:1024800003F8302003EBC000416070470020F5E7FF
:102490000120F3E70220F1E70320EFE70420EDE756
:1024A00000000140781B002030B500293BD08C781B
:1024B0000569022C0CBF102300234FF480429A4080
:1024C0002A43026108229A4085691542FCD04A7865
:1024D00005699A402A4302618A68056912029A4096
:1024E0002A43026101229A4002604FF480729A40AE
:1024F000C5681542FCD04A689A40426082694FF430
:10250000005101FA03F322EA0303022C83610AD18A
:10251000836943F080738361036943F0004303617F
:1025200083695B03FCD530BD70B500292FD08B7853
:10253000022B1DD013F003041CD00024856925F064
:1025400000458561C56845F00115C5600D780669CF
:10255000A540354305618569A2402A4382614A78D6
:10256000072A0DD8DFE802F00A0A0E0E0E0A0E0E38
:102570001024E3E7856945F00045E2E7FFF794FFA3
:10258000002006E0022BF9D16FF0100001E04FF0BF
:10259000FF3070BD174B984222D003F5805398420C
:1025A00020D003F5805398421ED003F58053984203
:1025B0001CD003F5DB2303F58063984218D003F5A4
:1025C000806398420CBF05234FF0FF330022026165
:1025D000826912F00802FBD1074901F833207047E5
:1025E0000023F3E70123F1E70223EFE70323EDE7FD
:1025F0000423EBE700000140781B0020036943F44B
:102600000043036183695B07FCD57047036923F4CA
:10261000004303617047036800687047C36843F074
:102620000113C3607047836943F0012383617047DE
:10263000836923F00123836170470160C368DB0570
:10264000FCD5704710B50446204600F0B9F90028C3
:10265000FAD02046BDE8104000F0A6B900F032BD27
:1026600000F098BD08B5134B984207D10B20FFF737
:1026700085FD0920FFF76EFC002008BD0E4B984237
:1026800004D10C20FFF77AFD0A20F3E70B4B9842A8
:1026900004D11C20FFF772FD2120EBE7084B984284
:1026A00004D14420FFF76AFD4420E3E76FF0020005
:1026B000E3E700BF00200440003004400040044035
:1026C0000014084070B504460E461546FFF7CAFFD1
:1026D000B0BB032D18D0042D03D0022D04D105204A
:1026E00000E00620FFF78CFC164B9C420ED11648EA
:1026F000FDF7E0FF0920FFF74FFC2A463146204650
:10270000BDE8704000F078B90220EBE70F4B9C4227
:1027100004D10F48FDF7CEFF0A20ECE70D4B9C4299
:1027200004D10D48FDF7C6FF2120E4E70B4B9C4286
:1027300004D10B48FDF7BEFF4420DCE76FF0020038
:1027400070BD00BF002004402C1502100030044072
:102750005015021000400440741502100014084087
:10276000981502101E4B98421BD003F580539842D7
:1027700017D003F58053984213D003F57533984270
:102780002BD1186800F44030B0F5803F05D01A68AE
:1027900012F4403F21D14FF4E1001B69B0FBF3F08C
:1027A0007047036803F44033B3F5803F13D00368E8
:1027B00013F4403F06D10B4B1B685B080069B3FB69
:1027C000F0F07047036803F44033B3F5003F04D1E1
:1027D0004FF4E103F2E7044BF0E76FF002007047BB
:1027E00000200440D01300200048E80138B53F4BDA
:1027F000984204464ED003F5805398424AD003F5E0
:102800008053984246D03A48844206D10523022A92
:10281000636105D0042A1ED012B16FF0020019E0E6
:102820004FF4E103B3FBF1F301FB03F2C2F5E10264
:1028300013B1B2EB510F00D9013303612C48FFF7FC
:1028400091FF002806DD236843F4004323602368DA
:102850001B03FCD538BD236843F480332360236811
:10286000B1F5165F43F4001323600DD04FF48033AD
:10287000B1F5166FB3FBF1F301FB03F2C2F5803241
:1028800005D900254561D3E707230022F9E7012593
:102890006561CDE70523022A63611AD0032A12D0AD
:1028A000002ABAD123682360124B1B685B08B3FB74
:1028B000F1F201FB123312B1B3EB510F00D9013227
:1028C00022612046BBE7236843F4803323600A4B30
:1028D000EDE7236843F4003323604FF4E102B2FBD9
:1028E000F1F201FB02F3C3F5E103E4E70020044049
:1028F00000140840D01300200048E80100F0B0B8F0
:1029000000F0CEB800F0EEB8012970B51A4B0446BD
:102910000D4616461AD1984209D11848FDF7CAFE4D
:10292000324629462046BDE8704000F025B9144BD8
:10293000984201D11348F1E7134B984201D1134853
:10294000ECE7134B984214D11248E7E7984201D1C3
:102950001148E3E70A4B984201D11048DEE70A4BE1
:10296000984201D10E48D9E7094B984201D10D4850
:10297000D4E76FF0020070BD00200440381502104B
:10298000003004405C150210004004408015021025
:1029900000140840A4150210441502106815021016
:1029A0008C150210B015021000F008B900F022B921
:1029B000FFF748BE00F03CB900F068B900F094B9E8
:1029C00000F09FB900F0A1B900F0ACB900F0B0B9C7
:1029D00000F0CCB900F0E8B900F0EAB900F0EAB9CB
:1029E00000F000BA00F018BA00F030BA00F030BAC7
:1029F00000F0ECBB00F00ABC184B984270B50446DE
:102A00000D4616460BD003F58053984207D003F5C8
:102A10008053984203D003F5753398421BD10121AE
:102A20002046FFF7D5FFA8B908212046FFF766FF2B
:102A300080B901462046FFF765FF58B90146204698
:102A4000FFF75EFF30B9324629462046FFF7CEFE3B
:102A500000EAE07070BD6FF00200FBE70020044068
:102A60000E4B98420BD003F58053984207D003F5E4
:102A70008053984203D003F5753398420AD1053943
:102A8000032907D8036823F4406343EA81210160E6
:102A9000002070476FF00200704700BF0020044024
:102AA0000F4B98420BD003F58053984207D003F5A3
:102AB0008053984203D003F57533984202D121B177
:102AC000012908D06FF002007047036823F4805397
:102AD000036000207047036843F48053F8E700BFA9
:102AE00000200440234B98420BD003F580539842BA
:102AF00007D003F58053984203D003F5753398420D
:102B000034D1042932D8DFE801F003091521290066
:102B1000036823F01003036000207047036843F04C
:102B200010030360036823F020030360036823F0AD
:102B30004003F0E7036843F010030360036823F0E9
:102B400020030360036843F04003E4E7036843F0B5
:102B500010030360036843F02003E6E7036843F0D3
:102B600010030360036843F02003EAE76FF00200FC
:102B7000704700BF002004400F4B98420BD003F574
:102B80008053984207D003F58053984203D003F551
:102B90007533984202D121B1012908D06FF00200AB
:102BA0007047036823F400530360002070470368F4
:102BB00043F40053F8E700BF002004400C4B984258
:102BC0000BD003F58053984207D003F58053984209
:102BD00003D003F57533984204D14368DB0604D46F
:102BE000006A70476FF0020070476FF00C0070478A
:102BF000002004400D4B98420BD003F580539842BF
:102C000007D003F58053984203D003F575339842FB
:102C100006D1436813F0800305D10162184670475E
:102C20006FF0020070476FF00B0070470020044007
:102C3000F8B5154B984204460F4615460BD003F5E0
:102C40008053984207D003F58053984203D003F590
:102C50007533984212D1A7B19DB100262B68B342BB
:102C600002DC2E60002005E02046FFF7A1FE0028D0
:102C700001DA2E60F8BDB8550136EFE76FF00200BB
:102C8000F8E74FF0FF30F5E700200440F8B5154BAA
:102C9000984204460F4615460BD003F580539842E0
:102CA00007D003F58053984203D003F5753398425B
:102CB00011D19FB195B100262B68B34202DC2E6082
:102CC000002005E0B95D2046FFF770FE08B12E60D8
:102CD000F8BD0136F0E76FF00200F9E74FF0FF3082
:102CE000F6E700BF0020044010B5034600209042E4
:102CF00000D110BD5C68E406FBD41C6A0C540130A2
:102D0000F5E74068C0F30320704710B50346002084
:102D1000904200D110BD5C682406FBD40C5C1C62A0
:102D20000130F5E74068C0F30330C0F10800704798
:102D30000D4B98420BD003F58053984207D003F512
:102D40008053984203D003F57533984209D1036844
:102D500043F480730360036813F48073FBD1184657
:102D600070476FF002007047002004400D4B9842FE
:102D70000BD003F58053984207D003F58053984257
:102D800003D003F57533984209D14B1E072B06D8A3
:102D9000036823F00F0319430160002070476FF0B0
:102DA0000200704700200440006800F00F007047E8
:102DB000C06870470A4B98420BD003F58053984285
:102DC00007D003F58053984203D003F5753398423A
:102DD00002D1C160002070476FF00200704700BF51
:102DE000002004400B4B98420BD003F580539842CF
:102DF00007D003F58053984203D003F5753398420A
:102E000004D1836819438160002070476FF002008D
:102E1000704700BF002004400B4B98420BD003F5D5
:102E20008053984207D003F58053984203D003F5AE
:102E30007533984205D1836823EA0101816000203F
:102E400070476FF0020070470020044040687047F0
:102E5000F8B56B4B0446006898427CD003F580536C
:102E600098427AD003F58053984278D003F57533B1
:102E7000984240F0C1800325624F634E57F82530D9
:102E800056F82520002B6CD1002A6BD14FF0FF3172
:102E9000FFF7A8FD20684FF0FF31FFF79FFDE268C4
:102EA0000023C4E90533002A45D06268002A4FD0C8
:102EB0002068534A90420DD0544B98425CD003F5A1
:102EC000805398425AD003F5753398420CBF0323C0
:102ED0004FF0FF3347F823404021FFF781FD206882
:102EE000FFF772FD6169E36867685A1A824228BF7A
:102EF000024639442068FFF765FD63691844606144
:102F00002068FFF761FD032815D96269E3689A42DA
:102F100011D1002D34D0012D34D0022D0CBF22232D
:102F200058235A09012103F01F0301FA03F3403229
:102F3000374941F822302069002856D0A36820681C
:102F400013BB4FF0FF31FFF74DFD2068FFF73EFD4B
:102F50006FF0020049E000258EE701258CE702258D
:102F60008AE71AB1226922B9002B98D0E368002BB6
:102F700095D06FF0050038E00123ABE70223A9E705
:102F80000E23CEE70F23CCE71D4B98422ED003F53E
:102F9000805398422CD003F5805398422AD003F5F1
:102FA000753398420CBF03234FF0FF330B2146F8D3
:102FB0002340FFF715FD10212068FFF711FD206861
:102FC000FFF7FEFCA1692369A5685A1A824228BF4F
:102FD000024629442068FFF7F1FCA3691844A06168
:102FE00010212068FFF7FAFC0020F8BD0023DDE780
:102FF0000123DBE70223D9E76FF00300F5E700BF09
:1030000000200440B81B0020A81B00200030044012
:1030100000E100E038B5134B984218D003F5805317
:10302000984216D003F58053984214D003F57533B7
:10303000984212D103220C4D55F82200002428B1E9
:10304000C3696BB145F822409847204638BD00223D
:10305000F1E70122EFE70222EDE76FF00200F5E76A
:103060001846F3E700200440B81B002038B5134B86
:10307000984218D003F58053984216D003F5805338
:10308000984214D003F57533984212D103220C4DA7
:1030900055F82200002428B1C3696BB145F82240DD
:1030A0009847204638BD0022F1E70122EFE70222CF
:1030B000EDE76FF00200F5E71846F3E70020044063
:1030C000A81B0020164B984237B504461ED003F5C6
:1030D000805398421CD003F5805398421AD003F5D0
:1030E0007533984218D1032520460191FFF792FFCE
:1030F0000C4B53F825200C4B53F825309A4203D043
:1031000001992046FFF7B2FF002007E00025EBE71A
:103110000125E9E70225E7E76FF0020003B030BDC3
:1031200000200440A81B0020B81B002008B50B4B52
:1031300098420BD003F58053984207D003F5805393
:10314000984203D003F57533984204D14021FFF72C
:1031500049FC002008BD6FF00200FBE7002004409E
:1031600008B50B4B98420BD003F58053984207D01B
:1031700003F58053984203D003F57533984204D188
:103180000B21FFF72FFC002008BD6FF00200FBE7CA
:103190000020044008B50C4B98420BD003F5805337
:1031A000984207D003F58053984203D003F5753356
:1031B000984205D14FF0FF31FFF714FC002008BD05
:1031C0006FF00200FBE700BF002004400E4B984266
:1031D00010B504460BD003F58053984207D003F591
:1031E0008053984203D003F57533984209D12046A5
:1031F000FFF736FA6FF00F012046FFF72FFA002095
:1032000010BD6FF00200FBE7002004402DE9F843F9
:103210005D4B9842054620D003F5805398421ED05E
:1032200003F5805398421CD003F57533984210D1B2
:103230000326564F2846FFF7CFFB57F82640814616
:103240008CB9534B53F826306BB9E9682846FFF721
:10325000C5FB6FF00300BDE8F8830026E9E701260F
:10326000E7E70226E5E7AB6803EA090313F00B0F73
:1032700008D02846FFF7F4F96FF008012846FFF759
:10328000EDF9E6E7D4B1E368C3B12068FFF79CFB32
:10329000E1686369CB1A8342024638BF626963689A
:1032A000206838BF8A1A61691944FFF78BFB63698C
:1032B0001844606140212068FFF790FBDFF8D08060
:1032C00058F8264064B319F0100F29D023693BB396
:1032D0002068FFF775FB2269A369D31A834238BFC0
:1032E000A069A368A16938BF101A02461944206872
:1032F000FFF764FBA3691844A061A26923692068F1
:10330000A3EB0209FFF766FB814505D2A36921699A
:103310002068C91AFFF75CFB20681021FFF75EFBED
:1033200058F8263057F82600834211D174B1A269AB
:1033300023699A420AD16269E3689A4206D1284613
:10334000FFF78EF900212846FFF788F9002082E771
:103350005BB19A691B699A4207D12846FFF700FFC3
:1033600000212846FFF782FEF0E700283FF473AF04
:103370004269C3689A42E9D12846FFF7D7FE002187
:103380002846FFF747FEE1E700200440B81B002075
:10339000A81B00201FB5034608461B685B7B002B5B
:1033A000064B18BF0023039303AB00930123114680
:1033B0001A4604F0B5FC05B05DF804FB000080FF80
:1033C0001FB50346084611461A681369127D12B1EB
:1033D0004FF47A72534302931723039302AB009383
:1033E0000B22012304F09CFC05B05DF804FB7FB5C3
:1033F00003AE0C46154619780068324600F040F9D5
:1034000030B9012300961A462946204604F088FC6C
:1034100004B070BD70B506460D46012008210FF0BE
:1034200084F8044668B1294600F080F9054620B1C9
:1034300020460FF07CF8284670BD034B6360346073
:10344000F9E76FF00B05F6E7C40000207FB50646EC
:103450000020B36810605D5CCB0003F038030146C8
:1034600043F0400314460DF109006A1C01928DF8E7
:10347000083011F08BFF019A306802A900F008FCB7
:1034800080B90123AB4201D904B070BD03F1100231
:103490006A44216812F8082C013342EA01222260B2
:1034A000DBB2EFE74FF0FF30EEE737B583685C5CE7
:1034B000C90001F038018DF804100123A3420AD994
:1034C000621C01A9006800F0E3FB003818BF01206E
:1034D000404203B030BD03F108010DEB0105E11AD4
:1034E000C90022FA01F1013305F8041CDBB2E5E75B
:1034F00007B504224FF0FF330DEB02010068019382
:1035000000F0C6FB03B05DF804FB37B500230C46A2
:1035100001AA012105460193FFF798FF80B9019A9E
:10352000640322F46042A4B222430121284601929E
:10353000FFF7BBFF003818BF0120404203B030BD89
:103540004FF0FF30FAE737B500230C4601AA0221FD
:1035500005460193FFF77AFF60B9019B04F007026B
:1035600023F007031A43022128460192FFF79DFF2B
:1035700003B030BD4FF0FF30FAE758B503461646AA
:103580001A7D006912B14FF47A7250439A685B7BDE
:10359000D2780124D2004BB104FA02F20023A1FB3D
:1035A000000111F0F7F83060002058BD013A944056
:1035B0008C4204F1FF3201D8091BF0E7611AA1FB2C
:1035C000000111F0E7F84042EDE737B500230C4663
:1035D00001AA022105460193FFF738FF68B9019A55
:1035E000240222F4E06204F4E0642243022128462B
:1035F0000192FFF75AFF03B030BD4FF0FF30FAE7FA
:1036000013B500230C4601AA02210193FFF71EFF08
:1036100028B9019BC3F30223237002B010BD4FF001
:10362000FF30FAE737B500230C4601AA0221054610
:103630000193FFF70BFF68B9019A240322F480522B
:1036400004F480542243022128460192FFF72DFF03
:1036500003B030BD4FF0FF30FAE737B505464FF6FF
:10366000FF7401AA00212846FFF7F0FE20B9019B54
:103670001B0603D5013CF4D14FF0FF3003B030BD41
:1036800038B504461546FFF75EFF10B14FF0FF3026
:1036900038BD01212046FFF738FF0028F6D120462B
:1036A000FFF7DBFF0028F1D12A4603212046FFF770
:1036B000CDFE003818BF01204042E9E72DE9B343B1
:1036C000037DD0F81090054617461BB14FF47A736E
:1036D00003FB09F901AA2846FFF7D2FF804680B90B
:1036E000AB680199DA786B7BD20001246BB104FAE4
:1036F00002F24346A1FB090111F04CF80190019B35
:103700003B60404602B0BDE8B083013A94408C4231
:1037100004F1FF3201D8091BEBE7641A0346A4FB4E
:10372000090111F037F84042E8E7000073B50023C3
:1037300006460D460120182101930EF0F6FE0446C0
:1037400018B94FF0FF3002B070BD2B7E0371AA7E16
:1037500042736A7E0273EA69026195F8202002755D
:1037600003F0FD02092A0CD0082B07D1224BA360DD
:103770002946204600F02CFA28B120460EF0D7FE4C
:10378000DFE71E4BF3E72046FFF7B2FE0028D8D153
:1037900001AA04212046FFF759FE0028D1D1237940
:1037A000092B13D00B2B08D0082B04D1019B03F05D
:1037B0000F03082B11D0124805E0019B03F00F0303
:1037C0000B2B0AD00F4811F03FFEBAE7019B03F024
:1037D0000F03092B01D00C48F5E7217B2046FFF7AA
:1037E000F4FE0028ADD1617B2046FFF71BFF0028C7
:1037F000A7D13460A7E700BF121602101A160210F4
:10380000E4150210CD150210FB15021038B505465F
:10381000084614460FF052FAC1B22846FFF7D5FE0B
:10382000002808BF204638BD37B50C460DF107010A
:103830001546FFF7E5FE30B99DF80730034A2946E3
:10384000204611F073FF03B030BD00BF55180210C1
:1038500037B50C461546197801AAFFF711FF28B9AC
:10386000019B034A2946204611F060FF03B030BD9A
:103870005518021038B505460C4649B1CB683BB126
:103880001B6843B1984710B92B68E268DA6038BD0D
:103890006FF01500FBE76FF05700F8E738B5054605
:1038A0000C4611B14B68013302D10020286038BDAD
:1038B000CB6843B15B684BB198470028F7D12B68C0
:1038C000E268DA60F3E76FF01500F0E76FF0570099
:1038D000EDE720B1C3681BB19B6823B1184770475F
:1038E0006FF0150070476FF05700704720B1C36844
:1038F0001BB1DB6823B1184770476FF015007047A4
:103900006FF05700704720B1C3681BB11B6923B12A
:10391000184770476FF0150070476FF057007047F9
:1039200020B1C3681BB19B6923B1184770476FF082
:10393000150070476FF057007047000038B5182128
:10394000054601200EF0F1FD044678B10FF08DF927
:10395000002020716A682B68E260EA6822612A69A7
:103960006261044AA36042F8234038BD6FF00B0047
:10397000FBE700BFC81B002070B505460C4629B305
:10398000CB681BB31B68F3B10B68042B1ED8114E18
:1039900056F8233033B1E36821461B682846984720
:1039A00030B170BD0846FFF7C9FF0028F3D0F8E733
:1039B0002368296856F823300B601A7901321A718E
:1039C000E3680B61EDE76FF05700EAE76FF0150071
:1039D000E7E700BFC81B002010B5094B53F8204093
:1039E00023793BB920680FF043F92046BDE8104029
:1039F0000EF09DBD013BDBB22371002BF2D010BD58
:103A0000C81B0020036810B504469868FFF7E4FF60
:103A100023692BB1DB6833B12046BDE8104018475D
:103A20006FF0150010BD6FF05700FBE730B585B0A3
:103A3000CDE9022101930446B0B10069A0B140680C
:103A4000A8B1206800680FF011F920690399456852
:103A5000DDE901322046A8472368054618680FF0C3
:103A600006F9284605B030BD6FF01505F9E76FF08F
:103A70005705F6E730B585B0CDE90221019304463C
:103A8000B0B10069A0B18068A8B1206800680FF0EB
:103A9000EDF8206903998568DDE901322046A847E1
:103AA0002368054618680FF0E2F8284605B030BDD7
:103AB0006FF01505F9E76FF05705F6E738B50546DD
:103AC0000C4649B14B683BB11B6843B1984710B9EC
:103AD0002B6862685A6038BD6FF01500FBE76FF025
:103AE0005700F8E720B1436813B15B6A1BB1184770
:103AF0006FF0150070476FF05700704720B14368B2
:103B000013B15B681BB118476FF0150070476FF079
:103B10005700704720B1436813B19B681BB1184729
:103B20006FF0150070476FF05700704720B1436881
:103B300013B15B691BB118476FF0150070476FF048
:103B40005700704720B1436813B19B691BB11847F8
:103B50006FF0150070476FF05700704720B1436851
:103B600013B1DB691BB118476FF0150070476FF098
:103B70005700704720B1436813B11B6A1BB1184747
:103B80006FF0150070476FF05700704738B51C2173
:103B9000054601200EF0C9FC044698B10FF065F807
:103BA000002020712B686A68A360E2606A7A227440
:103BB000AA7A6274EA6862612A69A261034A42F8D9
:103BC000234038BD6FF00B00FBE700BFDC1B00207B
:103BD00070B505460C4639B3CB682BB31B6803B3ED
:103BE0000B68082B20D8124E56F8233033B1E36807
:103BF00021461B682846984730B170BD0846FFF73C
:103C0000C5FF0028F3D0F8E722682B6856F8222079
:103C10001A60117901311171E2681A6162699A6161
:103C2000EBE76FF05700E8E76FF01500E5E700BF3E
:103C3000DC1B002070B50B4E56F82040237905465A
:103C40004BB920680FF014F820460EF070FC0023EA
:103C500046F8253070BD013BDBB22371002BF9D152
:103C6000EFE700BFDC1B0020036810B5044698682E
:103C7000FFF7E0FF23692BB1DB6833B12046BDE8D5
:103C8000104018476FF0150010BD6FF05700FBE7AC
:103C900037B50446CDE90021A8B103699BB15B6843
:103CA000A3B1036818680EF0E1FF2369DDE9002184
:103CB0005B68204698472368054618680EF0D7FFD2
:103CC000284603B030BD6FF01505F9E76FF05705D2
:103CD000F6E72DE9F0410D469046074638B30369F3
:103CE0002BB39E681EB13346BDE8F0411847036808
:103CF00018680EF0BBFF3446464506D13B6818688D
:103D00000EF0B5FF2046BDE8F081D5E900319942BB
:103D10000AD149B12A893846FFF7BAFF041E05F1D6
:103D20001C05EBDB0136E7E76FF01504E6E76FF003
:103D30001504E7E7F8B506460D46B1B1CB68A3B167
:103D40001B68ABB19847044668B933680A4F2888A6
:103D5000EA681A6107EB80000EF087FF2A88336853
:103D600057F822201A602046F8BD6FF01504FAE7D4
:103D70006FF05704F7E700BF001C002010B50446A1
:103D800088B103697BB11B6A83B100680EF070FFD4
:103D9000A288084B002143F82210236920461B6AA1
:103DA000BDE8104018476FF0150010BD6FF05700C8
:103DB000FBE700BF001C002020B1036913B15B6862
:103DC0001BB118476FF0150070476FF05700704730
:103DD00028B103691BB111B1DB681BB118476FF043
:103DE000150070476FF0570070470000F8B50646A1
:103DF0000D46C9B14B69BBB10A780A2A14D81B68B1
:103E0000ABB19847044668B933686A695A61094F8B
:103E1000287807EB80000EF028FF2A78336857F8DF
:103E200022201A602046F8BD6FF01504FAE76FF003
:103E30005704F7E7141C002010B5044688B1436905
:103E40007BB15B6983B100680EF012FF2279084BE9
:103E5000002143F82210636920465B69BDE81040E9
:103E600018476FF0150010BD6FF05700FBE700BF5B
:103E7000141C002037B50D4601920446A0B14369D9
:103E800093B189B15B6893B100680EF0EFFE63698E
:103E9000019A5B68294620469847054620680EF03F
:103EA000E6FE284603B030BD6FF01505F9E76FF068
:103EB0005705F6E737B50D4601920446A0B14369B0
:103EC00093B189B19B6893B100680EF0CFFE63692E
:103ED000019A9B68294620469847054620680EF0BF
:103EE000C6FE284603B030BD6FF01505F9E76FF048
:103EF0005705F6E770B58AB004460D461646002110
:103F0000182204A811F042FAC5F30C05062304F1A7
:103F10000E01059345F42040012303918DF81830DC
:103F200001910EF0D8FE94F80C3601992BB30023C2
:103F3000134802220EF037FC059B207401330593D1
:103F4000032505F10E012144304601910EF0CBFE10
:103F500094F80C3601994BB10023094804220EF065
:103F600022FC059B25440133A87405936068012257
:103F700003A9FFF7AEFE0AB070BD0225E1E700BF5E
:103F8000401C00202DE9F041044688B090461022E4
:103F90000F460DEB0200002104F10E0511F0F6F9B9
:103FA00004260123384629468DF81030CDE9015505
:103FB00003960EF090FEA37B63F07F03A37394F847
:103FC0000C36002727741BB3039B19480133039356
:103FD00002223B4629460EF0E6FB67742074039BE1
:103FE00060683344012201A90393FFF772FE05467E
:103FF00050B994F80C3606F10E07274453B93846E9
:104000000EF079FEC8F80000284608B0BDE8F0813F
:104010000326E4E7034604220548394634440EF0FB
:10402000C2FBA37C8342EAD06FF01505ECE700BF2A
:10403000401C0020F7B5174601AA05460E461C464F
:10404000FFF7A0FF48B9019B5C4004EA07025A4011
:10405000314628460192FFF74DFF03B0F0BD2DE930
:104060007747064689464FF04050002190469A46D1
:104070000EF009FE002105464FF040600EF003FEF1
:10408000494605434FF078700EF0FDFD414605436B
:104090004FF4F8100EF0F7FD514605434FF6FF7050
:1040A0000EF0F1FD202145EA00023046FFF722FF25
:1040B0000446002841D101464FF040500EF0E3FD88
:1040C000012105464FF040600EF0DDFD49460543F5
:1040D0004FF078700EF0D7FD414605434FF4F810CD
:1040E0000EF0D1FDBDF8281005434FF6FF700EF01D
:1040F000CAFD212145EA00023046FFF7FBFE0446D7
:10410000D8B901AA20213046FFF73CFF0446A0B9E8
:1041100001994FF000400EF0BEFD0028F1D001AA39
:1041200021213046FFF72EFF044630B901994FF0A8
:1041300000400EF0B0FD0028F1D0204603B0BDE8ED
:1041400070872DE9F74506460F464FF04050002195
:1041500090469A460EF097FD002105464FF04060CC
:104160000EF091FD394605434FF078700EF08BFD4F
:10417000414605434FF4F8100EF085FD51460543C6
:104180004FF6FF700EF07FFD202145EA0002304619
:10419000FFF7B0FE0446002842D101AA2021304694
:1041A000FFF7F0FE044600283AD101994FF0004095
:1041B0000EF071FD0028F0D021464FF040500EF077
:1041C00062FD032105464FF040600EF05CFD414664
:1041D00005434FF4F8100EF056FD394605434FF0F5
:1041E00078700EF050FD212145EA00023046FFF7BD
:1041F00081FE0446A0B901AA21213046FFF7C2FE84
:10420000044668B901994FF000400EF044FD0028C3
:10421000F1D001994FF6FF700EF03DFD0A9B18801A
:10422000204603B0BDE8F0852DE9F3410646084677
:104230000F460EF054FD3378012B14BF40F080443C
:1042400040F0404444F480344FF05008002501AA67
:1042500041463046FFF796FED8B9019BE3B10135E0
:1042600008F10208102D1FFA88F8F0D105F1280195
:10427000490089B222463046FFF73CFE48B9B81CD7
:104280000EF039FD69005131024689B23046FFF720
:1042900031FE02B0BDE8F08108F1010101AA89B246
:1042A0003046FFF76FFE0028F3D1019B002BD6D1DB
:1042B000DCE72DE9F743064608460C460EF00FFDF5
:1042C0008046A01C0EF017FD5025074601AA29467E
:1042D0003046FFF757FE044640B9BDF8043001935D
:1042E000434507D00235ADB2702DEFD1204603B063
:1042F000BDE8F08305F101091FFA89F901AA4946D1
:104300003046FFF73FFE78B9019BBB42EAD1224617
:1043100029463046FFF7EEFD30B922464946304681
:10432000FFF7E8FD0028DDD00446DFE707B54FF0D2
:10433000FF330093ADF8043029B16946FFF774FFED
:1043400003B05DF804FB6946FFF7B3FFF8E7000030
:104350002DE9F04788B00546884617460021182207
:1043600002A811F013F801232A788DF81030384B89
:1043700003EBC20305F10E095B68CDF804904345D9
:104380005FD93E68331D3F2B6A464FF03201284605
:1043900094BFC6F13C0A4FF0000AFFF7F3FD044654
:1043A000002848D1009B5644B21C023BB2EB430F9D
:1043B0004AD830212846FFF79DFD044600283AD10F
:1043C000494631200EF087FCAB7B63F05F03AB7393
:1043D00095F80C369BB323461E48022249460EF040
:1043E000E2F90324287404F10E01053629441FFA6A
:1043F00088F026F003060EF06EFC264404F110034C
:1044000003963A1D2B4407F1100152F8040B43F8B0
:10441000040B8A42F9D112881A803A68796904F14A
:104420001E000E3A284410F09BFE6868012201A984
:10443000FFF74FFC0446204608B0BDE8F087022491
:10444000D1E76FF01504F6E76FF00A04F3E700BF59
:1044500080160210401C00202DE9F04389B004466C
:10446000884617460021142203A810F08FFF01236D
:1044700022788DF81030384B03EBC20304F10E069E
:104480005B684345CDE9016662D9B8F1000F6A4621
:104490000CBF9021C02120460CBF4FF091094FF076
:1044A000C109FFF76FFD054600284BD1009B052B86
:1044B00048D9014640F2FA52304610F067FF3146C3
:1044C00048460EF008FCA37B257463F07F03A373BA
:1044D00094F80C36002B39D0314620482B46022266
:1044E0000EF061F904262074657406F10E01214472
:1044F0001FFA88F00EF0EFFB009B6068033323F097
:1045000003033344012201A90393FFF7E2FB0546AD
:10451000C0B9009A06F110032344103A391D03F183
:104520000C0053F804CB41F804CB8342F9D11B882B
:104530000B8006F11E017869214410F011FE009BEA
:10454000023B3B60284609B0BDE8F0830326CCE778
:104550006FF01505F6E700BF80160210401C002022
:1045600001220321FFF7C6BC2DE9F043804685B048
:104570000E4601204FF4C26110F08EFA0546002865
:1045800000F0CA8006F11C0100F5C160FFF786F952
:104590000446002840F0AC80D5F80806A8B12146B2
:1045A000FFF7B1F90446002840F09E800A2000F091
:1045B0007BFCD5F808060121FFF7B2F90446002874
:1045C00040F092805A2000F06FFC311D281DFFF74B
:1045D000FFFA0446002840F08780514807210EF07A
:1045E000CCF8B38EAB8133782B7096F8363085F8E3
:1045F0000C36D5F80836306BA86005F1080743B9CA
:104600002846FFF7ADFF044600286AD15A2000F083
:104610004BFC20231A4606212846FFF70BFD0446D3
:1046200000285ED12B783F4A012B18BF4FF48362DC
:10463000D2430D212846FFF75DFC0446002850D1E7
:1046400039462846FFF7F0FD0446002849D12A786C
:10465000354B03EBC2030746D3F8049003AEB945CC
:1046600011D1324608212846FFF78CFC0446002869
:1046700037D1039940200EF00EFB039000283BD168
:104680006FF00F042DE00023013700961A463946DB
:104690002846FFF756FD044618BBBDF80C104FF432
:1046A00000600EF0F8FA0028D9D0BDF80C301A05D9
:1046B000D5D523F400639BB2ADF80C3000930023F2
:1046C0001A4639462846FFF7CAFC044648B903464D
:1046D0000246009639462846FFF733FD0446002877
:1046E000E3D06868FFF7C0FAD5F80806FFF7F1F8DD
:1046F000284610F04BFA0BE04FF400431A46042111
:104700002846FFF797FC04460028EAD1C8F8005075
:10471000204605B0BDE8F0836FF00B04F8E700BF5A
:10472000401C0020180402008016021038B505460F
:1047300090B14068FFF798FA044628B9D5F8080602
:1047400020B9284610F022FA204638BDFFF7C1F8FC
:104750000028F6D00446F7E76FF01504F4E738B503
:104760004378044683B94068FFF77EFA70B9A068C1
:10477000FFF7AFF850B9E068FFF7ABF8054628B986
:1047800020460DF0D4FE03E0012B03D04FF0FF359F
:10479000284638BD4068FFF735F9E7E77FB5194B84
:1047A00045788DF8071016461A889B78ADF80C20CE
:1047B00004468DF80E3075B9CBB25B0040688DF8B9
:1047C0000C30032203A9FFF763FA30B9BDF80D30AE
:1047D0005BBA338003E0012D03D04FF0FF3004B00B
:1047E00070BD406800232A460DF10701FFF71EF94E
:1047F0000028F2D160682B4602220DF10D01FFF76F
:1048000039F9E2E79016021007B5130A8DF8053062
:1048100043788DF8062083B9490041F001018DF8F5
:1048200004104068032201A9FFF732FA003818BFCC
:104830000120404203B05DF804FB012B07D18DF845
:104840000410032201A94068FFF7F0F8EEE74FF0EB
:10485000FF30EFE701F003021021FFF7D5BF13B5DA
:104860000C460DF106020021FFF798FF28B9BDF8AC
:1048700006301B0A237002B010BD4FF0FF30FAE77C
:1048800001220F21FFF7C0BF73B506460D46012078
:1048900010210DF04AFE044600285CD02B780370EE
:1048A000012B36D163706378002B37D1291D201D71
:1048B000FFF78EF900284BD10DF1060208212046A2
:1048C000FFF76CFF00283ED1237873BBBDF80620AC
:1048D00040F616139A4236D12046FFF7D1FF90BB1F
:1048E00005F11C0104F10800FEF7C4FF58BB05F1F7
:1048F000300104F10C00FEF7BDFF08BBA068FEF715
:10490000F5FFD0B9E068FEF7F1FFB0B9346002B04E
:1049100070BD022B14BF6B780023C3E7012B17D1A6
:10492000291D201DFFF728F8C4E7013B012BD3D830
:10493000BDF8062040F61623CCE7E068FEF7C9FF75
:10494000A068FEF7C6FF637843B96068FFF78CF98B
:1049500020460DF0ECFD4FF0FF30D8E7012BF7D1EA
:104960006068FFF74FF8F3E713B55F210DF106021A
:104970000446FFF713FF18B14FF0FF3002B010BD2F
:10498000BDF806205F2142F001022046ADF8062066
:10499000FFF73AFF0028EFD10DF106025021204623
:1049A000FFF7FCFE0028E7D1BDF80620502142F0B9
:1049B00020022046ADF80620FFF726FF0028DBD1B5
:1049C000012000F071FA0DF106020A212046FFF7DE
:1049D000E5FE0028D0D1BDF806309FED297AC3F35B
:1049E0000B0307EE903AF8EE677A2378C7EE876AF2
:1049F000B7EE007A37EE667ADFED227A27EE277A75
:104A0000002B3AD1DFED206AC7EE267A4D212046F1
:104A1000FCEEE77A17EE903A9AB2D2B2ADF80620E1
:104A2000FFF7F2FE0028A7D10DF106025021204623
:104A3000FFF7B4FE00289FD1BDF8062022F0200227
:104A400092B250212046ADF80620FFF7DDFE002887
:104A500092D10DF106025F212046FFF79FFE00284C
:104A60008AD1BDF8062022F0010292B25F212046D1
:104A7000ADF80620FFF7C8FE80E7DFED046AC3E764
:104A80000000FA440024F44B00E4D44700C0DA47A5
:104A9000F0B585B0CEB2C1F30727C1F307450DF1DC
:104AA0000E0211210446FFF779FE08BBBDF80E3057
:104AB00096B923F001033B43AD0023F01C0305F03E
:104AC0001C052B43ADF80E30BDF80E2011212046F9
:104AD000FFF79AFE05B0F0BD012EF5D123F02003BB
:104AE00043EA4713AD0123F4E07305F4E075E8E70A
:104AF0004FF0FF30EEE7B1F5FA6F07D889004FF4B9
:104B0000FA42B2FBF1F21221FFF77EBE4FF0FF3006
:104B1000704713B50C460DF106021221FFF73EFE59
:104B200048B9BDF806309A004FF4FA43B3FBF2F3EC
:104B3000238002B010BD4FF0FF30FAE70068FFF7A6
:104B40002DBE0068FFF760BE2DE9F04F0024D0F8BD
:104B500000908BB00546884616462746B74201D1DD
:104B6000002008E00DF107014846FFF778FE002815
:104B700004DA4FF0FF300BB0BDE8F08F9DF807303E
:104B80001F2BEFD90DF1080B4FF0000A5A46602198
:104B90004846FFF703FE0028EBDB0AF1010ABAF1F1
:104BA000100F0BF1020BF1D129794FF0FF330133D4
:104BB0001F2B02D831FA03F203D10137CEE7520896
:104BC000034612F0010F03F10100F8D00AAA02EB2C
:104BD000830232F81E0C0AAA02EB830232F8202C60
:104BE00042EA004248F824200134E0E773B5044665
:104BF0001546B3F9002026681C78032AC8BF023482
:104C000008460DF106020E49C8BFE4B210F0F2FDED
:104C100001213046FFF71EFE78B904F11801BDF8F6
:104C20000620C9B23046FFF7EFFD30B901463046E5
:104C3000FFF710FE002808BF284602B070BD00BF75
:104C40009316021037B50B4605680D4914461846F1
:104C50000DF1060210F0CEFD01212846FFF7FAFD06
:104C600060B9BDF806102846FFF745FF30B9014688
:104C70002846FFF7EFFD002808BF204603B030BDEF
:104C80009716021037B50C4600680DF1060115465F
:104C9000FFF73FFF30B9BDF80630034A29462046EA
:104CA00010F044FD03B030BD9B16021037B5154619
:104CB000B3F900201B780068032AC4BF0233DBB2BB
:104CC00018330C460DF10602D9B2FFF767FD30B973
:104CD000BDF80630034A2946204610F027FD03B0F0
:104CE00030BD00BF9F16021010B501210446FFF72A
:104CF000B1FD014620B92046BDE81040FFF7AABD2E
:104D000010BD002303710068FFF7EEBF10B501214D
:104D10000446FFF79FFD28B920460221BDE8104058
:104D2000FFF798BD10BD01710068FFF7EFBF0000ED
:104D30002DE9F04307688BB038460D4616461C46F1
:104D4000FFF7E4FF80BB0DF107013846FFF787FD51
:104D500050BB9DF807301F2BF5D93846FFF7C4FF2D
:104D600010BB0DF1080980464A4660213846FFF71E
:104D700015FDC8B908F10108B8F1100F09F10209D1
:104D8000F2D1B4F900400AAB03EB8403314633F8A7
:104D90001E2C0AAB03EB8404284634F8203C43EA7B
:104DA0000243034A10F0C2FC0BB0BDE8F08300BF21
:104DB000A3160210F0B5054685B00F460120082164
:104DC0000DF0B3FB0126062200238DF808308DF884
:104DD00009608DF80A208DF80C608DF80D608DF853
:104DE0000E20044600284CD003713946FFF74CFDD5
:104DF000002843D120680DF106024B21FFF7CEFCBD
:104E0000002838D1BDF80620206842F080024B21EE
:104E1000ADF80620FFF7F8FC68BB20683146FFF7C5
:104E200019FD40BB02992068FFF732FE18BB0399B9
:104E30002068FFF72DFEF0B920680DF1060214215D
:104E4000FFF7ACFCB8B9BDF80620206802F4704248
:104E500042F48A6242F005021421ADF80620FFF701
:104E6000D3FC024638B920681521FFF7CDFC10B9F4
:104E70002C6005B0F0BD2068FFF771FC20460DF0F6
:104E800056FB4FF0FF30F4E710B5054CFDF708F87E
:104E9000D4E90023501C43F10001C4E9000110BD16
:104EA000401D0020FDF71AB84FF47A735843FDF700
:104EB00015B8000070B5044672B60F4D0F4ED5E917
:104EC00000014FF47A7200230FF064FCD5E9001260
:104ED0004FF47A7505FB10124FF0E02308499B69E7
:104EE0000968B1FBF6F1B3FBF1F305FB023362B6DF
:104EF000C4E90003204670BD401D002040420F0061
:104F0000D013002050B143681F2B07DC03691B7AC4
:104F10000020012B0CBF0B70087070476FF015005C
:104F2000704710B548B143681F2B06DC00690024A8
:104F30000472FBF7BFFB204610BD6FF01500FBE7C6
:104F4000F8B507460C46002953D00B69002B50D00A
:104F50004B681F2B4DDC142101200DF0E6FA0546AD
:104F6000002849D00C2101200DF0DFFA0646002868
:104F70003CD0227A022A30D8206804282DDC20B3C5
:104F8000012824D0022824D0032824D004281C4B34
:104F900018BF00236168D4F810C0336001238B4030
:104FA00073600023727233729CF80030B372C5E9EB
:104FB00000012A722E61FBF7A5FA2869FBF77AFB3C
:104FC000044650B93D602046F8BD0E4BE2E70E4B5B
:104FD000E0E70E4BDEE70E4BDCE730460DF0A7FABC
:104FE0006FF0150428460DF0A2FAECE76FF00B0401
:104FF000F8E76FF01504E6E76FF00B04E3E700BF96
:1050000000C00040008000400090004000A0004030
:105010000004084009B1FFF793BF016008467047DC
:1050200010B5044638B100690DF081FA20460DF044
:105030007EFA002010BD6FF01500FBE7F8B50F46B3
:105040000546D0B143681F2B17DC012915D800692C
:10505000012406680472FBF72DFB6968336804FAC3
:1050600001F10B43A7423360304603D0FBF796FAB9
:105070000020F8BDFBF77CFAFAE76FF01500F8E7BF
:1050800010B50C46D8B143681F2B18DC02691068B4
:10509000012199400368012C43EA0103036006D013
:1050A000022C07D05CB9FBF779FA002010BDFBF7A2
:1050B0005FFAFAE7036823EA01010160F5E76FF0A0
:1050C0001500F3E770B50E460546B0B141681F29DB
:1050D00013DC02691068012303FA01F103680B4332
:1050E0000360147A34B9FBF729FA6B68D840307042
:1050F000002070BDFBF768FAF7E76FF01500F8E7DE
:1051000003689BB1012B13D0022B13D0032B13D0B8
:10511000042B0CBF3623002303F1604303F56143E6
:105120005201D2B283F80023002070471823F3E71E
:105130001923F1E71A23EFE73A23EDE71F2908B512
:105140001AD8036883B1012B10D0022B10D0032B87
:1051500010D0042B0A4818BF0020012303FA01F1E4
:10516000FBF76CFA002008BD0648F6E70648F4E7AE
:105170000648F2E70648F0E76FF01500F3E700BFD6
:1051800000C00040008000400090004000A00040AF
:105190000004084008B503687BB1012B0FD0022B37
:1051A0000FD0032B0FD0042B084818BF00204FF05E
:1051B000FF31FBF743FA002008BD0548F7E7054833
:1051C000F5E70548F3E70548F1E700BF00C00040F8
:1051D000008000400090004000A000400004084013
:1051E0001F2908B51AD8036883B1012B10D0022BF0
:1051F00010D0032B10D0042B0A4818BF0020012325
:1052000003FA01F1FBF70AFA002008BD0648F6E7A9
:105210000648F4E70648F2E70648F0E76FF01500A5
:10522000F3E700BF00C00040008000400090004055
:1052300000A000400004084008B503687BB1012BC2
:105240000FD0022B0FD0032B0FD0042B084818BF10
:1052500000204FF0FF31FBF7E1F9002008BD0548C1
:10526000F7E70548F5E70548F3E70548F1E700BF2C
:1052700000C00040008000400090004000A00040BE
:1052800000040840F0B51C4D84460F4616460FCD6D
:1052900089B003AC0FC42B682360604640B31F2F56
:1052A00026D8DCF80030DBB1012B1BD0022B1BD041
:1052B000032B1BD0042B114B18BF0023009308AB0A
:1052C00003EB86060121002401FA07F7684616F869
:1052D000141C02940197FBF78DF9204609B0F0BD2C
:1052E000074BEBE7074BE9E7074BE7E7074BE5E73A
:1052F0006FF01500F2E700BFFC16021000C000407E
:10530000008000400090004000A0004000040840E1
:105310007FB503680293074B02AA186801A90DF034
:105320003DFC20B9019A93680BB1D068984707B04B
:105330005DF804FB481D002070B588B00023CDE95E
:1053400005330D46009307930491064678B372B374
:105350001F292CD8194B04AA186869460DF01EFCA9
:10536000044638BB3368D3B1012B1AD0022B1AD0B4
:10537000032B1AD0042B124B18BF0023002201214B
:1053800001FA05F501A81146039201930295FBF776
:1053900067F900980DF0CBF8204608B070BD094BB6
:1053A000ECE7094BEAE7094BE8E7094BE6E76FF062
:1053B0001504F1E76FF01204EEE700BF481D00206E
:1053C00000C00040008000400090004000A000406D
:1053D00000040840F0B589B00023CDE905330D463F
:1053E0001446079304910646002871D0002A6FD016
:1053F0003A4F04AA386869460DF0D0FB60B310211B
:1054000001200DF092F801460090002863D0336827
:105410000560CBB1012B19D0022B19D0032B19D069
:10542000042B2F4B18BF00234B606368CB602368AD
:1054300038688B600DF05DFA044600B300980DF0FB
:1054400076F8204609B0F0BD264BEDE7264BEBE79A
:10545000264BE9E7264BE7E7009A336815603BB334
:10546000012B27D0022B27D0032B27D0042B1C4B3A
:1054700018BF002353606368D36023689360336868
:10548000F3B1012B1ED0022B1ED0032B1ED0042BF8
:10549000134B18BF0023012101FA05F50024009ADF
:1054A0001449039401A801930295FBF7D9F8C8E7C2
:1054B0000C4BDFE70C4BDDE70C4BDBE70C4BD9E784
:1054C000084BE8E7084BE6E7084BE4E7084BE2E760
:1054D0006FF01504B5E76FF00B04B2E7481D00202C
:1054E00000C00040008000400090004000A000404C
:1054F0000004084011530010F8B506460D46D9B116
:105500000C2101200DF011F80446C0B12B680D4F9D
:105510000360AB6883600C4A032138460DF052FAF1
:10552000054638B138680DF099FA20460CF0FFFFB7
:105530002846F8BD3460FBE76FF01505F8E76FF01B
:105540000B05F5E7481D0020C558001037B5044687
:10555000A8B10C4D286801A90DF0EAF958B12868E6
:105560000DF07CFAA0680CF0E2FF20460CF0DFFFA3
:10557000002003B030BD01980CF0D9FFEAE76FF0CE
:105580001500F6E7481D00200020FBF76BB801204E
:10559000FBF768B80220FBF765B80320FBF762B899
:1055A0004168164A38B552F821304569013B42F846
:1055B00021300446ABB92868FBF744FAC0B96368E8
:1055C000BBB1012B17D0022B0CBF3E2300235A097D
:1055D000012103F01F0301FA03F32032084941F8C7
:1055E000223028460CF0A3FF20460CF0A0FF00203C
:1055F00038BD0D23EBE72423E9E700BF4C1D002055
:1056000000E100E030B589B000282ED0446964B3D1
:10561000456835B3012D26D0022D154D18BF002544
:10562000007B01900020CDE90200CDE90412B3FA1D
:1056300083F35B090693237A00951BB10393636898
:10564000069002936846FBF775FA237A05462BB15C
:1056500060680CF06CFF002323726360284609B079
:1056600030BD044DDCE7044DDAE76FF01505F5E7D2
:1056700000F0014000D0014000E0014070B50E464E
:1056800088B01446002836D04569002D33D04268D2
:10569000BAB1012A17D0022A184A18BF0022EBB962
:1056A00068682C7288B10CF042FF20460FF066FA51
:1056B00068606868224631460FF052FD002008B04D
:1056C00070BD0F4AEBE70F4AE9E720460FF056FAA4
:1056D00068600028EDD16FF00B00F0E7037B0092CB
:1056E000CDE9013668460023CDE9046303940693AF
:1056F000FBF720FAE3E76FF01500E0E700F0014068
:1057000000D0014000E001402DE9FF470C4606466D
:1057100028B96FF01504204604B0BDE8F0870029D1
:10572000F7D00B69002BF4D00B68022BF1D81821AD
:1057300001200CF0FAFE3060002877D00C21012007
:105740000CF0F3FE074600286DD02268D4F81090C4
:10575000002A41D0012A41D0022A364D18BF002527
:105760006168354833683D6081425A6038D8DFF857
:10577000EC80986058F822A0217A19735F61BAF121
:10578000000F3FD0336899F800705B68012B46D05A
:10579000022B46D0002BBCD1284B93E8070004AB6A
:1057A00003E9070001A88DF80E70FAF783FF284679
:1057B000FBF7AEF933689968814228BF0146284655
:1057C000FBF7A4F90028A4DB226858F82230013343
:1057D00048F8223000249EE7194DC1E7194DBFE774
:1057E00019488142C3D919488142C0D91848814219
:1057F000BDD96FF0150438460CF099FE30680CF0F6
:1058000096FE88E72846FBF71DF9524601212846F7
:10581000FBF742F90028B5D04FF0FF34EBE70D4B12
:10582000BBE70D4BB9E76FF00B04E7E76FF00B0434
:1058300071E700BF00F00140A0860100AC13021028
:1058400000D0014000E00140801A060040420F00F5
:1058500040E13300B8130210C41302104C1D0020A5
:105860000148FBF76DB900BF00D001400148FBF7CC
:1058700067B900BF00E001400148FBF761B900BF14
:1058800000F001400B4B4FF47A721B68B3FBF2F34C
:10589000013BB3F1807F0AD24FF0E022E021536157
:1058A000054B83F823100023936107231361012024
:1058B000FCF714BBD013002000ED00E008B5FFF7A3
:1058C000E1FF08BD00680B68C01A7047A0F118031B
:1058D000022B06D93A2804D0A0F136035842584189
:1058E0007047012070476FF05700704762B6002084
:1058F000704772B6002070476F299FBF4A09012385
:1059000001F01F0103FA01F19DBF034B002043F892
:1059100022106FF01500704700E100E06F290BD8EE
:105920004B09012201F01F0102FA01F12033044A60
:10593000002042F8231070476FF01500704700BF39
:1059400000E100E06F299FBF01F16041520101F5C4
:105950006141D2B29ABF002081F800236FF0150098
:1059600070470000164B984210B521D003F58053C4
:1059700098421FD003F5805398421DD0114CA0428D
:105980000CBF03244FF0FF34FDF734F80E4B6001D9
:1059900003EB44141A588AB1A2690AB9226912B9F0
:1059A0001A18D26852B1BDE810401844FDF71EB86D
:1059B0000024E9E70124E7E70224E5E710BD00BF82
:1059C0000020044000140840701D002010B586B06F
:1059D0000023CDE9033305931B4B9842044629D09D
:1059E00003F58053984227D003F58053984225D081
:1059F00003F58053984223D003F5DB2303F580633E
:105A000098421FD003F5806398420CBF0A230023FD
:105A100002930E4B02AA586B01A90DF0BFF838B9DA
:105A2000019A93680BB1D06898472046FCF702FDB5
:105A300006B010BD0523EBE70623E9E70723E7E7F8
:105A40000823E5E70923E3E700000140E403002021
:105A500038B505460C4659B10C2101200CF065FD06
:105A600048B123680360A36883602860002038BDC4
:105A70006FF01500FBE76FF00B00F8E7F0B587B0AB
:105A8000002304460846CDE903330E461546059328
:105A90000291FFF71BFF002840F0C380002C00F0AC
:105AA000C380002A00F0C080517A022945D0032922
:105AB0007DD0012940F0B880137A5D4FD80007EB04
:105AC000C3035B689BB12B7A07EBC30302AA586838
:105AD00001A90DF063F8044630B3102101200CF049
