:020000041000EA
:10000000000010203D3D0110793D01107B3D0110A5
:100010007D3D01107F3D0110813D01100000000079
:10002000000000000000000000000000833D0110FF
:10003000853D011000000000873D0110394E001081
:100040008D3D01108F3D0110913D0110E95B0010C5
:10005000953D0110C55B0010D15B0010DD5B001009
:100060009D3D01109F3D0110A13D0110A33D0110D8
:10007000A53D011009570010955B0010A15B001011
:10008000AD3D0110AF3D0110B13D0110B33D011078
:10009000B53D0110B73D0110B93D0110BB3D011048
:1000A00031540010375400103D540010C33D01106E
:1000B000C53D0110C73D0110C93D0110CB3D0110E8
:1000C000CD3D0110CF3D0110AD5B0010D33D0110BF
:1000D00015570010D73D0110D93D0110DB3D01102F
:1000E000DD3D0110DF3D0110E13D0110E33D011058
:1000F000E53D0110E73D0110E93D0110EB3D011028
:10010000ED3D0110EF3D0110F13D0110F33D0110F7
:10011000F53D0110F73D0110F93D0110FB3D0110C7
:10012000FD3D0110FF3D011043540010033E01103E
:10013000053E0110073E0110215700100B3E011033
:100140000D3E01100F3E0110113E0110133E011033
:10015000153E0110173E0110193E01101B3E011003
:100160001D3E01101F3E0110213E0110233E0110D3
:10017000253E0110273E0110293E01102B3E0110A3
:100180002D3E01102F3E0110313E0110333E011073
:10019000353E0110373E0110393E01103B3E011043
:1001A000B95B00103F3E0110413E0110433E01107B
:1001B000453E0110473E0110493E01104B3E0110E3
:1001C0004D3E01104F3E0110513E0110533E0110B3
:1001D000553E0110573E0110593E01105B3E011083
:1001E0005D3E01105F3E0110613E0110633E011053
:1001F000653E0110673E0110693E01106B3E011023
:100200000348044B834202D0034B03B118477047A5
:10021000AC130020AC130020000000000548064B82
:100220001B1AD90F01EBA301491002D0034B03B1F4
:1002300018477047AC130020AC13002000000000EA
:1002400010B5064C237843B9FFF7DAFF044B13B11E
:100250000448AFF300800123237010BDB0130020C9
:10026000000000006C22031008B5044B1BB10449C8
:100270000448AFF30080BDE80840CFE7000000006D
:10028000B41300206C2203100A4A116808B5034613
:1002900009B9094911601068084903448B4206D91D
:1002A00014F06EFA0C2303604FF0FF3008BD1360AA
:1002B000FCE700BFCC130020C02E022000000F205E
:1002C0004FF080439A6802F46062B2F5206F1ED04E
:1002D00013D8B2F5806F1DD0B2F5C06F1CD0114B92
:1002E0001149002A18BF0B464FF080429268C2F3B2
:1002F0008212D3400D4A13607047B2F5406F0ED0A2
:100300000B4B0949B2F5606F18BF0B46ECE74FF491
:10031000E103E9E7074BE7E74FF4FA53E4E74FF46B
:100320000043E1E700879303000E2707D013002066
:100330000080BB000048E8010020704770470000C3
:1003400038B5164C164BA3604FF080430122C3F81A
:10035000002C144D4022C3F80C240022C3F8002CBA
:10036000284601F0D1F8284601F0D0F8284601F0DF
:10037000CBF8D4F8883043F47003C4F88830BFF366
:100380004F8FBFF36F8F042001F04EFEFFF798FFF1
:10039000FFF7D4FF05F0E6F962B638BD00ED00E0E6
:1003A0000000001000A002400F28F8B516D8142352
:1003B0000D4E03FB00F5771973597BB10B480121F2
:1003C00001F088FD044660B9FB68705118605A68F6
:1003D00006485A6001F08CFD2046F8BD6FF002041B
:1003E000FAE76FF00504F7E7D8130020D4130020D4
:1003F00010B5064C217831B905484FF4207214F03D
:1004000001FE01232370002010BD00BF181500203D
:100410009C1700202DE9F047DFF868C04468174EAC
:10042000174FDFF864E0DFF86480DFF864900025A0
:100430000CB9BDE8F087E30715D50368B34215D0C2
:10044000734515D0434515D04B4515D0DFF844A072
:10045000534514BF4FF0FF33042305EB431347F814
:1004600023104CF8232001356408E1E70023F4E76A
:100470000123F2E70223F0E70323EEE700800040C8
:100480009C1700201C1500200090004000A0004098
:100490000004084000C00040042898BF104B70B50D
:1004A00094BF53F8206000260546304600F0D8F887
:1004B00001460446304600F0C5F80A4E0A4B06EBEA
:1004C000C51603EBC51504B970BDE30703D52B684A
:1004D0000BB130689847640804360435F3E700BF71
:1004E000801D02101C1500209C17002010B504462A
:1004F000E00702D5002001F021FDA10702D501206F
:1005000001F01CFD620702D5022001F017FD230750
:1005100002D5402001F012FD2046BDE81040FFF753
:1005200067BF0000074B984201D000F0B7B9064BF7
:10053000186A1B6A9B0903F00203C0F3C00018434A
:100540000840704700C00040006C0040084A9042DC
:100550000B460AD10749086ADA0003F0010302F0EA
:100560001002034313430B62704700F09AB900BFB7
:1005700000C00040006C0040084A90420B460BD17E
:100580000748DA00016A02F0100203F00103134386
:1005900021EA03030362704700F085B900C0004000
:1005A000006C0040084A90420B4601D000F07DB933
:1005B00006490A6A086AC00802F0010200F0020057
:1005C00010431840704700BF00C00040006C00405E
:1005D00010B4084A0468944203D05DF8044B00F05C
:1005E00067B904290CBF00206FF010005DF8044BC0
:1005F000704700BF00C00040064A90420B4607D13A
:10060000A2F5B04203F00303916A0B439362704773
:1006100000F080B900C00040064A90420B4607D166
:1006200005498A6A03F0030322EA03038B627047D9
:1006300000F072B900C0004000680040FFF7EABE59
:10064000FFF72ABF054A904205D1A2F5B04201F05A
:1006500003035362704700F061B900BF00C000405F
:10066000044B984201D000F05BB9034B586A00F08C
:100670000300704700C0004000680040034B9842F0
:1006800001D000F04FB96FF01000704700C000407B
:1006900038B504687B4B9C4205460AD10120FFF720
:1006A00025FF6A68297A204600F04EF9002859D0C3
:1006B00038BD754B9C4201D10220F0E7734B9C4240
:1006C00001D10420EBE7724B9C4201D10820E6E700
:1006D000704B9C424ED11020FFF708FF2B7A012B64
:1006E00020D0022B04D0002B2FD06FF01000DFE7BA
:1006F0006B68694958001A010C6A00F0020002F0A8
:100700002002024322430A628A68C3F34003034380
:1007100013438B606B7A042B2CD8DFE803F06977E6
:10072000957795006B685C4958001A010C6A00F0D7
:10073000020002F02002024322430A628A68C3F3E5
:100740004003034322EA0303E3E76B68524958007E
:100750001A010C6A00F0020002F02002024324EAAF
:100760000202EAE76B7A042B04D8DFE803F00623E1
:10077000391631006FF002009AE7236E6A6823EAA7
:1007800002032366636E23EA020363666A68A97A3A
:100790002046BDE83840FFF771BF236E6A681343F7
:1007A0002366636E23EA02036366D4F8B83023EA53
:1007B00002030AE0226E6B681A432266626E22EA26
:1007C00003026266D4F8B8201343C4F8B830DDE7FA
:1007D000236E6A6823EA02032366636E1343E3E72A
:1007E000226E6B6822EA03022266626E1A43E8E711
:1007F0006A68294993005201086A03F0040302F071
:100800004002134303430B62002051E76B68224907
:100810005A001C0104F0200402F0020222439C0052
:1008200004F0040422435C01086A04F040042243FB
:1008300020EA02020A62086ADA0003F0010302F009
:10084000100203431343DEE76A68134853001401A0
:1008500004F0200403F00203234302F001042343C5
:10086000940004F004042343540104F04004D20033
:10087000016A234302F01002134321EA03030362D7
:10088000C2E700BF008000400090004000A0004090
:100890000004084000C00040006C0040406A08406E
:1008A0007047C161704701627047806908407047B6
:1008B000036804292BD8DFE801F01103221D26006C
:1008C000DA6A41680A43DA62DA6D22EA0102DA651D
:1008D0009A6A22EA01029A6200207047D96A426845
:1008E00021EA0201D962D96D21EA0201D965996A2A
:1008F0000A43F0E7DA6A416822EA0102E3E7D96ACB
:1009000042681143EEE7D96D42681143EEE76FF09C
:100910000200704781637047C1637047816470470C
:10092000006C704721B101290AD06FF002007047B6
:10093000D0F8C03023EA0203C0F8C030002070476E
:10094000D0F8C0301343F7E7036B13430363052963
:1009500019D8DFE801F0030B0D1114164261426053
:100960000267C267C0F88820002070470261F6E77E
:10097000C26702678260F5E7C267C266FAE782670C
:10098000F7E78267F9E76FF00200704700F0EAB816
:1009900008B50F4B984207D10D2001F0AFFA102097
:1009A00001F0BAFB002008BD0A4B984204D11C207C
:1009B00001F0A4FA2020F3E7074B984204D1382035
:1009C00001F09CFA3420EBE76FF00100EBE700BF89
:1009D00000D0014000E0014000F0014070B50D463C
:1009E0001646044608B3FFF7D3FF134B9C420CD1C5
:1009F0000D2001F0A3FA1148FFF74AFE32462946BE
:100A00002046BDE8704000F04BB80D4B9C4204D12D
:100A10001C2001F093FA0B48EEE70B4B9C4207D1E8
:100A2000382001F08BFA0948E6E74FF0FF3070BD3F
:100A30006FF00100FBE700BF00D00140981F0210DB
:100A400000E001408C1F021000F00140801F0210E6
:100A5000034B994201D800F09FB86FF01000704727
:100A600040420F0000F0E0B800F0EEB800F0FDB832
:100A700000F009B900F01AB900F02BB900F031B953
:100A800000F037B900F038B900F09AB900F052BA66
:100A900000F05FBA014B196800F006BD00000020AD
:100AA0002DE9F8430D469046044600284ED010210B
:100AB000FFF7E8FF064650BB2368DFF8A490254FF8
:100AC00043F0010323602046FFF7D6FF2046FFF7DF
:100AD000D5FF02212046FFF7DBFF06212046FFF766
:100AE000D5FFCDB92A4641462046FFF74FFF4C457A
:100AF00008D0194B9C420DD0184DAC4214BF4FF09A
:100B0000FF350225182303FB057500236B60304673
:100B1000BDE8F8830125F5E723684C4543F002035F
:100B200023600FD00C4B9C420ED003F580539C42A7
:100B300014BF4FF0FF340224182303FB0477012372
:100B40007B60E4E73446F7E70124F5E74FF0FF3632
:100B5000DDE700BF401A002000E0014000F0014046
:100B600000D0014078B18AB9B1F5806F11D27F29E8
:100B700088BF4FF40043C26488BFC364C36C0B4397
:100B8000C364104670474FF0FF32FAE76FF010026F
:100B9000F7E76FF00202F4E7002839D06FF4107223
:100BA000A1F5742313441C4A93422DD21B4B1B689E
:100BB0005B08B3FBF1F103234A00B2FBF3F2B1FB94
:100BC000F3F3013B0F2B02F1FF3202DD6FF0020065
:100BD00070470F2AFADC1B029BB2D2B21A43C263DF
:100BE00003680F4943F4004303600C4B1B685B0828
:100BF000B3FBF1F35B085A1E023BB3F5FF7FE5D868
:100C000042638263FFF72EBF064B9942EDD9DDE7C1
:100C10004FF0FF30704700BF009F2400D01300202A
:100C2000801A060040E133000649436B826B086876
:100C3000C2F30802C3F3080313444008B0FBF3F007
:100C4000704700BFD013002060B1036B13F0010F99
:100C5000036B04D043F0020303630020704743F0AA
:100C60000103F9E74FF0FF307047024640B1036BD4
:100C700043F004030363106B10F00400FBD17047D2
:100C80004FF0FF30704710B568B161B100239A4250
:100C900001D1184610BD4468A407FAD4C46AE4B26E
:100CA000CC540133F3E74FF0FF30F3E710B568B1F0
:100CB00061B100239A4201D1184610BD4468E40690
:100CC000FAD4CC5CE4B2C4620133F3E74FF0FF30F6
:100CD000F3E7C36943F08003C361C3691B06FCD417
:100CE0007047436A43F080034362436A1B06FCD4A7
:100CF00070478160026170472DE9F0410F4604465C
:100D0000002859D0036843F00103036006680368B4
:100D100043F4806306F4806603604FF00008B84532
:100D20000CD16FF008001EB9236823F480632360A0
:100D3000236823F001032360BDE8F0810A2001F05D
:100D40009FF8236823F0400323600A2001F098F8FD
:100D50002368D90506D5236843F0C003236008F152
:100D60000108DCE70A2001F08BF8236823F08003F8
:100D700023600A2001F084F8256815F40075EAD193
:100D80000A2001F07DF8236843F0800323600A20E5
:100D900001F076F823689A05DDD50A2001F070F895
:100DA000236843F0400323600A2001F069F82368B8
:100DB000DB05D4D52846B6E74FF0FF30BCE700008E
:100DC0002DE9F041D0E900437F2B054600F2A780D2
:100DD000574B9C4208D003F580539C4204D003F546
:100DE00080539C4240F09E8023689A0740F19D808A
:100DF00007226FF07F412046FFF742FE2046FFF7B3
:100E00003DFE2046FFF738FE0023E36063616B6917
:100E10000BB1EB6833B16B685B00E362236B43F0AB
:100E20000103236300262027EA68B2422ED800225D
:100E300011212046FFF724FE6B697BB1B3F5807F5B
:100E400088BF002323622046FFF70EFE236B98071E
:100E5000FCD46B685B0043F00103E36200261027BB
:100E60004FF001086A69B24227D8AB69002B4ED017
:100E7000236B43F002032363A368DB07FCD5412304
:100E8000A360A06810F4FE4015D012E0A3689B0692
:100E900007D5A968921B31442046FFF7EBFDA760F8
:100EA0000644A36813F4FE4FBED0EE602046FFF761
:100EB000DDFD6FF00800BDE8F081A36813F0110FAD
:100EC00007D02969921B31442046FFF7D1FDA76066
:100ED0000644A26812F4FE4201D06E61E6E7A36800
:100EE000D907BFD56B69B342BCD29B1BB3F5807FDA
:100EF0008CBF22622362236B43F0020323636B687F
:100F0000C4F808805B0043F00103E362AAE7236BA7
:100F100043F004032363A3685A06FCD5ACE76FF0E3
:100F20001000C8E76FF00200C5E76FF00600C2E7E7
:100F300000D001408369DBB28B4221BFC36923F437
:100F4000706343EA0121C1612CBF00206FF00200F1
:100F500070478369C3F307238B4221BF436A23F49D
:100F6000706343EA012141622CBF00206FF0020050
:100F7000704700000C4B984210D003F58053984204
:100F80000ED003F58053984214BF4FF0FF3002207B
:100F9000064B53F82000C36923B118470020F7E738
:100FA0000120F5E7704700BF00D00140341A00204F
:100FB0000023C360436182688260026902610A4A59
:100FC000904209D0094B98420BD003F580539842C8
:100FD00014BF4FF0FF330223054A002142F82310CB
:100FE00070470123F8E700BF00D0014000E0014056
:100FF000341A00202DE9F047DFF868A1DFF8689186
:101000005AF8208059F820500746C8B1012819D055
:10101000022840F08D804F4C4F4B53F82760A36857
:1010200013F4FE4F10D0A368A3602369236100234B
:10103000E36020466361FFF719FD6FF008016FE080
:10104000464CE9E7464CE7E7F268424514D9A36805
:10105000990609D5B168A2EB080241442046FFF782
:1010600009FD20238044A360F36872694345E36867
:1010700032D943F02003E3607269AA420CD9A36815
:1010800013F0110F08D03169521B29442046FFF795
:10109000EFFC10230544A360F368434516D1736940
:1010A0009D4248D0A268D20710D50122A2601DBB84
:1010B00072685200B3F5807F42F00102E2628CBF99
:1010C00025622362E36843F01103E3604AF8278056
:1010D00049F82750BDE8F08723F02003E360CBD127
:1010E000002AC9D0236B43F0020323630123A360CA
:1010F000E36843F00103BEE75A1BB2F5807F88BF67
:1011000000229D422262DDD3E36823F01103DCE775
:10111000236B43F002032363A16811F4FE418CD1D9
:101120002046FFF727FF2046BDE8F047FFF740BF06
:1011300000239B68FFDE0023E3606361A368A36074
:1011400023692361B369002BE2D1236B43F00403CD
:10115000E1E700BF00F00140341A002000D0014058
:1011600000E00140281A00201C1A00202DE9F04759
:101170001F460023D0F808803B601646A54B126836
:10118000D0F80090134004460D46002B64D118F4AB
:10119000FE4F08F0400A00F0A4806FF008033B60A7
:1011A00011B13A460421A84707226FF07F4120463B
:1011B000FFF766FC2046FFF761FC2046FFF75CFC6A
:1011C000954A00239442C6E900330AD0934B9C42CF
:1011D00000F0858003F580539C420CBF02234FF042
:1011E000FF338F4A002142F82310336848F220026F
:1011F0001A4203D17368980740F1E48018F0200F79
:1012000000F09580002D40F0CA802023A360236960
:1012100013F0020340F0918018F4004240F09380F4
:10122000BAF1000F18D03A607B4A4023A360944281
:101230004FF00003C6E900330AD0784B9C4200F01F
:10124000E68003F580539C420CBF02234FF0FF332E
:10125000734A002142F8231018F4800F11D01DB1F9
:10126000002211462046A8474FF48003A3600823BC
:10127000A3604FF40043A36047F611710123C6E950
:10128000001318F4000F0ED01DB1002201212046DA
:10129000A8474FF40003A3600823A3604FF6207211
:1012A0000223C6E9002318F0080F00F0C98019F4E2
:1012B000006200F0B7801DB1002201212046A8473E
:1012C0004FF48003A3600823A3604FF40043A3609E
:1012D0004FF62073336002237360BDE8F08701236B
:1012E0007FE7D3060ED518F0100F0FD12369DB0767
:1012F0007FF57BAF1DB1002206212046A8470123C0
:10130000236172E77368D807EDD46EE7002D34D1FE
:101310001023A3602369D907F1D4336848F220026F
:101320001A423FF467AF18F0200F7FF46EAF2369C5
:1013300013F0020362D0002D3BD1022318F4004FBA
:1013400023613FD000233B60334A4FF40043A36046
:1013500094424FF00003C6E9003309D02F4B9C4262
:1013600053D003F580539C420CBF02234FF0FF3350
:101370002B4A002142F8231024E0002202212046BB
:10138000A8471023A3602369DA07B4D4336848F26E
:1013900020021A423FF42EAF18F0200FC7D00022CF
:1013A00003212046A8472023A360236913F00203EA
:1013B00017D0002205212046A847022318F4004F29
:1013C000236107D1BAF1000F3FF446AF00233B6021
:1013D0007DB929E700233B603A4604212046A8470F
:1013E000B2E718F40042F6D1BAF1000F3FF434AF7F
:1013F0003A603A4604212046A84715E718F4004F02
:10140000E0D03B60002D9FD0E6E70123B0E7012349
:101410001EE700BF0800C00000D0014000E001400E
:10142000341A002015B111462046A8474FF4000396
:10143000A3600823A36047F61173336001234BE7D1
:1014400018F4FE4F3FF449AF6FF008033B601DB145
:101450003A4604212046A8476FF07F43A3600F4A15
:10146000072323612046FFF73CFCFFF732FC0023F3
:101470009442C6E9003309D0094B9C420BD003F5D6
:1014800080539C4214BF4FF0FF330223054A0021D2
:1014900042F8231021E70123F8E700BF00D0014004
:1014A00000E00140341A00201FB5154B9842044655
:1014B00009D003F5805398420ED003F5805398422B
:1014C0001CD1022000E0002023689B0706D504B051
:1014D000BDE81040FFF78EBD0120F5E7E36809493C
:1014E0000293636951F82010039302AA01AB2046CE
:1014F000FFF73CFE029BE360039B636104B010BDF9
:1015000000D00140341A002000F002B800F018B8F2
:10151000D0F8003123F00103C0F800310123C0F8F6
:101520000037D0F80031DA03FBD5D0F8003143F0B2
:101530000103C0F80031D0F80031DB03FBD5704760
:10154000D0F8003123F00103C0F8003170470000EB
:101550000146014800F01CB8006000400146014807
:1015600000F02BB800600040014800F03BB800BF1D
:10157000006000400146014800F038B800600040BB
:10158000024A13691B07FCD4704700BF006000408B
:1015900010B511F026040DD0FFF7F2FF036911F02A
:1015A000060F43EA0403036101D1002010BDFFF7D9
:1015B000E7FFFAE76FF00200F8E710B511F0260434
:1015C0000DD0FFF7DDFF036911F0060F23EA0403D6
:1015D000036101D1002010BDFFF7D2FFFAE76FF0E1
:1015E0000200F8E7006900F0D0007047036901F0DD
:1015F000D00123EA01030361002070472DE9F74F72
:101600001C460C9B01936D4B0D9E9DF838909DF8E8
:1016100039809DF83A70984205468B46924600F014
:101620009F8003F58053984227D1042C04DD6FF08E
:10163000020003B0BDE8F08F614B1B68B6EB530F9F
:10164000F5D80E2000F068FD072000F077FC5D481B
:10165000FFF71EF8B9F1000F02D05B48FFF718F84A
:10166000B8F1000F02D05948FFF712F8002F00F030
:1016700098805748FFF70CF893E0564B98424FD0AC
:1016800003F5EC2398422CD003F5806398421ED1D9
:10169000042CCCDC4A4B1B689E42C8D82D2000F09D
:1016A0003BFD312000F04AFC4B48FEF7F1FFB9F159
:1016B000000F02D04948FEF7EBFFB8F1000F02D04F
:1016C0004748FEF7E5FF002F6BD04648D2E7042CD1
:1016D000ADDC3B4B1B68B6EB530FA8D86FF0010095
:1016E000A7E7042CA3DC364B1B689E429FD82B2017
:1016F00000F012FD302000F021FC3B48FEF7C8FF4F
:10170000B9F1000F02D03948FEF7C2FFB8F1000F5F
:1017100002D03748FEF7BCFF002F42D03548A9E77A
:10172000042C84DC264B1B68B6EB530F3FF67FAFCF
:101730000F2000F0F1FC082000F000FC2E48FEF71E
:10174000A7FFB9F1000F02D02C48FEF7A1FFB8F1B6
:10175000000F02D02A48FEF79BFF17B3294889E7FC
:10176000042C3FF764AF164B1B68B6EB530F3FF6E4
:101770005EAF0D2000F0D0FC062000F0DFFB224819
:10178000FEF786FFB9F1000F02D02048FEF780FF78
:10179000B8F1000F02D01E48FEF77AFF002F7FF449
:1017A00046AF019B0C9352462346594628460D9658
:1017B00003B0BDE8F04F00F0B3B800BF00600440D4
:1017C000D0130020481E02103C1E0210301E0210D2
:1017D000241E021000800440B81D0210AC1D02102F
:1017E000A01D0210941D0210E81D0210DC1D021045
:1017F000D01D0210C41D0210181E02100C1E021073
:10180000001E0210F41D02106C1E0210601E021059
:10181000541E021010B5044600F0FAF80F4B9C421B
:1018200004D1062000F06AFB002010BD0C4B9C4246
:1018300001D10720F6E70B4B9C4201D10820F1E7CC
:10184000094B9C4201D13020ECE7084B9C4201D16E
:101850003120E7E76FF00100E7E700BF00600440D8
:10186000007004400080044000E00B4000E40B40A6
:101870001B4B984207D003F58053984203D003F5E1
:101880008053984204D1174B1868400840107047A5
:10189000154B984203D003F5806398421DD14FF059
:1018A00080439B68C3F34223072B16D8DFE803F07D
:1018B0000915130B04060E110C48E7E74FF4E1007D
:1018C000E4E70B48E2E74FF4FA50DFE74FF400405B
:1018D000DCE70848DAE70848D8E76FF0020070470D
:1018E00000600440D013002000E00B40000E2707EA
:1018F000008793030080BB000048E80100F0EAB8CD
:1019000000F020B900F06EB900F075B900F08DB9A3
:1019100000F0ABB900F0EAB900F0ECB900F018BA89
:101920002DE9F0411E46364B069F984204469046EC
:1019300041D003F5805398423FD003F5805398423D
:101940003DD003F5EC2398423BD02E4884420CBF97
:1019500004204FF0FF302C4A282358431518002349
:1019600013500122C5E90323C5E90733AB606FF0CB
:101970000103C5E90533254B62602361636811B338
:1019800043F00203079963602046FFF7B7FFFF2F7C
:1019900033D8E36843EA0743E360236A2362012EF6
:1019A00014D1636843F480336360B8F1000F1FD132
:1019B0000020BDE8F0810020CDE70120CBE7022028
:1019C000C9E70320C7E723F00203DBE7022E03D1B8
:1019D000636843F44033E7E7032E03D1636843F4BD
:1019E000E023E1E7042EE0D1636843F47023DBE7F2
:1019F000E36843F40053E360DAE76FF00200D8E7EE
:101A00000060044000E40B40881A0020010101003E
:101A10002D4B98422DE9F04104464DD003F58053FB
:101A200098424BD003F58053984249D003F5EC23FC
:101A3000984247D0254DA8420CBF04254FF0FF35F2
:101A400000236362236A23626368214E23F001034B
:101A5000282763606F43E36956F8078023F040133B
:101A6000E361F019B8F1000F08D000F041FAF35922
:101A70005B6A1BB16FF00E0140469847002363601C
:101A8000A360E3602361282404FB05646069984235
:101A900004DBFEF789FC6FF001036361282303FB7D
:101AA0000566B069002804DBFEF77EFC6FF00103D9
:101AB000B3610020BDE8F0810025C1E70125BFE743
:101AC0000225BDE70325BBE70060044000E40B40AE
:101AD000881A002038B51A4B1B68B1EB530F044627
:101AE0000D462AD8FFF7C4FEB0FBF5F14B08CA0734
:101AF0004CBF5A1C1A4600210F2A08DD082902D1C2
:101B00000F231A4605E052105B100131F4E7082953
:101B1000F6D06069DBB220F0FF00034363616369C4
:101B200023F47F4343EA02236361636923F4702350
:101B300043EA01436361002038BD6FF00200FBE718
:101B4000D0130020012910B542D0102940DC234BCE
:101B5000984235D003F58053984233D003F5805333
:101B6000984231D003F5EC2398422FD003F58063DF
:101B700098420CBF04234FF0FF33026BD2072AD4E4
:101B8000174A282404FB0323DA68012A23D1426878
:101B900022F00102426010299960C3681FBF090248
:101BA00001F4706123F4706319430ABF23F4706376
:101BB000C160C360436843F001034360002010BD6F
:101BC0000023DAE70123D8E70223D6E70323D4E78B
:101BD0006FF00200F3E76FF00600F0E700600440EA
:101BE000881A0020C36813F4706F1ABFC068C0F36E
:101BF000032010207047C36823F43043C3600329D7
:101C000007D8DFE801F002080A0EC36843F4004376
:101C1000C36000207047C368FAE7C36843F4805389
:101C2000F6E7C36843F40053F2E703290BD8DFE873
:101C300001F0020C1418C36823F00103C360C368E9
:101C400023F00203C36000207047C36823F0010340
:101C5000C360C36843F00203F4E7C36843F00103C1
:101C6000ECE7C36843F00103F2E7F8B50646174610
:101C70000D4689B182B1FFF74DFE04463046FFF7AD
:101C800041FEA7423B4628BF23460828014605D906
:101C900023F00103012B03D800201AE0002BFBD016
:101CA000032B0CD92A460020043B34681460012B16
:101CB00000F1040013D108290BD805440BE0012BD7
:101CC00008D02A46002034881480032B00F102003B
:101CD000F1D0F8BD002033782B700130F9E7002BEC
:101CE000F7D0032B05EB0002DED8ECE7C069C0F3A8
:101CF00005607047F8B5074614460E4631B31AB36F
:101D0000FFF70CFE05463846FFF7FCFDA54228BF4D
:101D10002546082888BF25F001050024A5B1032D1C
:101D200007D8012D0AD10828FDD8335D3B70013456
:101D30000AE032593A60043D0434EFE7325B3A80FE
:101D4000022D04F10204EED12046F8BD0C46FBE75B
:101D5000C069C0F30520C0F12000704738B54FF0CE
:101D6000E02318499C691A6922F480320A601A69D2
:101D7000D2075BBF6FF07F4405225D695C615CBF89
:101D80009C611A61104B114A19684FF00003A0FBC7
:101D9000010154BF4FF08075013512F037FB0C4B39
:101DA000B0FBF5F205FB120084421A609FBF1A686F
:101DB00001321A602D19074B94BF281A201A186097
:101DC00038BD00BF541B0020D013002040420F003C
:101DD00004000020581B002010B50B4A0B4C11606A
:101DE0002268002A0DDC50B1FFF7B8FF2368002BF2
:101DF000C1BF4FF0E022136943F0020313610020DA
:101E000010BD6FF00500FBE7501B00200400002010
:101E100010B5094C236823B16FF00F0098470023D9
:101E20002360064B1A684FF0E0231A61044B4FF011
:101E3000FF321A6010BD00BF501B0020541B002051
:101E4000040000204FF0E02310B51B69DB0306D52A
:101E5000094B1A68002A03DD1A68013A1A6010BD9E
:101E6000064CFFF7D5FF2368002BF8D000209847D9
:101E700000232360F3E700BF04000020501B002074
:101E800010B5124C2268002A1CDC78B1FFF766FFFF
:101E90004FF0E0222368002B0ADC0D4B1A684FF04C
:101EA000E023996991420BD8FFF7B2FF002010BDE3
:101EB0001369DB0342BF236803F1FF332360E9E7C3
:101EC0009969EEE76FF00500F1E700BF040000201C
:101ED000581B0020034653E8002F32B943E8001096
:101EE0000028F8D1BFF35F8F70476FF0050070478F
:101EF000BFF35F8F00230360704700003F2808D9BD
:101F00000D4A4038D168C0B2012383400B43D360EF
:101F100070471F284FF0804207D92038916CC0B21B
:101F2000012383400B4393647047516A012383402C
:101F30000B435362704700BF000008403F2809D997
:101F40000E494038CB68C0B20122824023EA020326
:101F5000CB6070471F284FF0804308D920389A6C17
:101F6000C0B20121814022EA01029A6470475A6A94
:101F70000121814022EA01025A62704700000840B4
:101F800010B5002104464FF47A70FFF725FF4FF09B
:101F9000804293682342FCD0002010BD07283DD822
:101FA000DFE800F0173C2623040E33204FF0804278
:101FB0004FF00060936843F400239360FFF7E0BFA5
:101FC0004FF080424FF08050936843F48013936049
:101FD000F4E74FF080424FF08060936843F4802331
:101FE0009360EBE70F48FEF753BB4FF00050E5E777
:101FF0004FF080434FF080705A6F42F011025A67E1
:102000009A6842F480329A60D8E74FF080424FF0ED
:102010000070936843F400339360CFE76FF00200E1
:10202000704700BFA41F021038B54FF08044A56868
:1020300007286DD8DFE800F0136C4755041F5B2DAF
:10204000A368180302D40420FFF7A8FF4FF08042D2
:10205000936823F4606343F40063936020E0A06816
:1020600010F4802001D1FFF799FF4FF08042936870
:1020700023F46063F1E7A368D90202D40520FFF7D7
:102080008DFF4FF08042936823F4606343F4206334
:10209000E3E70720FFF782FFA36843F46063A360D0
:1020A0004FF40050FFF76CFF044670B34FF08042CE
:1020B00005F46065936823F460632B4393606FF0CD
:1020C0000904204638BDA368DA0302D40220FFF7D2
:1020D00065FF4FF08042936823F4606343F48063AC
:1020E000BBE7A36823F4606343F4C063D7E7A36846
:1020F0009B0302D40620FFF751FF4FF08042936804
:1021000023F4606343F44063A7E7FEF7D9F8D8E708
:102110006FF00204D5E700003F284FF0010307D914
:102120000C4A40388340936091680B42FCD1704761
:102130001F284FF0804206D9203883405364516CE9
:102140000B42FCD170478340536051680B42FCD175
:10215000704700BF000008402DE9F041044690465A
:102160000E46002900F0D5806D4B98421FD003F534
:10217000805398421DD003F5805398421BD003F53D
:102180008053984219D003F5DB2303F5806398420E
:1021900015D0644DA8420CBF0525FF25F378013BFF
:1021A000052B62D8DFE803F05B0D2E1F3A4F0025A8
:1021B000F4E70125F2E70225F0E70325EEE7042521
:1021C000ECE7032D00F2A9800020FFF7E7FE564957
:1021D000204600F003F90127052D5ED8DFE805F061
:1021E0004D6473822991032D4FF005008CBF0027A9
:1021F0000127FFF7D3FE4FF4E10120467F0000F0F6
:10220000EDF8E9E7032D00F288800220FFF7C6FE13
:102210004649204600F0E2F80327DDE7042D7CD193
:102220000620FFF7BBFE4FF40041204600F0D6F831
:1022300001273F48FEF72CFA4220FFF76DFF4220AE
:10224000FFF77CFE29E0032D67D90320FFF7A6FEE8
:102250004FF4FA51204600F0C1F80227BCE7022DE6
:102260005BD80720FFF79AFED6E7324B1968204665
:10227000490800F0B3F80027AEE70520FFF74CFF50
:102280000F20FFF75BFEB8F1000F06D0B378022BEA
:1022900014BF29482948FEF7FBF93A463146204643
:1022A000BDE8F04100F00CB90620FFF735FF102023
:1022B000FFF744FEB8F1000FEFD0B378022B14BF44
:1022C0001F482048E7E70720FFF726FF1120FFF708
:1022D00035FEB8F1000FE0D0B378022B14BF1A48D6
:1022E0001A48D8E70820FFF717FF1220FFF726FE4D
:1022F000B8F1000FD1D0B378022B14BF14481548A1
:10230000C9E71548FEF7C4F94320FFF705FF43204E
:1023100096E74FF0FF30BDE8F0816FF01000FAE76C
:102320000000014000100840008793030048E801C6
:10233000841E0210D0130020E41E0210D81E0210CA
:10234000CC1E0210C01E0210B41E0210A81E0210E5
:102350009C1E0210901E0210781E021010B504463A
:1023600000F0E4F8104B9C4204D10F20BDE810406F
:10237000FFF7C4BD0D4B9C4201D11020F6E70C4B7A
:102380009C4201D11120F1E70A4B9C4201D112205D
:10239000ECE7094B9C4201D14220E7E7074B9C4206
:1023A00001D14320E2E710BD0000014000100140D0
:1023B0000020014000300140000C0840001008409F
:1023C00000F0E8B800F0EEB800F0F1B800F0F2B8B4
:1023D00000F0F5B800F0F8B800F0FBB8164B9842E2
:1023E00020D003F5805398421ED003F580539842C5
:1023F0001CD003F5805398421AD003F5DB2303F574
:102400008063984216D003F58063984214BF4FF062
:10241000FF300520094B012203F8302003EBC003F5
:10242000596070470020F5E70120F3E70220F1E74B
:102430000320EFE70420EDE7000001405C1B0020D3
:1024400030B500293BD08C780569A21E5342534118
:102450001B014FF480429A402A43026108229A40AD
:1024600085691542FCD04A7805699A402A43026181
:102470008A68056912029A402A43026101229A4041
:1024800002604FF480729A40C5681542FCD04A68D9
:102490009A40426082694FF4005101FA03F322EA44
:1024A0000303022C83610AD1836943F08073836143
:1024B000036943F00043036183695B03FCD530BDCE
:1024C00070B500292FD08B78022B1DD013F0030498
:1024D0001CD00024856925F000458561C56845F05C
:1024E0000115C5600D780669A5403543056185690C
:1024F000A2402A4382614A78072A0DD8DFE802F019
:102500000A0A0E0E0E0A0E0E1024E3E7856945F046
:102510000045E2E7FFF794FF002070BD022BF9D1E0
:102520006FF01000F9E74FF0FF30F6E7174B9842D5
:1025300022D003F58053984220D003F5805398426F
:102540001ED003F5805398421CD003F5DB2303F51E
:102550008063984218D003F5806398420CBF05232E
:102560004FF0FF3300220261826912F00802FBD1B2
:10257000074901F8332070470023F3E70123F1E70F
:102580000223EFE70323EDE70423EBE7000001401C
:102590005C1B0020036943F40043036183695B070C
:1025A000FCD57047036923F4004303617047036857
:1025B00000687047C36843F00113C36070478369C4
:1025C00043F0012383617047836923F00123836112
:1025D00070470160C368DB05FCD5704710B5044641
:1025E000204600F0B9F90028FAD02046BDE8104096
:1025F00000F0A6B900F02EBD00F096BD08B5134B53
:10260000984207D10B20FFF787FD0920FFF776FCE2
:10261000002008BD0E4B984204D10C20FFF77CFD32
:102620000A20F3E70B4B984204D11C20FFF774FDFE
:102630002120EBE7084B984204D14420FFF76CFDC2
:102640004420E3E76FF00200E3E700BF002004400E
:1026500000300440004004400014084070B50446B7
:102660000E461546FFF7CAFFB0BB032D18D0042D48
:1026700003D0022D04D1052000E00620FFF78EFCD8
:10268000164B9C420ED11648FEF702F80920FFF7C0
:1026900055FC2A4631462046BDE8704000F078B926
:1026A0000220EBE70F4B9C4204D10F48FDF7F0FFEF
:1026B0000A20ECE70D4B9C4204D10D48FDF7E8FFE2
:1026C0002120E4E70B4B9C4204D10B48FDF7E0FFCF
:1026D0004420DCE76FF0020070BD00BF0020044022
:1026E000741F021000300440501F021000400440CC
:1026F0002C1F021000140840081F02101E4B9842A5
:102700001BD003F58053984217D003F580539842AD
:1027100013D003F5753398422BD1186800F440307C
:10272000B0F5803F05D01A6812F4403F21D14FF434
:10273000E1001B69B0FBF3F07047036803F440331A
:10274000B3F5803F13D0036813F4403F06D10B4B21
:102750001B685B080069B3FBF0F07047036803F483
:102760004033B3F5003F04D14FF4E103F2E7044BEB
:10277000F0E76FF00200704700200440D013002003
:102780000048E8013F4B984210B504464ED003F58F
:10279000805398424AD003F58053984246D03A4835
:1027A000844206D10523022A636105D0042A11D090
:1027B00012B16FF0020010BD4FF4E103B3FBF1F36F
:1027C00001FB03F2C2F5E10213B1B2EB510F0FD9D5
:1027D00001330DE0236843F4803323602368B1F5AF
:1027E000165F43F40013236010D1002363610723B5
:1027F00003612548FFF782FF0028DCDD236843F4EE
:102800000043236023681B03FCD5D4E7B1F5166FA2
:102810000AD9002363614FF48033B3FBF1F301FB6A
:1028200003F2C2F58032CFE70123F3E70523022A42
:1028300063611AD0032A12D0002ABAD12368236018
:10284000124B1B685B08B3FBF1F201FB123312B1B0
:10285000B3EB510F00D9013222612046CAE7236849
:1028600043F4803323600A4BEDE7236843F40033DD
:1028700023604FF4E102B2FBF1F201FB02F3C3F576
:10288000E103E4E70020044000140840D0130020D6
:102890000048E80100F0B0B800F0CEB800F0EEB8A3
:1028A000012970B51A4B04460D4616461AD19842B6
:1028B00009D11848FDF7ECFE324629462046BDE80E
:1028C000704000F025B9144B984201D11348F1E74C
:1028D000134B984201D11348ECE7134B984214D1A3
:1028E0001248E7E7984201D11148E3E70A4B9842C2
:1028F00001D11048DEE70A4B984201D10E48D9E7D2
:10290000094B984201D10D48D4E76FF0020070BD29
:1029100000200440681F021000300440441F0210D1
:1029200000400440201F021000140840FC1E02104A
:102930005C1F0210381F0210141F0210F01E02103C
:1029400000F008B900F022B9FFF748BE00F03CB92A
:1029500000F068B900F094B900F09FB900F0A1B997
:1029600000F0ACB900F0B0B900F0CCB900F0E8B9B3
:1029700000F0EAB900F0EAB900F000BA00F018BAC5
:1029800000F030BA00F030BA00F0EABB00F008BC4A
:10299000184B984270B504460D4616460BD003F509
:1029A0008053984207D003F58053984203D003F533
:1029B000753398421BD101212046FFF7D5FFA8B9F6
:1029C00008212046FFF766FF80B901462046FFF741
:1029D00065FF58B901462046FFF75EFF30B9324621
:1029E00029462046FFF7CEFE00EAE07070BD6FF08A
:1029F0000200FBE7002004400E4B98420BD003F589
:102A00008053984207D003F58053984203D003F5D2
:102A1000753398420AD10539032907D8036823F48E
:102A2000406343EA81230360002070476FF0020097
:102A3000704700BF002004400F4B98420BD003F5B5
:102A40008053984207D003F58053984203D003F592
:102A50007533984202D121B1012908D06FF00200EC
:102A60007047036823F480530360002070470368B5
:102A700043F48053F8E700BF00200440234B984202
:102A80000BD003F58053984207D003F5805398424A
:102A900003D003F57533984234D1042932D8DFE8E6
:102AA00001F0030915212900036823F010030360D6
:102AB00000207047036843F010030360036823F0AD
:102AC00020030360036823F04003F0E7036843F04A
:102AD00010030360036823F020030360036843F0DE
:102AE0004003E4E7036843F010030360036843F026
:102AF0002003E6E7036843F010030360036843F034
:102B00002003EAE76FF00200704700BF0020044096
:102B10000F4B98420BD003F58053984207D003F532
:102B20008053984203D003F57533984202D121B106
:102B3000012908D06FF002007047036823F40053A6
:102B4000036000207047036843F40053F8E700BFB8
:102B5000002004400C4B98420BD003F58053984260
:102B600007D003F58053984203D003F5753398429C
:102B700004D14368DB0604D4006A70476FF002009A
:102B800070476FF00C007047002004400D4B9842D6
:102B900002460BD003F58053984207D003F58053CB
:102BA000984203D003F57533984205D1506810F070
:102BB000800004D1116270476FF0020070476FF01F
:102BC0000B00704700200440F8B5154B98420446AE
:102BD0000F4615460BD003F58053984207D003F5F6
:102BE0008053984203D003F57533984212D1A7B1B0
:102BF0009DB100262B68B34202DC2E60002005E068
:102C00002046FFF7A1FE002801DA2E60F8BDB85576
:102C10000136EFE76FF00200F8E74FF0FF30F5E71D
:102C200000200440F8B5154B984204460F4615465F
:102C30000BD003F58053984207D003F58053984298
:102C400003D003F57533984211D19FB195B1002699
:102C50002B68B34202DC2E60002005E0B95D2046FF
:102C6000FFF770FE08B12E60F8BD0136F0E76FF097
:102C70000200F9E74FF0FF30F6E700BF0020044004
:102C800010B503460020904200D110BD5C68E406F8
:102C9000FBD41C6A0C540130F5E74068C0F30320F4
:102CA000704710B503460020904200D110BD5C680B
:102CB0002406FBD40C5C1C620130F5E74068C0F3CD
:102CC0000330C0F1080070470D4B98420BD003F55C
:102CD0008053984207D003F58053984203D003F500
:102CE0007533984209D1036843F480730360036825
:102CF00013F48073FBD1184670476FF002007047E1
:102D0000002004400D4B98420BD003F580539842AD
:102D100007D003F58053984203D003F575339842EA
:102D200009D14B1E072B06D8036823F00F03194364
:102D30000160002070476FF00200704700200440DF
:102D4000006800F00F007047C06870470A4B984257
:102D50000BD003F58053984207D003F58053984277
:102D600003D003F57533984202D1C160002070474B
:102D70006FF00200704700BF002004400B4B9842E8
:102D80000BD003F58053984207D003F58053984247
:102D900003D003F57533984204D1836819438160E9
:102DA000002070476FF00200704700BF0020044011
:102DB0000B4B98420BD003F58053984207D003F594
:102DC0008053984203D003F57533984205D1836848
:102DD00023EA01018160002070476FF00200704714
:102DE0000020044040687047F8B5694B044600680D
:102DF00098426CD003F5805398426AD003F5805313
:102E0000984268D003F57533984240F0BE800325A0
:102E1000604F614E57F8252056F82530002A5CD1C6
:102E2000002B60D14FF0FF31FFF7A8FD20684FF075
:102E3000FF31FFF79FFD0023C4E90533E368002B52
:102E400041D06368002B68D040212068FFF794FDD3
:102E50002068FFF785FD6169E3685A1A636882425A
:102E600028BF024619442068FFF778FD63690344D0
:102E700063612068FFF774FD03280FD96269E36876
:102E80009A420BD1454B5B5701215A0903F01F03AE
:102E9000994002F14003424A42F8231023683C4A19
:102EA000934226D002F58052934224D002F58052FC
:102EB000934222D002F57532934214BF4FF0FF3394
:102EC000032347F823402369CBB90020F8BD002530
:102ED0009EE701259CE702259AE743B1236933B1B8
:102EE0006FF00500F2E72369002BA4D0F8E7E36850
:102EF000FAE70023E5E70123E3E70223E1E720689F
:102F00000B21FFF739FDA36853B920684FF0FF315B
:102F1000FFF734FD2068FFF725FD6FF00200D5E7CD
:102F200010212068FFF728FD2068FFF715FDA16933
:102F30002369A5685A1A824228BF0246294420689C
:102F4000FFF708FDA3690344A36120681021FFF780
:102F500011FD23680E4A934211D002F5805293422C
:102F60000FD002F5805293420DD002F57532934294
:102F700014BF4FF0FF33032346F82340A5E7002397
:102F8000FAE70123F8E70223F6E76FF003009DE775
:102F9000002004409C1B00208C1B0020B01F02104E
:102FA00000E100E038B5134B984214D003F580538C
:102FB000984212D003F58053984210D003F5753330
:102FC000984213D103230C4C54F8230008B1C26972
:102FD0003AB9002038BD0023F5E70123F3E70223C7
:102FE000F1E7002544F823509047F2E76FF0020024
:102FF000F0E700BF002004409C1B002038B5134BB5
:10300000984214D003F58053984212D003F58053B0
:10301000984210D003F57533984213D103230C4C1A
:1030200054F8230008B1C2693AB9002038BD002322
:10303000F5E70123F3E70223F1E7002544F82350E5
:103040009047F2E76FF00200F0E700BF0020044075
:103050008C1B0020174B984270B504460E461AD0C0
:1030600003F58053984218D003F58053984216D048
:1030700003F57533984219D1032531462046FFF7F1
:1030800091FF0D4B53F825200C4B53F825309A42F5
:1030900007D1002070BD0025EFE70125EDE70225EF
:1030A000EBE731462046FFF7A9FFF2E76FF0020099
:1030B000F0E700BF002004408C1B00209C1B002078
:1030C00008B50B4B98420BD003F58053984207D0BC
:1030D00003F58053984203D003F57533984204D129
:1030E0004021FFF74BFC002008BD6FF00200FBE71A
:1030F0000020044008B50B4B98420BD003F58053D9
:10310000984207D003F58053984203D003F57533F6
:10311000984204D10B21FFF731FC002008BD6FF06D
:103120000200FBE70020044008B50C4B98420BD08E
:1031300003F58053984207D003F58053984203D09B
:1031400003F57533984205D14FF0FF31FFF716FCB8
:10315000002008BD6FF00200FBE700BF0020044024
:103160000E4B984210B504460BD003F5805398429D
:1031700007D003F58053984203D003F57533984286
:1031800009D12046FFF738FA6FF00F012046FFF70C
:1031900031FA002010BD6FF00200FBE70020044070
:1031A0002DE9F843644B984205461FD003F5805340
:1031B00098421DD003F5805398421BD003F5753318
:1031C000984210D103265D4F2846FFF7D1FB57F8F0
:1031D0002640814684B95A4B53F82630D3B9E96862
:1031E0002846FFF7C7FB6FF0030062E00026EAE71E
:1031F0000126E8E70226E6E7AB68034013F00B0F71
:1032000059D02846FFF7F8F96FF008012846FFF774
:10321000F1F9E8E7AB68034013F00B0FF1D1DFF8E9
:10322000208158F82640002C68D019F0100F23692F
:103230005ED0002B5CD02068FFF78EFB2169A3696C
:10324000CB1A8342024638BFA269A368206838BF00
:103250008A1AA1691944FFF77DFBA3690344A3619E
:10326000A26923692068A3EB0209FFF77FFB814570
:1032700005D2A36921692068C91AFFF775FB206888
:103280001021FFF777FB58F8262057F826309A428E
:1032900044D1A26923699A420AD16269E3689A42D9
:1032A00006D12846FFF7A8F900212846FFF7A2F922
:1032B0000020BDE8F883E368002BB0D02068FFF75A
:1032C0004FFBE1686369CB1A8342024638BF6269EB
:1032D0006368206838BF8A1A61691944FFF73EFBAA
:1032E00063690344636120684021FFF743FB96E76D
:1032F00057F826309C42CCD0224611E057F82630B1
:10330000002BD5D05A69DB689A42D1D12846FFF705
:10331000D7FE00212846FFF745FEC9E7002AEFD077
:10332000916912699142EBD12846FFF7E3FE002133
:103330002846FFF763FEBBE7002004409C1B0020EB
:103340008C1B00201FB5034608461B685B7B002BC7
:10335000064B18BF0023039303AB009301231146D0
:103360001A4604F0D5FA05B05DF804FB000080FFB2
:103370001FB50346084611461A681369127D12B13B
:103380004FF47A72534302931723039302AB0093D3
:103390000B22012304F0BCFA05B05DF804FB7FB5F5
:1033A00003AE0C46154619780068324600F041F924
:1033B00030B9012300961A462946204604F0A8FA9F
:1033C00004B070BD70B506460D46012008210EF010
:1033D000CEFE044668B1294600F07AF9054620B1D0
:1033E00020460EF0C6FE284670BD034B6360346075
:1033F000F9E76FF00B05F6E708000020F7B50B467C
:103400000021116014468268D55CDB0006466F1C03
:1034100003F0380343F040033A460DF101008DF804
:10342000003011F0EFFD30683A46694600F004FCC8
:1034300080B90123AB4201D903B0F0BD03F108020A
:103440006A44216812F8082C013342EA0122226002
:10345000DBB2EFE74FF0FF30EEE737B583685C5C37
:10346000C90001F038018DF804100123A3420AD9E4
:10347000621C01A9006800F0DFFB003818BF0120C2
:10348000404203B030BD03F108010DEB0105E11A24
:10349000C90022FA01F1013305F8041CDBB2E5E7AB
:1034A00007B504224FF0FF330DEB020100680193D2
:1034B00000F0C2FB03B05DF804FB37B500230C46F7
:1034C00001AA012105460193FFF798FF78B9019AF7
:1034D000640322F46042A4B2224301212846FFF78C
:1034E000BCFF003818BF0120404203B030BD4FF090
:1034F000FF30FAE737B500230C4601AA0221054642
:103500000193FFF77BFF60B9019A04F0070422F0F2
:10351000070222430221284603B0BDE83040FFF7EE
:103520009CBF4FF0FF3003B030BD70B5037D06691E
:10353000154613B14FF47A735E438368DA78437BA0
:10354000D20001244BB104FA02F20023A1FB0601D0
:1035500010F05CFF2860002070BD013A94408C425E
:1035600004F1FF3201D8091BF0E7611AA1FB060143
:1035700010F04CFF4042EDE737B500230C4601AA9E
:10358000022105460193FFF739FF68B9019A240229
:1035900004F4E06422F4E06222430221284603B0EE
:1035A000BDE83040FFF759BF4FF0FF3003B030BDEA
:1035B00013B500230C4601AA02210193FFF71EFF59
:1035C00028B9019BC3F30223237002B010BD4FF052
:1035D000FF30FAE737B500230C4601AA0221054661
:1035E0000193FFF70BFF68B9019A240304F4805498
:1035F00022F4805222430221284603B0BDE8304025
:10360000FFF72BBF4FF0FF3003B030BD37B5054695
:103610004FF6FF7401AA00212846FFF7EFFE20B9FC
:10362000019B1B0603D5013CF4D14FF0FF3003B0E2
:1036300030BD38B504461546FFF75CFF10B14FF0BA
:10364000FF3038BD01212046FFF737FF0028F6D1B3
:103650002046FFF7DBFF0028F1D12A460321204650
:10366000FFF7CCFE003818BF01204042E9E7F7B56C
:10367000037D07690446164613B14FF47A735F431E
:1036800001AA2046FFF7D5FF054670B9A368019946
:10369000DA78637BD200012453B104FA02F22B469C
:1036A000A1FB070110F0B2FE3060284603B0F0BD68
:1036B000013A94408C4204F1FF3201D8091BEEE735
:1036C000611A0346A1FB070110F0A0FE4042EBE7A0
:1036D00073B5002306460D460120182101930EF014
:1036E00046FD044690B12B7E0371AA7E42736A7E2A
:1036F0000273EA69026195F82020027503F0FD0269
:10370000092A07D0082B0ED00EF033FD4FF0FF3002
:1037100002B070BD214BA3602946204600F02CFA70
:1037200018B12046F0E71E4BF5E72046FFF7B8FE3C
:103730000028EBD101AA04212046FFF75FFE0028F4
:10374000E4D12379092B13D00B2B08D0082B04D1FB
:10375000019B03F00F03082B11D0124805E0019BD9
:1037600003F00F030B2B0AD00F4811F0B1FCCDE78B
:10377000019B03F00F03092B01D00C48F5E7217BD7
:103780002046FFF7F9FE0028C0D1617B2046FFF7F5
:1037900021FF0028BAD13460BAE700BF0A20021026
:1037A00012200210DC1F0210C51F0210F31F0210AE
:1037B00038B50546084614460FF0AFF8C1B22846A2
:1037C000FFF7DAFE002808BF204638BD37B50C46A3
:1037D0000DF107011546FFF7EBFE30B99DF80730F4
:1037E000034A2946204611F0F5FD03B030BD00BF65
:1037F000A522021037B50C461546197801AAFFF725
:1038000018FF28B9019B034A2946204611F0E2FD22
:1038100003B030BDA522021038B505460C4649B1AB
:10382000CB683BB11B6843B1984710B92B68E2687D
:10383000DA6038BD6FF01500FBE76FF05700F8E76E
:1038400038B505460C4611B14B68013303D100234E
:103850002B60002038BDCB6843B15B684BB1984703
:103860000028F7D12B68E268DA60F2E76FF0150004
:10387000F0E76FF05700EDE720B1C3681BB19B681C
:1038800023B1184770476FF0150070476FF057006D
:10389000704720B1C3681BB1DB6823B1184770477C
:1038A0006FF0150070476FF05700704720B1C36884
:1038B0001BB11B6923B1184770476FF015007047A3
:1038C0006FF05700704720B1C3681BB19B6923B1EB
:1038D000184770476FF0150070476FF0570070473A
:1038E00038B51821054601200EF041FC044678B198
:1038F0000EF0EAFF002020716A682B68E260EA6837
:1039000022612A696261044AA36042F8234038BDFB
:103910006FF00B00FBE700BFAC1B002070B5054645
:103920000C4629B3CB681BB31B68F3B10B68042B9F
:103930001ED8114E56F8233033B1E36821461B6878
:103940002846984730B170BD0846FFF7C9FF0028E8
:10395000F3D0F8E72368296856F823300B601A790A
:1039600001321A71E3680B61EDE76FF05700EAE787
:103970006FF01500E7E700BFAC1B002010B5094B46
:1039800053F8204023793BB920680EF0A0FF204671
:10399000BDE810400EF0EDBB013BDBB22371002B04
:1039A000F2D010BDAC1B0020036810B50446986827
:1039B000FFF7E4FF23692BB1DB6833B12046BDE894
:1039C000104018476FF0150010BD6FF05700FBE76F
:1039D0002DE9F0410D4616461F460446B8B103696D
:1039E000ABB15B68B3B1036818680EF06EFF236972
:1039F0002946D3F8048032463B462046C047236818
:103A0000054618680EF062FF2846BDE8F0816FF0A9
:103A10001505F9E76FF05705F6E72DE9F0410D467A
:103A200016461F460446B8B10369ABB19B68B3B1F3
:103A3000036818680EF049FF23692946D3F8088007
:103A400032463B462046C0472368054618680EF0BC
:103A50003DFF2846BDE8F0816FF01505F9E76FF0EE
:103A60005705F6E738B505460C4649B14B683BB1FA
:103A70001B6843B1984710B92B6862685A6038BD1B
:103A80006FF01500FBE76FF05700F8E720B14368CF
:103A900013B15B6A1BB118476FF0150070476FF0E8
:103AA0005700704720B1436813B15B681BB11847DA
:103AB0006FF0150070476FF05700704720B14368F2
:103AC00013B19B681BB118476FF0150070476FF07A
:103AD0005700704720B1436813B15B691BB11847A9
:103AE0006FF0150070476FF05700704720B14368C2
:103AF00013B19B691BB118476FF0150070476FF049
:103B00005700704720B1436813B1DB691BB11847F8
:103B10006FF0150070476FF05700704720B1436891
:103B200013B11B6A1BB118476FF0150070476FF097
:103B30005700704738B51C21054601200EF017FBD1
:103B4000044698B10EF0C0FE002020712B686A6810
:103B5000A360E2606A7A2274AA7A6274EA68626197
:103B60002A69A261034A42F8234038BD6FF00B0076
:103B7000FBE700BFC01B002070B505460C4639B3FB
:103B8000CB682BB31B6803B30B68082B20D8124EED
:103B900056F8233033B1E36821461B68284698471E
:103BA00030B170BD0846FFF7C5FF0028F3D0F8E735
:103BB00022682B6856F822201A60117901311171A0
:103BC000E2681A6162699A61EBE76FF05700E8E713
:103BD0006FF01500E5E700BFC01B002070B50B4E6D
:103BE00056F82040237905464BB920680EF06FFE49
:103BF00020460EF0BEFA002346F8253070BD013B8A
:103C0000DBB22371002BF9D1EFE700BFC01B00200E
:103C1000036810B504469868FFF7E0FF23692BB1ED
:103C2000DB6833B12046BDE8104018476FF015003F
:103C300010BD6FF05700FBE770B50D461646044601
:103C4000A0B1036993B15B689BB1036818680EF07B
:103C50003CFE236929465B68324620469847236824
:103C6000054618680EF032FE284670BD6FF0150547
:103C7000FAE76FF05705F7E72DE9F0410D4690465A
:103C8000074638B303692BB39E681EB13346BDE8BF
:103C9000F0411847036818680EF017FE3446464591
:103CA00006D13B6818680EF011FE2046BDE8F08191
:103CB000D5E9003199420AD149B12A893846FFF73E
:103CC000BBFF041E05F11C05EBDB0136E7E76FF0D7
:103CD0001504E6E76FF01504E7E70000F8B50646BF
:103CE0000D46B1B1CB68A3B11B68ABB19847044690
:103CF00068B9336828880A4FEA681A6107EB8000C0
:103D00000EF0E2FD2A88336857F822201A60204618
:103D1000F8BD6FF01504FAE76FF05704F7E700BF3E
:103D2000E41B002010B5044688B103697BB11B6A0F
:103D300083B100680EF0CBFDA288084B002143F848
:103D40002210236920461B6ABDE8104018476FF017
:103D5000150010BD6FF05700FBE700BFE41B00200B
:103D600020B1036913B15B681BB118476FF01500F0
:103D700070476FF05700704728B103691BB111B14C
:103D8000DB681BB118476FF0150070476FF05700E4
:103D900070470000F8B506460D46C9B14B69BBB186
:103DA0000A780A2A14D81B68ABB19847044668B948
:103DB00033686A695A612878084F07EB80000EF073
:103DC00083FD2A78336857F822201A602046F8BD10
:103DD0006FF01504FAE76FF05704F7E7F81B0020BF
:103DE00010B5044688B143697BB15B6983B1006853
:103DF0000EF06DFD2279084B002143F82210636913
:103E000020465B69BDE8104018476FF0150010BDF3
:103E10006FF05700FBE700BFF81B002070B50D46A0
:103E20001646044698B143698BB181B15B688BB18A
:103E300000680EF04AFD636929465B6832462046F9
:103E40009847054620680EF041FD284670BD6FF08A
:103E50001505FAE76FF05705F7E770B50D461646FA
:103E6000044698B143698BB181B19B688BB10068FE
:103E70000EF02BFD636929469B6832462046984721
:103E8000054620680EF022FD284670BD6FF015052E
:103E9000FAE76FF05705F7E7F0B589B004460D462D
:103EA00017460021182202A811F0ACF804F10E0602
:103EB0000623C5F30C0503933146012345F4204046
:103EC0008DF8103001960EF035FD94F80C3633B3B2
:103ED00000231448022231460EF08DFA039B207411
:103EE00001330393032505F10E0626443146384677
:103EF0000EF028FD94F80C3653B100230948042233
:103F000031460EF078FA039B25440133A8740393DD
:103F10006068012201A9FFF7AFFE09B0F0BD0225DC
:103F2000E1E700BF241C00202DE9F041044688B0E1
:103F3000904610220F460DEB0200002104F10E0501
:103F400011F060F804260123384629468DF8103018
:103F5000CDE9015503960EF0EDFCA37B63F07F03E2
:103F6000A37394F80C36002727741BB3039B1948DE
:103F70000133039302223B4629460EF03CFA677454
:103F80002074039B60683344012201A90393FFF767
:103F900073FE054650B994F80C3606F10E07274417
:103FA00053B938460EF0D6FCC8F80000284608B0D1
:103FB000BDE8F0810326E4E70346042205483946BC
:103FC00034440EF018FAA37C8342EAD06FF0150552
:103FD000ECE700BF241C0020F7B5174601AA0546F0
:103FE0000E461C46FFF7A0FF58B9019B5C4004EA4F
:103FF00007025A403146284603B0BDE8F040FFF7BB
:104000004BBF03B0F0BD2DE9F34105460F464FF01D
:1040100040500021164698460EF064FC00210446EC
:104020004FF040600EF05EFC394604434FF078706C
:104030000EF058FC314604434FF4F8100EF052FCD9
:10404000414604434FF6FF700EF04CFC202144EA39
:1040500000022846FFF720FF0446002841D1014610
:104060004FF040500EF03EFC012104464FF04060FE
:104070000EF038FC394604434FF078700EF032FCF5
:10408000314604434FF4F8100EF02CFCBDF820101C
:1040900004434FF6FF700EF025FC212144EA000294
:1040A0002846FFF7F9FE0446D8B901AA2021284680
:1040B000FFF73AFF0446A0B901994FF000400EF017
:1040C00019FC0028F1D001AA21212846FFF72CFF76
:1040D000044630B901994FF000400EF00BFC002867
:1040E000F1D0204602B0BDE8F0812DE9F34105464C
:1040F0000E464FF040500021174698460EF0F2FB56
:10410000002104464FF040600EF0ECFB31460443C2
:104110004FF078700EF0E6FB394604434FF4F81088
:104120000EF0E0FB414604434FF6FF700EF0DAFB61
:10413000202144EA00022846FFF7AEFE044600288C
:1041400043D101AA20212846FFF7EEFE04460028AD
:104150003BD101994FF000400EF0CCFB0028F0D08D
:1041600021464FF040500EF0BDFB032104464FF0B6
:1041700040600EF0B7FB394604434FF4F8100EF0E0
:10418000B1FB314604434FF078700EF0ABFB2121B8
:1041900044EA00022846FFF77FFE0446A8B901AAB8
:1041A00021212846FFF7C0FE044670B9019E4FF05A
:1041B000004031460EF09EFB0028F0D031464FF60D
:1041C000FF700EF097FB089B1880204602B0BDE8F8
:1041D000F0812DE9F341064608460F460EF0AEFB8E
:1041E0003378012B14BF40F0804440F0404444F445
:1041F00080344FF05008002501AA41463046FFF7B1
:1042000093FE50BB019BE3B1013508F10208102D6C
:104210001FFA88F8F0D105F12801490089B2224639
:104220003046FFF739FEC0B9B81C0EF093FB6900A9
:104230005131024689B2304602B0BDE8F041FFF785
:104240002BBE08F1010101AA89B23046FFF76CFECE
:1042500018B9019B002BD7D1DDE702B0BDE8F08192
:104260002DE9F743064608460C460EF067FB8146EB
:10427000A01C0EF06FFB5025804601AA294630464F
:10428000FFF752FE044640B9BDF8043001934B4598
:1042900007D00235ADB2702DEFD1204603B0BDE896
:1042A000F0836F1CBFB201AA39463046FFF73CFECF
:1042B00078B9019B4345ECD1224629463046FFF7A9
:1042C000EBFD30B9224639463046FFF7E5FD0028C0
:1042D000DFD00446E1E707B54FF0FF330093ADF8B8
:1042E000043029B16946FFF774FF03B05DF804FBA1
:1042F0006946FFF7B5FFF8E72DE9F04788B00546B6
:10430000884617460021182202A810F07BFE0123E0
:104310002A788DF81030384B03EBC20305F10E09F3
:104320005B68CDF8049043455FD93E68331D3F2B51
:104330006A464FF03201284694BFC6F13C0A4FF05E
:10434000000AFFF7F1FD0446002848D1009B5644BF
:10435000B21C023BB2EB430F4AD830212846FFF78C
:104360009BFD044600283AD1494631200EF0E2FA7E
:10437000AB7B63F05F03AB7395F80C369BB32346BE
:104380001E48022249460EF036F80324287404F130
:104390000E01053629441FFA88F026F003060EF0B8
:1043A000C9FA264404F1100303963A1D2B4407F181
:1043B000100152F8040B43F8040B8A42F9D1128819
:1043C0001A803A68796904F11E000E3A284410F008
:1043D00003FD6868012201A9FFF74EFC0446204650
:1043E00008B0BDE8F0870224D1E76FF01504F6E7C6
:1043F0006FF00A04F3E700BF7C200210241C0020A9
:104400002DE9F04788B004468946904600211422E1
:1044100003A810F0F7FD012322788DF81030384BF7
:1044200003EBC20304F10E065B684B45CDE9016660
:1044300061D9B9F1000F6A460CBF9021C021204616
:104440000CBF4FF0910A4FF0C10AFFF76DFD054612
:1044500000284AD1009F052F47D9014640F2FA5261
:10446000304610F0CFFD314650460EF063FAA37B84
:10447000257463F07F03A37394F80C36CBB33146F5
:1044800020482B4602220DF0B6FF042620746574E6
:1044900006F10E0121441FFA89F00EF04BFAFB1CC5
:1044A00023F00303334460680393012201A9FFF75B
:1044B000E3FB18BB06F11003234408F1040203F1E7
:1044C0000C0153F8040B42F8040B8B42F9D11B8802
:1044D000138006F11E01A7F11002D8F81400214440
:1044E000023F10F079FCC8F80070284608B0BDE81B
:1044F000F0870326CCE76FF01505F6E70546F4E7ED
:104500007C200210241C002001220321FFF7C4BCE0
:104510002DE9F043804685B00E4601204FF4C2617C
:1045200010F0F2F80546002800F0C98006F11C01E1
:1045300000F5C160FFF784F90446002840F0AB8025
:10454000D5F80806A8B12146FFF7B0F904460028BF
:1045500040F09D800A2000F07FFCD5F8080601217C
:10456000FFF7B1F90446002840F091805A2000F08E
:1045700073FC311D281DFFF7FFFA0446002840F0A8
:104580008680504807210DF020FFB38EAB81337831
:104590002B7096F8363085F80C36D5F80836306B27
:1045A000A86005F1080743B92846FFF7ADFF0446A8
:1045B000002869D15A2000F04FFC20231A4606211A
:1045C0002846FFF709FD044600285DD12B783E4AB6
:1045D000012B18BF4FF48362D2430D212846FFF709
:1045E0005BFC044600284FD139462846FFF7F1FD11
:1045F0000446002848D12A78344B03EBC20307460F
:10460000D3F8049003AEB94510D1324608212846AC
:10461000FFF78AFC0446002836D1039940200EF0AB
:1046200069F900283BD16FF00F042DE0002301371A
:1046300000961A4639462846FFF757FD044618BB30
:10464000BDF80C104FF400600EF054F90028DAD0D9
:10465000BDF80C301A05D6D523F400639BB2ADF833
:104660000C30009300231A4639462846FFF7CBFC4E
:10467000044648B903460246009639462846FFF7E5
:1046800034FD04460028E3D06868FFF7C1FAD5F886
:104690000806FFF7F1F8284610F0BAF80BE04FF4DF
:1046A00000431A4604212846FFF796FC04460028DA
:1046B000EAD1C8F80050204605B0BDE8F0836FF09D
:1046C0000B04F8E7241C0020180402007C200210D0
:1046D00038B5054690B14068FFF79AFA044628B904
:1046E000D5F8080620B9284610F092F8204638BDC3
:1046F000FFF7C2F80028F6D00446F7E76FF015047C
:10470000F4E738B54378044683B94068FFF780FA88
:1047100070B9A068FFF7B0F850B9E068FFF7ACF8DF
:10472000054628B920460DF024FD03E0012B03D0F7
:104730004FF0FF35284638BD4068FFF735F9E7E709
:104740007FB5194B45788DF8071016461A889B7867
:10475000ADF80C2004468DF80E3075B9CBB25B0075
:1047600040688DF80C30032203A9FFF765FA30B9D1
:10477000BDF80D305BBA338003E0012D03D04FF05C
:10478000FF3004B070BD406800232A460DF10701D8
:10479000FFF71EF90028F2D160682B4602220DF1C6
:1047A0000D01FFF73AF9E2E78C20021007B5130A72
:1047B0008DF8053043788DF8062083B9490041F023
:1047C00001018DF804104068032201A9FFF734FAB3
:1047D000003818BF0120404203B05DF804FB012BF4
:1047E00007D18DF80410032201A94068FFF7F0F803
:1047F000EEE74FF0FF30EFE701F003021021FFF783
:10480000D5BF13B50C460DF106020021FFF798FF46
:1048100028B9BDF806301B0A237002B010BD4FF056
:10482000FF30FAE701220F21FFF7C0BF73B506463C
:104830000D46012010210DF09AFC0446002848D0B6
:104840002B780370012B05D14370291D201DFFF724
:1048500065F807E0022B33D100234370291D201D8A
:10486000FFF78AF990BB0DF1060208212046FFF7F9
:1048700067FF00283ED1237873BBBDF8062040F6C1
:1048800016139A4236D12046FFF7CCFF90BB05F1B4
:104890001C0104F10800FEF7BFFF58BB05F1300111
:1048A00004F10C00FEF7B8FF08BBA068FEF7F1FFAB
:1048B000D0B9E068FEF7EDFFB0B9346002B070BD6A
:1048C0006B784370002BC9D0012BBED020460DF071
:1048D00050FC4FF0FF30F1E7013B012BD3D8BDF87E
:1048E000062040F61623CCE7E068FEF7C5FFA06877
:1048F000FEF7C2FF63781BB96068FFF789F9E5E747
:10490000012BE3D16068FFF74FF8DFE713B55F21B4
:104910000DF106020446FFF713FF00287AD1BDF817
:1049200006205F2142F001022046ADF80620FFF785
:104930003DFF00286ED10DF1060250212046FFF701
:10494000FFFE002866D1BDF80620502142F020026B
:104950002046ADF80620FFF729FF00285AD1012094
:1049600000F07AFA0DF106020A212046FFF7E8FE70
:1049700000284FD1BDF806309FED287AC3F30B0312
:1049800007EE903AF8EE677A2378C7EE876AB7EEBB
:10499000007A37EE667ADFED227A27EE277AB3BB0C
:1049A000DFED206AC7EE267A4D212046FCEEE77A3D
:1049B00017EE903A9AB2D2B2ADF80620FFF7F6FEA3
:1049C00040BB0DF1060250212046FFF7B9FE08BB9F
:1049D000BDF8062022F0200292B250212046ADF808
:1049E0000620FFF7E3FEA8B90DF106025F2120467D
:1049F000FFF7A6FE70B9BDF8062022F0010292B2C0
:104A00005F21204602B0BDE81040FFF7CFBEDFEDCA
:104A1000066AC7E74FF0FF3002B010BD0000FA444D
:104A20000024F44B00E4D44700C0DA47F0B585B069
:104A3000CFB2C1F30726C1F307440DF10E021121D5
:104A40000546FFF77DFE28BBBDF80E309FB923F069
:104A500001031E43A40026F01C0604F01C04264398
:104A6000ADF80E60BDF80E201121284605B0BDE856
:104A7000F040FFF79BBE012FF4D123F0200343EA5F
:104A80004613A40123F4E07304F4E0742343ADF867
:104A90000E30E7E74FF0FF3005B0F0BDB1F5FA6F2B
:104AA00007D889004FF4FA42B2FBF1F21221FFF766
:104AB0007DBE4FF0FF30704713B50C460DF1060276
:104AC0001221FFF73DFE48B9BDF806204FF4FA4326
:104AD0009200B3FBF2F3238002B010BD4FF0FF3021
:104AE000FAE70068FFF72CBE0068FFF75FBE2DE90C
:104AF000F04F0025D0F800908BB006468846174648
:104B0000AA46BA4501D1002008E00DF10701484648
:104B1000FFF777FE002804DA4FF0FF300BB0BDE856
:104B2000F08F9DF807301F2BEFD90DF1080B0024F3
:104B30005A4660214846FFF703FE0028ECDB0134AB
:104B4000102C0BF1020BF3D13279F2B108EB850096
:104B50001146002311F0010F1C4603F1010317D089
:104B60000AA901EB84011F2B31F81ECC0AA901EB25
:104B7000840405F1010534F8201C41EA0C4140F899
:104B8000041B02D832FA03F1E4D10AF1010AB8E7B2
:104B90004908DFE773B504461546B3F900202668D7
:104BA0001C78032AC8BF023408460DF106020F49DB
:104BB000C8BFE4B210F08EFC01213046FFF71CFEA6
:104BC000014680B904F11801C9B2BDF8062030468B
:104BD000FFF7ECFD014630B93046FFF70DFE002827
:104BE00014BF01462946084602B070BD8F2002104E
:104BF00037B50B4605680F49184614460DF10602F5
:104C000010F068FC01212846FFF7F6FD014668B95F
:104C1000BDF806102846FFF741FF014630B9284687
:104C2000FFF7EAFD002814BF01462146084603B0FD
:104C300030BD00BF9320021037B50C4600680DF15F
:104C400006011546FFF738FF30B9BDF80630034AB4
:104C50002946204610F0BEFB03B030BD972002105D
:104C600037B51546B3F900201B780068032AC4BF86
:104C70000233DBB218330C460DF10602D9B2FFF74E
:104C80005FFD30B9BDF80630034A2946204610F0D2
:104C9000A1FB03B030BD00BF9B20021010B5012165
:104CA0000446FFF7A9FD014620B92046BDE81040A3
:104CB000FFF7A2BD10BD002303710068FFF7EEBF30
:104CC00010B501210446FFF797FD28B920460221BF
:104CD000BDE81040FFF790BD10BD01710068FFF7FF
:104CE000EFBF00002DE9F04304688BB020460D466D
:104CF00016461F46FFF7E4FF80BB0DF10701204673
:104D0000FFF77FFD50BB9DF807301F2BF5D92046DC
:104D1000FFF7C4FF10BB0DF1080980464A46602129
:104D20002046FFF70DFDC8B908F10108B8F1100FD2
:104D300009F10209F2D1B7F900200AAB03EB8203B3
:104D4000284633F81E1C0AAB03EB820232F8203CE3
:104D5000044A43EA0143314610F03CFB0BB0BDE886
:104D6000F08300BF9F2002107FB505460E4601204C
:104D700008210DF0FCF94FF48073ADF8083040F2D3
:104D8000011206238DF80A30ADF80C208DF80E3094
:104D9000044600284DD0002303713146FFF746FD3D
:104DA000002843D120680DF106024B21FFF7C8FC13
:104DB000002838D1BDF80620206842F080024B213F
:104DC000ADF80620FFF7F2FC68BB20680121FFF771
:104DD00013FD40BB02992068FFF728FE18BB03991A
:104DE0002068FFF723FEF0B920680DF106021421B8
:104DF000FFF7A6FCB8B9BDF80620206802F470429F
:104E000042F48A6242F005021421ADF80620FFF751
:104E1000CDFC024638B920681521FFF7C7FC10B950
:104E20002C6004B070BD2068FFF76BFC20460DF0CD
:104E3000A0F94FF0FF30F4E710B5054CFDF702F88C
:104E4000D4E90023501C43F10001C4E9000110BD66
:104E5000281D0020FDF714B84FF47A735843FDF76E
:104E60000FB8000070B5044672B60F4D0F4ED5E96D
:104E700000014FF47A7200230FF0C8FAD5E900124E
:104E80004FF47A7505FB10124FF0E02308499B6937
:104E90000968B1FBF6F1B3FBF1F305FB023362B62F
:104EA000C4E90003204670BD281D002040420F00C9
:104EB000D013002050B143681F2B07DC03691B7A15
:104EC0005A1E534253410B70002070476FF015007B
:104ED000704710B548B143681F2B06DC00690024F9
:104EE0000472FBF7D5FB204610BD6FF01500FBE701
:104EF000F8B507460C4600294AD00B69002B47D06D
:104F00004B681F2B44DC142101200DF030F90546BD
:104F1000002840D00C2101200DF029F90646A0B34D
:104F2000237AD4F810C0022B26D82068042823DC6A
:104F3000F0B1421E032A1DD8184951F82220616899
:104F4000326001228A4072600022737232729CF8D1
:104F50000020B272C5E900012B722E61FBF7C6FA80
:104F60002869FBF795FB044630B93D602046F8BD43
:104F70000B4AE4E70022E2E730460DF0FAF86FF062
:104F8000150428460DF0F5F8F0E76FF00B04F8E78C
:104F90006FF01504EAE76FF00B04E7E7D820021082
:104FA0000080004009B1FFF7A3BF016008467047C9
:104FB00010B5044638B100690DF0DBF820460DF05D
:104FC000D8F8002010BD6FF01500FBE7F8B50F46CC
:104FD0000546D0B143681F2B17DC012915D800699D
:104FE000012406680472FBF753FB6968336804FA0E
:104FF00001F10B43A7423360304603D0FBF7BCFA04
:105000000020F8BDFBF7A2FAFAE76FF01500F8E709
:1050100038B50D460446B0B143681F2B13DC026956
:1050200010680121994003680B430360137A3BB970
:10503000FBF778FA6368D840C0B22870002038BD0A
:10504000FBF7B0FAF6E76FF01500F8E708B50A4687
:10505000E0B141681F2919DC03691868012303FACC
:1050600001F10368012A43EA0103036006D0022A22
:1050700007D05AB9FBF780FA002008BDFBF766FAA3
:10508000FAE7036823EA01030360F5E76FF0150010
:10509000F3E70000036873B1013B022B0DD8084908
:1050A000CB5C03F1604303F561435201D2B283F854
:1050B0000023002070471823F3E70023F1E700BF27
:1050C000182102101F2908B512D8036863B1013BEB
:1050D000032B0BD8084A52F82300012303FA01F1ED
:1050E000FBF79AFA002008BD0448F6E70020F4E731
:1050F0006FF01500F7E700BF0821021000800040A4
:1051000008B503685BB1013B032B0AD8064A52F885
:1051100023004FF0FF31FBF77FFA002008BD034862
:10512000F7E70020F5E700BF0821021000800040EB
:105130001F2908B512D8036863B1013B032B0BD8B4
:10514000084A52F82300012303FA01F1FBF754FA4D
:10515000002008BD0448F6E70020F4E76FF01500D2
:10516000F7E700BF082102100080004008B503687F
:105170005BB1013B032B0AD8064A52F823004FF0DB
:10518000FF31FBF739FA002008BD0348F7E700209C
:10519000F5E700BF0821021000800040F0B5174D70
:1051A00084460F4616460FCD89B003AC0FC42B685A
:1051B00023606046F8B11F2F1DD8DCF80030B3B172
:1051C000013B032B15D80E4A52F8233000930123DC
:1051D000BB40019308AB03EB8606002416F8141CB1
:1051E00002946846FBF7F4F9204609B0F0BD054B80
:1051F000ECE70023EAE76FF01500F6E74421021020
:1052000008210210008000407FB503680293074B1D
:1052100002AA186801A90DF0F0FA20B9019A936862
:105220000BB1D068984707B05DF804FB301D002033
:1052300070B588B00023CDE905330D460093079380
:105240000491064630B32AB31F2923D8144B04AA6D
:10525000186869460DF0D1FA0446F0B93368ABB16D
:10526000013B032B14D80F4A52F82330019300223C
:105270000123AB4001A8114603920293FBF7DEF92C
:1052800000980CF076FF204608B070BD064BEDE7A5
:105290000346EBE76FF01504F5E76FF01204F2E751
:1052A000301D002008210210008000402DE9F0414F
:1052B00088B04FF00008CDE905880D461446CDF8BA
:1052C0001C8004910646002858D0002A56D02E4F44
:1052D00004AA386869460DF090FA034628B31021F5
:1052E00001200CF044FF01460090002849D03368AB
:1052F0000560B3B1013B032B15D8244A52F8233083
:105300004B606368CB60236838688B600DF01AF9D6
:105310000446C8B100980CF02CFF204608B0BDE848
:10532000F0811B4BECE74346EAE7009932680D60D9
:10533000F2B1013A032A02D8164B53F822304B60DF
:105340006368CB6023688B6033689BB1013B032BA0
:1053500012D8114A52F82330019301230024AB40A4
:10536000009A0E49039401A80293FBF767F9D4E76A
:10537000074BE4E7064BEFE70023EDE76FF015047A
:10538000CBE76FF00B04C8E7301D002008210210A6
:10539000008000400821021008210210095200106C
:1053A000F8B506460D46D9B10C2101200CF0DFFE00
:1053B0000446C0B12B680D4F0360AB6883600C4A94
:1053C000032138460DF026F9054638B138680DF04E
:1053D00077F920460CF0CDFE2846F8BD3460FBE797
:1053E0006FF01505F8E76FF00B05F5E7301D0020AD
:1053F0006D57001037B50446A8B10C4D286801A9B7
:105400000DF0BFF858B128680DF05AF9A0680CF0FB
:10541000B0FE20460CF0ADFE002003B030BD019878
:105420000CF0A7FEEAE76FF01500F6E7301D00204C
:105430000020FBF705B90120FBF702B90220FBF7BA
:10544000FFB80320FBF7FCB84168164A38B552F89C
:1054500021304569013B42F821300446ABB9286848
:10546000FBF796FAC0B96368BBB1012B17D0022BCA
:1054700014BF00233E235A09012103F01F03994062
:1054800002F12003084A42F8231028460CF071FE6E
:1054900020460CF06EFE002038BD0D23EBE72423E0
:1054A000E9E700BF341D002000E100E030B589B01D
:1054B00000282ED0446964B3456835B3012D26D049
:1054C000022D154D18BF0025007B01900020CDE96D
:1054D0000200CDE90412B3FA83F35B090693237A41
:1054E00000951BB103936368069002936846FBF72F
:1054F000CBFA237A05462BB160680CF03AFE002304
:1055000023726360284609B030BD044DDCE7044DCA
:10551000DAE76FF01505F5E700F0014000D0014033
:1055200000E0014070B50E4688B01446002836D021
:105530004569002D33D04268BAB1012A17D0022A3A
:10554000184A18BF0022EBB968682C7288B10CF0B9
:1055500010FE20460FF054F9686068682246314614
:105560000FF03AFC002008B070BD0F4AEBE70F4A7D
:10557000E9E720460FF044F968600028EDD16FF0AC
:105580000B00F0E7037B0092CDE90136684600236B
:10559000CDE9046303940693FBF776FAE3E76FF033
:1055A0001500E0E700F0014000D0014000E00140BC
:1055B0002DE9FF470C46064628B96FF01504204632
:1055C00004B0BDE8F0870029F7D00B69002BF4D0B8
:1055D0000B68022BF1D8182101200CF0C8FD3060B7
:1055E000002878D00C2101200CF0C1FD07460028CE
:1055F0006ED02268D4F81080002A4BD0012A4BD0FC
:10560000022A364D18BF00256068354B31683D6071
:1056100098424A6008D9334B984205D9324B984298
:1056200002D9324B98424AD8DFF8D8908B6059F8AB
:1056300022A0237A0B734F61BAF1000F2ED033688A
:1056400098F800705B68012B35D0022B35D0002B09
:10565000B3D1274B93E8070004AB03E9070001A887
:105660008DF80E70FBF714F82846FBF7FBF933684A
:105670009B689842014628BF19462846FBF7E8F97F
:1056800000289ADB226859F82230013349F8223089
:10569000002494E7174DB7E7174DB5E72846FBF709
:1056A00077F9524601212846FBF798F90028C6D021
:1056B0004FF0FF3405E0114BCCE7114BCAE76FF018
:1056C000150438460CF055FD30680CF052FD76E7B5
:1056D0006FF00B04F8E76FF00B0470E700F0014087
:1056E000A0860100801A060040420F0040E133000E
:1056F000981F021000D0014000E001408C1F0210F2
:10570000801F0210341D00200148FBF7C3B900BF01
:1057100000D001400148FBF7BDB900BF00E00140E7
:105720000148FBF7B7B900BF00F001400B4B4FF445
:105730007A721B68B3FBF2F3013BB3F1807F0AD2AC
:105740004FF0E022E0215361054B83F82310002342
:105750009361072313610120FCF792BBD013002053
:1057600000ED00E008B5FFF7E1FF08BD00680B6839
:10577000C01A70476FF05700704762B6002070473C
:1057800072B60020704700006F299FBF48090123AF
:10579000054A01F01F019DBF8B4042F820300020D8
:1057A0006FF01500704700BF00E100E06F290AD8D4
:1057B0004B09012201F01F018A40203303490020D8
:1057C00041F8232070476FF01500704700E100E0BA
:1057D0006F299FBF01F16041520101F56141D2B2D1
:1057E0009ABF002081F800236FF015007047000079
:1057F000164B984210B521D003F5805398421FD024
:1058000003F5805398421DD0114CA0420CBF0324D5
:105810004FF0FF34FDF7BAF80E4B600103EB441470
:105820001A588AB1A2690AB9226912B91A18D2683B
:1058300052B1BDE810401844FDF7A4B80024E9E7D0
:105840000124E7E70224E5E710BD00BF0020044083
:1058500000140840581D002010B586B00023CDE983
:10586000033305931B4B9842044629D003F580531C
:10587000984227D003F58053984225D003F58053F2
:10588000984223D003F5DB2303F5806398421FD0B1
:1058900003F5806398420CBF0A23002302930E4B4A
:1058A00002AA586B01A90CF0A8FF38B9019A9368B5
:1058B0000BB1D06898472046FCF788FD06B010BDB4
:1058C0000523EBE70623E9E70723E7E70823E5E7F6
:1058D0000923E3E700000140E403002038B5054652
:1058E0000C4659B10C2101200CF041FC48B1236851
:1058F0000360A36883602860002038BD6FF0150046
:10590000FBE76FF00B00F8E7F0B587B00023CDE9B7
:1059100003330593A1F11803022B0E46154602919D
:1059200040F2C9803A2900F0C680002900F0C38007
:10593000002800F0C380002A00F0C080517A0229BC
:1059400047D003297DD0012940F0B880137A5D4FFC
:10595000D80007EBC3035B6893B12B7A07EBC30353
:1059600002AA586801A90CF048FF40B31021012099
:105970000CF0FDFB0146019070B96FF00B0408E0DC
:105980000430514A032138440CF044FE04460028F8
:10599000E3D0204607B0F0BDEB6843602B6883601E
:1059A0006B680660C3602B7A07EBC30778680CF05E
:1059B000C9FD044658B101980EF02AFFE9E7019BA2
:1059C000EA685A602A689A606A681E60DA60002491
:1059D000DFE73C4F7B6A0BB3786A01A90CF078FDD6
:1059E00030B3102101200CF0C2FB014601900028C9
:1059F000C3D0EB6843602B6883606B680660C3604C
:105A0000786A0CF075FE04460028D4D10220FBF71A
:105A10009FFD0028DBD06FF00F04BAE72A4A03216C
:105A200007F124000CF0F6FD04460028D4D0B0E7BE
:105A3000019BEA685A602A689A606A681E60DA60A8
:105A4000E4E7204F7B6B23B32B7A07EBC30302AA57
:105A5000586801A90CF0D1FE20B3102101200CF0F0
:105A600086FB01460190002887D0EB6843602B68D5
:105A700083606B680660C3602B7A07EBC3077868A6
:105A80000CF060FD0446002895D1E868FCF7A0FC06
:105A90009DE70D4A07F134000CF0BCFD04460028D8
:105AA000D2D076E7019BEA685A602A689A606A68F1
:105AB0001E60DA60E9E76FF057046AE76FF01504DB
:105AC00067E700BFE40300206D57001073B504467C
:105AD000C0B10E4D0026686801A90CF052FD68B1F6
