:020000041000EA
:1000000000001220F5D4001031D5001033D50010B7
:1000100035D5001037D5001039D50010000000008C
:100020000000000000000000000000003BD50010B0
:100030003DD50010000000003FD500106D6E00108F
:1000400045D5001047D50010BD7A0010617A001028
:100050004DD50010797800108D780010A17800102F
:1000600055D5001057D5001059D500105BD500109C
:100070005DD5001059730010297800103D780010EC
:1000800065D5001067D5001069D500106BD500103C
:100090006DD500106FD5001071D5001073D500100C
:1000A0001F7300102D7300103B7300107BD50010E0
:1000B000817900108F7900109D790010AB790010C4
:1000C00085D5001087D50010517800108BD5001011
:1000D0006D7300108FD5001091D5001093D50010CE
:1000E00095D5001097D5001099D500109BD500101C
:1000F0009DD500109FD50010A1D50010A3D50010EC
:10010000A5D50010A7D50010A9D50010ABD50010BB
:10011000ADD50010AFD50010B1D50010B3D500108B
:10012000B5D50010B7D5001049730010BBD500102D
:10013000BDD50010BFD5001081730010C3D50010CD
:10014000C5D50010C7D50010C9D50010CBD50010FB
:10015000B9790010C7790010D5790010E379001043
:10016000F1790010FF7900100D7A00101B7A001051
:10017000297A0010377A0010457A0010537A00105F
:10018000E5D50010E7D50010E9D50010EBD500103B
:10019000EDD50010EFD50010F1D50010F3D500100B
:1001A00065780010F7D50010F9D50010FBD50010C8
:1001B000FDD50010FFD5001001D6001003D60010A9
:1001C00005D6001007D6001009D600100BD6001077
:1001D0000DD600100FD6001011D6001013D6001047
:1001E00015D6001017D6001019D600101BD6001017
:1001F0001DD600101FD6001021D6001023D60010E7
:100200000348044B834202D0034B03B118477047A5
:10021000E4090020E4090020000000000548064B26
:100220001B1AD90F01EBA301491002D0034B03B1F4
:1002300018477047E4090020E4090020000000008E
:1002400010B5064C237843B9FFF7DAFF044B13B11E
:100250000448AFF300800123237010BDE80900209B
:1002600000000000E888021008B5044B1BB10449E7
:100270000448AFF30080BDE80840CFE7000000006D
:10028000EC090020E888021080B584B000AF7860E7
:10029000124B1B68002B02D1104B114A1A600F4BF6
:1002A0001B68FB600D4B1A687B6813441A460D4BA4
:1002B0009A4207D90EF05AFA03460C221A604FF000
:1002C000FF3306E0054B1A687B681344034A13604A
:1002D000FB6818461037BD4680BD00BF040A0020E9
:1002E000D8F8002000F0112080B400AF6FF01003A8
:1002F0001846BD465DF8047B704780B400AF6FF0D0
:1003000010031846BD465DF8047B704780B485B085
:1003100000AF4FF080439B6803F46063BB60BB6831
:10032000B3F5606F2BD0BB68B3F5606F3FD8BB6887
:10033000B3F5406F34D0BB68B3F5406F37D8BB68B6
:10034000B3F5206F25D0BB68B3F5206F2FD8BB68FD
:10035000B3F5006F1AD0BB68B3F5006F27D8BB6840
:10036000B3F5C06F0ED0BB68B3F5C06F1FD8BB68C4
:10037000002B12D0BB68B3F5806F15D017E0174B78
:10038000FB6017E04FF4FA53FB6013E0144BFB6083
:1003900010E04FF4E103FB600CE0124BFB6009E05E
:1003A0004FF40043FB6005E00F4BFB6002E00C4B99
:1003B000FB6000BF4FF080439B689B0903F007037D
:1003C0007B60FA687B6822FA03F3084A136000BF77
:1003D0001437BD465DF8047B704700BF0080BB004A
:1003E000000E2707008793030048E801080A002051
:1003F00080B400AF00231846BD465DF8047B70470B
:1004000080B400AF00BFBD465DF8047B70470000BC
:1004100080B500AF174B184A9A60184B01221A603A
:10042000174B40221A60154B00221A60154801F044
:100430001DFA144801F025FA124801F017FA0D4B85
:10044000D3F888300B4A43F47003C2F88830BFF306
:100450004F8F00BFBFF36F8F00BF042002F08EFCF0
:10046000FFF754FFFFF7CCFF06F0F6FF62B600BFC0
:1004700000BF80BD00ED00E000000010000C004057
:100480000C04004000A0024080B582B000AF78604C
:100490007B68002B43DB7B680F2B40DC23497A68A9
:1004A00013469B0013449B000B441B68002B36D063
:1004B00001211F4802F018FB0346002B02D06FF009
:1004C00005032EE019497A6813469B0013449B00EC
:1004D0000B4400221A6015497A6813469B001344A6
:1004E0009B000B440C331B6800221A600F497A688A
:1004F00013469B0013449B000B440C3319680B48B4
:100500007A6813469B0013449B0003440C331B681A
:100510004A685A60064802F00EFB002301E06FF0C3
:10052000020318460837BD4680BD00BF0C0A0020F4
:100530004C0B002080B485B000AF7860134B1B7863
:10054000002B1CD10023FB6013E00023BB600AE0FA
:100550000F49FB685A01BB681344002241F823206D
:10056000BB680133BB60BB681F2BF1DDFB68013347
:10057000FB60FB68042BE8DD044B01221A700023AA
:1005800018461437BD465DF8047B704750100020B4
:10059000500B002080B586B000AF78607B68002BE0
:1005A00015D07B68012B10D07B68022B0BD07B68A9
:1005B000032B06D07B68042B01D1214B08E00023DC
:1005C00006E0204B04E0204B02E0204B00E0204BF3
:1005D000FB60F86800F024FB78617969F86800F046
:1005E00005FB00233B6123E07B6903F00103002B43
:1005F00018D018497B685A013B69134451F82330DD
:10060000002B0FD013497B685A013B69134451F802
:10061000233011487A6851013A690A4450F822207F
:10062000104698473B6901333B617B695B087B61FE
:100630007B69002BD8D100BF00BF1837BD4680BDF5
:1006400000C000400004084000A0004000900040AE
:1006500000800040500B0020D00D002080B582B0FB
:1006600000AF78607B6803F00103002B02D000200C
:1006700002F0B0FA7B6803F00203002B02D00120E5
:1006800002F0A8FA7B6803F00403002B02D00220DA
:1006900002F0A0FA7B6803F00803002B02D0402090
:1006A00002F098FA7868FFF745FF034618460837C6
:1006B000BD4680BD80B586B000AF78607B681B68A2
:1006C0003B617B681B68974A93421ED07B681B681E
:1006D000954A934217D07B681B68944A934210D086
:1006E0007B681B68924A934209D07B681B68914AD9
:1006F000934201D1042309E04FF0FF3306E00323C6
:1007000004E0022302E0012300E00023FB60FB6819
:10071000B3F1FF3F02D16FF00203C7E10122FB6892
:1007200002FA03F31846FFF799FFFB68032B09DC75
:100730007B68197A7B685B681A46386900F036FB7B
:10074000786176E000237B617B681B7A022B06D000
:10075000022B6ADC002B45D0012B21D065E0764BC3
:100760001A6A7B685B685B0003F002017B685B6868
:100770001B0103F020030B436F4913430B626E4BC5
:100780009A687B685B685B0003F002017B685B68CA
:100790005B0803F001030B43674913438B6048E098
:1007A000654B1A6A7B685B685B0003F002017B683B
:1007B0005B681B0103F020030B435F4913430B628B
:1007C0005D4B9A687B685B685B0003F002017B68A5
:1007D0005B685B0803F001030B43DB43564913409E
:1007E0008B6026E0544B1A6A7B685B685B0003F001
:1007F00002017B685B681B0103F020030B43DB43B2
:100800004D4913400B624C4B9A687B685B685B00F8
:1008100003F002017B685B685B0803F001030B4394
:10082000DB43454913408B6003E06FF010037B61AD
:1008300000BF7B69002B01D07B6937E1FB68032B8C
:1008400000F398807B685B7A042B00F2908001A211
:1008500052F823F069080010BF0800103D0900108D
:100860008B080010F10800103B691A6E7B685B680A
:10087000DB431A403B691A663B695A6E7B685B68CA
:10088000DB431A403B695A66F0E03B691A6E7B68AD
:100890005B681A433B691A663B695A6E7B685B6802
:1008A000DB431A403B695A663B69D3F8B8207B6842
:1008B0005B68DB431A403B69C3F8B820D6E03B696C
:1008C0001A6E7B685B681A433B691A663B695A6E0D
:1008D0007B685B68DB431A403B695A663B69D3F827
:1008E000B8207B685B681A433B69C3F8B820BDE059
:1008F0003B691A6E7B685B68DB431A403B691A668A
:100900003B695A6E7B685B681A433B695A663B6970
:10091000D3F8B8207B685B68DB431A403B69C3F8B7
:10092000B820A3E0008000400090004000A00040FC
:100930000004084000C00040006C00403B691A6E93
:100940007B685B68DB431A403B691A663B695A6EF9
:100950007B685B681A433B695A663B69D3F8B820E9
:100960007B685B681A433B69C3F8B8207EE06FF090
:1009700002039BE07B685B7A042B74D801A252F8D7
:1009800023F000BF99090010BB090010150A0010E0
:10099000BB090010150A0010464B1A6A7B685B6899
:1009A0009B0003F004017B685B685B0103F040037C
:1009B0000B43404913430B6258E03E4B1A6A7B6875
:1009C0005B685B0003F002017B685B681B0103F05E
:1009D000200319437B685B689B0003F004007B687D
:1009E0005B685B0103F0400303430B43DB43314986
:1009F00013400B622F4B1A6A7B685B6803F001019E
:100A00007B685B68DB0003F010030B432949134349
:100A10000B622BE0274B1A6A7B685B685B0003F074
:100A200002017B685B681B0103F0200319437B68AC
:100A30005B689B0003F004007B685B685B0103F06C
:100A40004003034319437B685B6803F001007B6844
:100A50005B68DB0003F0100303430B43DB431549E2
:100A600013400B6202E06FF002031FE0FB68032BF0
:100A70000DDC7B68997A7B685B681A46386900F000
:100A8000E9F878617B69002B01D07B690EE07B6817
:100A90001B7A002B01D1002308E07B68D97A7B68A0
:100AA0005B681A46386900F0F1F8034618461837B3
:100AB000BD4680BD006C004080B582B000AF78605C
:100AC00039607B680C4A93420DD10C4B1B6ADB08E2
:100AD00003F00102094B1B6A9B0903F002031A434E
:100AE0003B68134004E03968786800F0E1F8034699
:100AF00018460837BD4680BD00C00040006C00406D
:100B000080B582B000AF786039607B680B4A934251
:100B10000DD10B4B1A6A3B6803F001013B68DB0007
:100B200003F010030B43064913430B6203E03968DB
:100B3000786800F0CCF80837BD4680BD00C00040A2
:100B4000006C004080B582B000AF786039607B688F
:100B50000C4A93420ED10C4B1A6A3B6803F0010118
:100B60003B68DB0003F010030B43DB4306491340F3
:100B70000B6203E03968786800F0B7F80837BD46C3
:100B800080BD00BF00C00040006C004080B582B056
:100B900000AF786039607B680C4A93420CD10C4BF3
:100BA0001B6A03F001020A4B1B6ADB0803F0020315
:100BB0001A433B68134004E03968786800F0A3F8F2
:100BC000034618460837BD4680BD00BF00C0004040
:100BD000006C004080B582B000AF78607868FFF7A5
:100BE000D9FC00BF0837BD4680BD000080B582B08B
:100BF00000AF786039607B68074A934205D1074AA5
:100C00003B6803F00303536203E03968786800F03F
:100C100089F80837BD4680BD00C00040006800402C
:100C200080B582B000AF78607B68084A934204D1F7
:100C3000074B5B6A03F0030303E0786800F080F879
:100C4000034618460837BD4680BD00BF00C00040BF
:100C50000068004080B584B000AFF8600B467A6051
:100C6000FB72FB68084A934202D16FF0100306E062
:100C7000FB7A7A681946F86800F06EF80346184661
:100C80001037BD4680BD00BF00C0004080B584B0B5
:100C900000AFF8600B467A60FB72FB7A7A681946FF
:100CA000F86800F009F9034618461037BD4680BDC4
:100CB00080B483B000AF786039607B685A6A3B6863
:100CC000134018460C37BD465DF8047B704780B46E
:100CD00083B000AF786039607B683A68DA6100BF42
:100CE0000C37BD465DF8047B704780B483B000AF1D
:100CF000786039607B683A681A6200BF0C37BD467D
:100D00005DF8047B704780B483B000AF78603960D1
:100D10007B689A693B68134018460C37BD465DF8FE
:100D2000047B704780B483B000AF786039607B6823
:100D30003A689A6400BF0C37BD465DF8047B704783
:100D400080B483B000AF78607B681B6C18460C37AA
:100D5000BD465DF8047B704780B485B000AFF86095
:100D60000B467A60FB72FB7A002B02D0012B0AD073
:100D700012E0FB68D3F8C0207B68DB431A40FB68B5
:100D8000C3F8C0200BE0FB68D3F8C0207B681A438F
:100D9000FB68C3F8C02002E06FF0020300E000230C
:100DA00018461437BD465DF8047B704780B485B0A3
:100DB00000AFF8600B467A60FB72FB681A6B7B68C9
:100DC0001A43FB681A63FB687A685A60FB7A052B42
:100DD00068D801A252F823F0F10D0010130E001094
:100DE000350E0010510E00106D0E0010890E00100F
:100DF000FB687A685A61FB687A685A60FB687A68AF
:100E00001A67FB687A68DA67FB687A68C3F8882033
:100E10004BE0FB687A681A61FB687A685A60FB6885
:100E20007A681A67FB687A68DA67FB687A68C3F8D9
:100E300088203AE0FB687A68C3F88820FB687A6803
:100E4000DA67FB687A681A67FB687A689A602CE050
:100E5000FB687A68C3F88820FB687A68DA67FB6801
:100E60007A68DA66FB687A689A601EE0FB687A68DE
:100E7000C3F88820FB687A689A67FB687A681A6703
:100E8000FB687A689A6010E0FB687A68C3F888208B
:100E9000FB687A689A67FB687A68DA66FB687A6842
:100EA0009A6002E06FF0020300E000231846143756
:100EB000BD465DF8047B704780B485B000AFF86034
:100EC0000B467A60FB72FB7A032B53D801A252F8CF
:100ED00023F000BFE50E00100B0F00102F0F0010C5
:100EE000530F0010FB68D3F8B0207B68DB431A4037
:100EF000FB68C3F8B020FB68D3F8B4207B68DB4301
:100F00001A40FB68C3F8B42046E0FB68D3F8B02071
:100F10007B681A43FB68C3F8B020FB68D3F8B420A1
:100F20007B68DB431A40FB68C3F8B42034E0FB68FD
:100F3000D3F8B0207B68DB431A40FB68C3F8B020CD
:100F4000FB68D3F8B4207B681A43FB68C3F8B4206D
:100F500022E0FB68D3F8B0207B681A43FB68C3F833
:100F6000B020FB68D3F8B4207B681A43FB68C3F851
:100F7000B42011E0FB68D3F8B0207B68DB431A4053
:100F8000FB68C3F8B020FB68D3F8B4207B68DB4370
:100F90001A40FB68C3F8B420002318461437BD4636
:100FA0005DF8047B704700BF80B582B000AF786009
:100FB000786800F035F8034618460837BD4680BD0E
:100FC00080B584B000AFF860B9607A607A68B968BB
:100FD000F86800F043F8034618461037BD4680BD58
:100FE00080B584B000AFF860B9607A607A68B9689B
:100FF000F86800F05EF8034618461037BD4680BD1D
:1010000080B582B000AF7860044B1B6819467868E1
:1010100000F0DEFB00BF0837BD4680BD00000020A9
:1010200080B483B000AF78607B68002B02D14FF0B2
:10103000FF330DE07B681B6B43F004027B681A638F
:1010400000BF7B681B6B03F00403002BF9D1002366
:1010500018460C37BD465DF8047B704780B487B0F6
:1010600000AFF860B9607A6000237B61FB68002BF9
:1010700002D0BB68002B0BD14FF0FF3313E0FB68AD
:10108000D96A7B695A1C7A61BA681344CAB21A7069
:101090007A687B699A4205D9FB685B6803F00203B2
:1010A000002BECD07B6918461C37BD465DF8047BED
:1010B000704780B487B000AFF860B9607A600023F1
:1010C0007B61FB68002B02D0BB68002B0CD14FF07A
:1010D000FF3314E07B695A1C7A61BA6813441B78A9
:1010E000DBB21A46FB68DA627A687B699A4205D9F4
:1010F000FB685B6803F01003002BEBD07B6918469C
:101100001C37BD465DF8047B704780B483B000AFE8
:1011100078607B68DB6943F080027B68DA6100BF3E
:101120007B68DB6903F08003002BF9D100BF00BFAF
:101130000C37BD465DF8047B704780B483B000AFC8
:1011400078607B685B6A43F080027B685A6200BF0C
:101150007B685B6A03F08003002BF9D100BF00BFFE
:101160000C37BD465DF8047B704780B485B000AF96
:10117000F860B9607A60FB68BA689A60FB687A6860
:101180001A6100BF1437BD465DF8047B704700004C
:1011900080B584B000AF786039607B68114A9342B3
:1011A0000ED07B68104A934208D07B680F4A934266
:1011B00001D1022305E04FF0FF3302E0012300E0FC
:1011C00000230B4A52F82330FB60FB68DB69002BDD
:1011D00004D0FB68DB693968F868984700BF1037AE
:1011E000BD4680BD00D0014000E0014000F001405C
:1011F0005410002080B483B000AF78607B68002278
:10120000DA607B6800225A617B689A687B689A6022
:101210007B681A697B681A617B680E4A93420ED01C
:101220007B680D4A934208D07B680C4A934201D1F7
:10123000022305E04FF0FF3302E0012300E000232A
:10124000074A002142F8231000BF0C37BD465DF865
:10125000047B704700D0014000E0014000F00140F5
:101260005410002080B586B000AF7860924A7B6849
:1012700052F823307B61914A7B6852F823303B61FE
:101280007B68002B0BD07B68012B06D07B68022B80
:1012900001D18B4B04E0002302E08A4B00E08A4B33
:1012A000FB608A4A7B6852F82330BB60FB689B680E
:1012B00003F4FE43002B19D0FB689A68FB689A6020
:1012C000FB681A69FB681A61FB680022DA60FB6838
:1012D00000225A61F868FFF767FE6FF00801F868AE
:1012E000FFF756FFF868FFF785FFFBE0BB68DB6898
:1012F0007A699A4243D2FB689B6803F02003002B73
:1013000013D0BB689A687B69D118BB68DA687B69BF
:10131000D31A1A46F868FFF763FE03461A467B693C
:1013200013447B61FB6820229A60BB68DB687A69A2
:101330009A4206D2FB68DB6843F02002FB68DA6061
:1013400005E0FB68DB6823F02002FB68DA60BB681D
:10135000DB687A699A4212D1BB685B69002B0ED0B8
:10136000FB681B6B43F00202FB681A63FB680122F7
:101370009A60FB68DB6843F00102FB68DA60BB68D7
:101380005B693A699A4219D2FB689B6803F01103C2
:10139000002B13D0BB681A693B69D118BB685A6926
:1013A0003B69D31A1A46F868FFF70AFE03461A4645
:1013B0003B6913443B61FB6810229A60BB68DB68A1
:1013C0007A699A423AD1BB685B693A699A4235D0E8
:1013D000FB689B6803F00103002B2FD0FB68012200
:1013E0009A603B69002B06D1BB685B685B0043F0E9
:1013F0000102FB68DA62BB685A693B69D31AB3F52C
:10140000807F03D9FB6800221A6205E0BB685A6935
:101410003B69D21AFB681A62BB685B693A699A42F7
:1014200006D2FB68DB6843F01102FB68DA6005E076
:10143000FB68DB6823F01102FB68DA60BB68DB68DD
:101440007A699A4244D1BB685B693A699A423FD152
:10145000FB680022DA60FB6800225A61FB689A6828
:10146000FB689A60FB681A69FB681A61BB689B6934
:10147000002B06D0FB681B6B43F00202FB681A636B
:1014800005E0FB681B6B43F00402FB681A63FB6812
:101490009B6803F4FE43002B05D06FF00801F86849
:1014A000FFF776FE03E00021F868FFF771FEF868A9
:1014B000FFF7A0FE16E000BF601000206C100020B7
:1014C00000F0014000E0014000D001405410002035
:1014D00006497B687A6941F8232005497B683A69A7
:1014E00041F823201837BD4680BD00BF60100020A2
:1014F0006C10002080B586B000AFF860B9607A60EB
:101500003B60FB689B687B613B6800221A607B69DB
:1015100003F4FE43002B36D03B686FF008021A60DC
:10152000BB68002B04D0BB683A680421F868984770
:1015300007226FF07F41F868FFF717FEF868FFF7A2
:10154000FCFDF868FFF7E1FD7B6800221A607B680C
:10155000043300221A60FB68994A93420ED0FB685C
:10156000984A934208D0FB68974A934201D10223DC
:1015700005E04FF0FF3302E0012300E00023934A2F
:10158000002142F823107B681B6803F01003002B36
:1015900006D17B6804331B6803F00103002B20D0C5
:1015A0007B6903F01003002B0AD0BB68002B04D02A
:1015B000BB6800220221F8689847FB6810229A60F5
:1015C000FB681B6903F00103002B0AD0BB68002BEA
:1015D00004D0BB6800220621F8689847FB68012206
:1015E0001A617B681A6848F220031340002B06D169
:1015F0007B6804331B6803F00203002B53D07B6924
:1016000003F02003002B0AD0BB68002B04D0BB687A
:1016100000220321F8689847FB6820229A60FB6843
:101620001B6903F00203002B0AD0BB68002B04D017
:10163000BB6800220521F8689847FB6802221A61FE
:101640007B6903F40043002B2DD03B6800221A6015
:10165000BB68002B04D0BB683A680421F86898473F
:10166000FB684FF400429A607B6800221A607B6836
:10167000043300221A60FB68514A93420ED0FB6883
:10168000504A934208D0FB684F4A934201D102234B
:1016900005E04FF0FF3302E0012300E000234B4A56
:1016A000002142F823107B681B6803F00803002B1D
:1016B0003DD07B6903F00803002B38D0FB681B6822
:1016C00003F40063002B1BD0BB68002B04D0BB6865
:1016D00000220121F8689847FB684FF480029A6065
:1016E000FB6808229A60FB684FF400429A607B68AE
:1016F0004FF621721A607B68043302221A6016E0EA
:10170000BB68002B04D0BB6800220021F868984712
:10171000FB684FF400029A60FB6808229A607B68BD
:1017200047F611721A607B68043301221A607B68E5
:101730001B6803F00103002B3DD07B6903F04003DD
:10174000002B2DD03B6800221A60BB68002B04D010
:10175000BB683A680421F8689847FB6840229A60A1
:101760007B6800221A607B68043300221A60FB68E1
:10177000134A93420ED0FB68124A934208D0FB688A
:10178000114A934201D1022305E04FF0FF3302E0FA
:10179000012300E000230D4A002142F823100AE053
:1017A0007B6903F00103002B05D0FB6801229A60DE
:1017B0007B6808221A6000BF1837BD4680BD00BF95
:1017C00000D0014000E0014000F001405410002032
:1017D00080B588B000AF786039607B681F4A93425B
:1017E0000ED07B681E4A934208D07B681D4A934204
:1017F00001D1022305E04FF0FF3302E0012300E0B6
:101800000023FB61FB69002B23DB7B681B6803F073
:101810000203002B03D0F869FFF724FD1AE0124AF7
:10182000FB6952F82330BB617B68DB68FB607B6837
:101830005B693B6107F1140307F10C02B969786831
:10184000FFF758FEFA687B68DA603A697B685A618C
:1018500000E000BF2037BD4680BD00BF00D0014082
:1018600000E0014000F001405410002080B582B03B
:1018700000AF7860786800F01EF800BF0837BD46FA
:1018800080BD80B582B000AF7860786800F03EF827
:1018900000BF0837BD4680BD80B483B000AF78601C
:1018A0007B68D3F8003103F4803318460C37BD460B
:1018B0005DF8047B704780B582B000AF78607B68CC
:1018C000D3F8003123F001027B68C3F800217B6864
:1018D0000122C3F8002700BF7868FFF7DDFF034649
:1018E000002BF9D07B68D3F8003143F001027B680C
:1018F000C3F8002100BF7868FFF7CEFF0346002B36
:10190000F9D000BF00BF0837BD4680BD80B483B0AA
:1019100000AF78607B68D3F8003123F001027B6868
:10192000C3F8002100BF0C37BD465DF8047B70474B
:1019300080B582B000AF78607968044800F044F860
:10194000034618460837BD4680BD00BF0060004012
:1019500080B582B000AF78607968044800F059F82B
:10196000034618460837BD4680BD00BF00600040F2
:1019700080B500AF024800F072F80346184680BDFB
:101980000060004080B582B000AF7860796804489C
:1019900000F073F8034618460837BD4680BD00BF07
:1019A0000060004080B400AF00BF064B1B6903F02D
:1019B0000803002BF9D100BF00BFBD465DF8047BD2
:1019C000704700BF0060004080B582B000AF786013
:1019D00039603B6803F026033B603B68002B02D173
:1019E0006FF0020311E0FFF7DDFF7B681A693B68C7
:1019F0001A437B681A613B6823F020033B603B6815
:101A0000002B01D0FFF7CEFF002318460837BD4654
:101A100080BD80B582B000AF786039603B6803F06C
:101A200026033B603B68002B02D16FF0020312E0FB
:101A3000FFF7B8FF7B681A693B68DB431A407B6895
:101A40001A613B6823F020033B603B68002B01D008
:101A5000FFF7A8FF002318460837BD4680BD80B4B5
:101A600083B000AF78607B681B6903F0D003184631
:101A70000C37BD465DF8047B704780B483B000AF7F
:101A8000786039607B681B693A6802F0D002D24303
:101A90001A407B681A61002318460C37BD465DF872
:101AA000047B704780B588B002AFF860B9607A6097
:101AB0003B60FB687E4A93421AD0FB687D4A9342A2
:101AC00014D0FB687C4A93420ED0FB687B4A934259
:101AD00008D0FB687A4A934201D1042309E04FF011
:101AE000FF3306E0032304E0022302E0012300E0C9
:101AF00000237B613B68042B02DD6FF00203D3E01F
:101B00007B69022B08DC6F4B1B685B087A6A9A4280
:101B100002D96FF00203C7E07B69022B07DD694B36
:101B20001B687A6A9A4202D96FF00203BCE0FB6834
:101B30005F4A93421ED10D2001F0E0F9062001F02A
:101B400049F86148FEF7B6FD97F82830002B02D01F
:101B50005E48FEF7AFFD97F82930002B02D05C48B5
:101B6000FEF7A8FD97F82A30002B00F092806FF066
:101B7000020399E0FB684F4A93421ED10E2001F008
:101B8000BDF9072001F026F85248FEF793FD97F8BB
:101B90002830002B02D05048FEF78CFD97F82930F2
:101BA000002B02D04D48FEF785FD97F82A30002B18
:101BB0006FD04B48FEF77EFD6BE0FB683E4A9342D8
:101BC0001ED10F2001F09AF9082001F003F84548D2
:101BD000FEF770FD97F82830002B02D04248FEF740
:101BE00069FD97F82930002B02D04048FEF762FDCE
:101BF00097F82A30002B4CD03D48FEF75BFD48E0BB
:101C0000FB682E4A93421ED12B2001F077F9302039
:101C100000F0E0FF3748FEF74DFD97F82830002B25
:101C200002D03548FEF746FD97F82930002B02D048
:101C30003248FEF73FFD97F82A30002B29D0304874
:101C4000FEF738FD25E0FB681D4A93421ED12D208A
:101C500001F054F9312000F0BDFF2A48FEF72AFDBB
:101C600097F82830002B02D02748FEF723FD97F87D
:101C70002930002B02D02548FEF71CFD97F82A30AA
:101C8000002B06D02248FEF715FD02E06FF001039D
:101C90000AE07B6A01933B6A00933B687A68B96803
:101CA000F86800F0BBF9034618461837BD4680BDFA
:101CB00000600440007004400080044000E00B40DD
:101CC00000E40B40080A002008A1011014A1011033
:101CD00020A101102CA1011038A1011044A1011074
:101CE00050A101105CA1011068A1011074A10110A4
:101CF00080A101108CA1011098A10110A4A10110D4
:101D0000B0A10110BCA10110C8A10110D4A1011003
:101D1000E0A1011080B584B000AF78607B68294AEB
:101D200093421AD07B68284A934214D07B68274A92
:101D300093420ED07B68264A934208D07B68254A9E
:101D4000934201D1042309E04FF0FF3306E003235F
:101D500004E0022302E0012300E00023FB60786836
:101D600000F05CFA7B68174A934203D1062000F02A
:101D7000F3FE22E07B68144A934203D1072000F06F
:101D8000EBFE1AE07B68114A934203D1082000F071
:101D9000E3FE12E07B680E4A934203D1302000F04C
:101DA000DBFE0AE07B680B4A934203D1312000F04E
:101DB000D3FE02E06FF0010300E000231846103765
:101DC000BD4680BD006004400070044000800440B7
:101DD00000E00B4000E40B4080B485B000AF7860B9
:101DE0000023FB607B68434A93420FD07B68424AE2
:101DF00093420BD07B68414A934207D07B68404AAC
:101E0000934203D07B683F4A934218D17B68394A9A
:101E100093420FD07B68384A93420BD07B68374A95
:101E2000934207D07B68364A934208D07B68354A94
:101E3000934204D0344B1B685B08FB604FE07B6827
:101E40002C4A934248D07B682B4A934244D07B680B
:101E50002A4A934240D07B68294A934203D07B6848
:101E6000284A934238D14FF080439B685B0A03F0C5
:101E70000703BB60BB68072B2AD801A252F823F0E6
:101E8000B51E0010D11E0010A71E0010BB1E0010B2
:101E9000A11E0010AD1E0010C31E0010CB1E0010AE
:101EA0001A4BFB6017E01A4BFB6014E04FF4E103A0
:101EB000FB6010E0174BFB600DE04FF4FA53FB6042
:101EC00009E04FF40043FB6005E0134BFB6002E0C8
:101ED0006FF0020307E002E06FF0020303E0FB682B
:101EE000DA0F13445B1018461437BD465DF8047BC7
:101EF000704700BF00600440007004400080044050
:101F000000E00B4000E40B40080A0020000E270709
:101F10000048E801008793030080BB0080B582B0D1
:101F200000AF786039603968786800F045FA034698
:101F300018460837BD4680BD80B582B000AF7860D6
:101F400039603968786800F09FFA03461846083708
:101F5000BD4680BD80B582B000AF7860786800F083
:101F600015FB034618460837BD4680BD80B582B0D4
:101F700000AF78600B46FB70FB781946786800F07C
:101F80001DFB034618460837BD4680BD80B582B0AC
:101F900000AF78600B46FB70FB781946786800F05C
:101FA00049FB034618460837BD4680BD80B584B05E
:101FB00000AFF860B9607A607A68B968F86800F0D4
:101FC00089FB034618461037BD4680BD80B582B0F8
:101FD00000AF7860786800F0DFFB034618460837EA
:101FE000BD4680BD80B584B000AFF860B9607A604E
:101FF0007A68B968F86800F0DEFB034618461037C7
:10200000BD4680BD80B582B000AF7860786800F0D2
:1020100030FC034618460837BD4680BD80B586B003
:1020200000AFF860B9607A603B60FB68744A934225
:102030001AD0FB68734A934214D0FB68724A9342E9
:102040000ED0FB68714A934208D0FB68704A9342F5
:1020500001D1042309E04FF0FF3306E0032304E03D
:10206000022302E0012300E000237B617B69002B57
:1020700002DA6FF00203BEE066497A6913469B00FC
:102080001344DB000B4400221A6062497A6913464C
:102090009B001344DB000B44083300221A605D49A7
:1020A0007A6913469B001344DB000B440C33012276
:1020B0001A6058497A6913469B001344DB000B44AD
:1020C000103300221A6053497A6913469B00134467
:1020D000DB000B441C3300221A604E497A69134618
:1020E0009B001344DB000B44203300221A60494953
:1020F0007A6913469B001344DB000B4414336FF0E2
:1021000001021A6043497A6913469B001344DB00BD
:102110000B4418336FF001021A603E497A69134686
:102120009B001344DB000B44273301221A70FB6829
:1021300001225A60FB68384A1A61BB68002B06D03E
:10214000FB685B6843F00202FB685A6005E0FB68CD
:102150005B6823F00202FB685A60796AF868FFF74F
:10216000DDFE3B6AFF2B02D96FF0020343E0FB6800
:10217000DA683B6A1B041A43FB68DA60FB681A6A78
:10218000FB681A6223497A6913469B001344DB00FB
:102190000B4427331B78002B23D03B68012B05D140
:1021A000FB685B6843F48032FB685A603B68022B33
:1021B00005D1FB685B6843F44032FB685A603B68BA
:1021C000032B05D1FB685B6843F4E022FB685A608F
:1021D0003B68042B05D1FB685B6843F47022FB6805
:1021E0005A607B68002B05D0FB68DB6843F4005223
:1021F000FB68DA60002318461837BD4680BD00BF73
:1022000000600440007004400080044000E00B4087
:1022100000E40B40781000200101010080B584B07B
:1022200000AF78607B685E4A93421AD07B685D4A53
:10223000934214D07B685C4A93420ED07B685B4A21
:10224000934208D07B685A4A934201D1042309E0A3
:102250004FF0FF3306E0032304E0022302E00123F2
:1022600000E00023FB607B6800225A627B681A6AE8
:102270007B681A627B685B6823F001027B685A60A6
:102280007B68DB6923F040127B68DA614949FA68B0
:1022900013469B001344DB000B441B68002B2AD021
:1022A0004449FA6813469B001344DB000B441B6847
:1022B000BB60FA6813469B001344DB003D4A13449D
:1022C000184600F038FC3B49FA6813469B0013445B
:1022D000DB000B441B685B6A002B0CD03549FA68A5
:1022E00013469B001344DB000B441B685B6A6FF0D2
:1022F0000E01B86898477B6800225A607B6800220C
:102300009A607B680022DA607B6800221A612949A2
:10231000FA6813469B001344DB000B4414331B681C
:10232000002B16DB2349FA6813469B001344DB009D
:102330000B4414331B681846FEF7A6F81D49FA68CB
:1023400013469B001344DB000B4414336FF001026F
:102350001A601849FA6813469B001344DB000B44CB
:1023600018331B68002B16DB1249FA6813469B00D2
:102370001344DB000B4418331B681846FEF784F83F
:102380000C49FA6813469B001344DB000B441833D6
:102390006FF001021A60002318461037BD4680BD59
:1023A00000600440007004400080044000E00B40E6
:1023B00000E40B407810002080B586B000AF786054
:1023C0003960304B1B685B083A689A4202D96FF05B
:1023D000020353E07868FFF7FFFC0346BB60BA686E
:1023E0003B68B2FBF3F3BB60BB685B087B61BB6817
:1023F0005B083B610023FB60BB6803F00103002B1B
:1024000010D07B6901337B610CE07B69DA0F1344E8
:102410005B107B613B69DA0F13445B103B61FB6827
:102420000133FB607B690F2B02DDFB68072BECDDC2
:10243000FB68082B03D10F233B610F237B617B6873
:102440005B6923F0FF023B69DBB21A437B685A6188
:102450007B685B6923F47F427B691B029BB21A4352
:102460007B685A617B685B6923F47022FB681B04FC
:1024700003F470231A437B685A6100231846183707
:10248000BD4680BD080A002080B485B000AF7860EA
:1024900039603B68012B02D03B68102B02DD6FF0E6
:1024A000020360E07B68334A93421AD07B68324A69
:1024B000934214D07B68314A93420ED07B68304AF5
:1024C000934208D07B682F4A934201D1042309E04C
:1024D0004FF0FF3306E0032304E0022302E0012370
:1024E00000E00023FB607B681B6B03F00103002B03
:1024F00037D12549FA6813469B001344DB000B448F
:102500000C331B68012B2CD17B685B6823F0010224
:102510007B685A6039681C48FA6813469B0013446C
:10252000DB000344083319603B680F2B0BDC7B682E
:10253000DB6823F470623B681B0203F470631A4388
:102540007B68DA6005E07B68DB6823F470627B6897
:10255000DA607B685B6843F001027B685A600023A5
:1025600001E06FF0060318461437BD465DF8047BA2
:10257000704700BF006004400070044000800440C9
:1025800000E00B4000E40B407810002080B483B0E2
:1025900000AF78607B68DB6803F47063002B01D1C7
:1025A000102304E07B68DB681B0A03F00F03184666
:1025B0000C37BD465DF8047B7047000080B483B0E3
:1025C00000AF78600B46FB707B68DB6823F4304219
:1025D0007B68DA60FB78032B24D801A252F823F041
:1025E000F1250010FF250010092600101726001005
:1025F0007B68DB6843F400427B68DA6012E07B684A
:10260000DA687B68DA600DE07B68DB6843F480524F
:102610007B68DA6006E07B68DB6843F400527B6825
:10262000DA6000BF002318460C37BD465DF8047B16
:10263000704700BF80B483B000AF78600B46FB707A
:10264000FB78032B3ED801A252F823F05D26001040
:102650007726001091260010AB2600107B68DB68FF
:1026600023F001027B68DA607B68DB6823F00202FA
:102670007B68DA6027E07B68DB6843F001027B68F7
:10268000DA607B68DB6823F002027B68DA601AE0BC
:102690007B68DB6823F001027B68DA607B68DB68BB
:1026A00043F002027B68DA600DE07B68DB6843F090
:1026B00001027B68DA607B68DB6843F002027B68BA
:1026C000DA6000E000BF002318460C37BD465DF815
:1026D000047B704780B588B000AFF860B9607A605D
:1026E000BB68002B02D07B68002B01D100234FE098
:1026F000F868FFF76BFCB861F868FFF72BFC03463E
:102700007B617A68BB699A4201D9BB697B607B694E
:10271000082B03D97B6823F001037B600023FB6156
:1027200032E07B69082B23D97B68032B0CD9BA686C
:10273000FB691344FA6812681A607B68043B7B608B
:10274000FB690433FB610FE07B68012B0CD9BA688D
:10275000FB691344FA68128892B21A807B68023BC4
:102760007B60FB690233FB617B68012B0CD10EE0BF
:10277000FB695A1CFA61BA681344FA681278D2B23B
:102780001A707B68013B7B607B68002BC9D1FB69B9
:1027900018462037BD4680BD80B483B000AF786056
:1027A0007B68DB691B0E03F03F0318460C37BD4600
:1027B0005DF8047B704780B588B000AFF860B96001
:1027C0007A60BB68002B02D07B68002B01D100230C
:1027D0004BE0F868FFF716FCB861F868FFF7BAFB42
:1027E00003467B617A68BB699A4201D9BB697B6009
:1027F0007B69082B03D97B6823F001037B600023EE
:10280000FB612EE07B69082B20D97B68032B0CD958
:10281000FB68B968FA690A4412681A607B68043B6D
:102820007B60FB690433FB611BE07B68012B18D9DB
:10283000FB68B968FA690A44128892B21A807B6808
:10284000023B7B60FB690233FB610AE0FB695A1CB7
:10285000FA61BA6813441A78FB681A707B68013B06
:102860007B607B68002BCDD1FB6918462037BD46C5
:1028700080BD80B483B000AF78607B68DB691B0AE1
:1028800003F03F03C3F1200318460C37BD465DF843
:10289000047B704780B500AF0F4B1B6803F4803397
:1028A000002B16D00D4B1B68002B05DD0B4B1B6856
:1028B000013B0A4A13600CE000F0BEF8084B1B68AD
:1028C000002B06D0064B1B6800209847044B0022C3
:1028D0001A6000BF80BD00BF10E000E004000020CF
:1028E000481100202DE9B04386B000AF786036492A
:1028F000896879613449096821F48031334801607D
:102900003149096801F00101002911D12E496FF008
:102910007F4048602C496FF07F4088602A4905203D
:1029200008606FF07F4179614FF08071396103E099
:102930002549496801313961796800208846814616
:102940002349096800200A46034602FB09F008FBF8
:1029500003F10144A8FB02454B191D461D4A4FF0E7
:102960000003204629460BF02DF902460B4613467C
:10297000FB60FA683B69B2FBF3F31A46164B1A6028
:10298000FB683A69B3FBF2F2396901FB02F29B1A68
:10299000BB60BA687B699A420CD30F4B1B6801334A
:1029A0000D4A13607A69BB68D21A3B6913440B4A1B
:1029B000136004E07A69BB68D31A084A136000BF49
:1029C0001837BD46BDE8B08310E000E04411002098
:1029D000080A002040420F0004000020401100209F
:1029E00080B582B000AF78603960104A3B681360F0
:1029F0000F4B1B68002B02DD6FF0050312E07B68B4
:102A0000002B01D100230DE07868FFF76BFF084B26
:102A10001B68002B05DD074B1B68064A43F00203C9
:102A20001360002318460837BD4680BD48110020BA
:102A30000400002010E000E080B500AF0A4B1B68E6
:102A4000002B07D0084B1B686FF00F009847064B10
:102A500000221A60054A064B1B681360054B4FF0B5
:102A6000FF321A6000BF80BD4811002010E000E076
:102A7000441100200400002080B582B000AF7860CF
:102A8000164B1B68002B02DD6FF0050321E07B680D
:102A9000002B01D100231CE07868FFF723FF0AE038
:102AA0000F4B1B6803F48033002B04D00B4B1B68C7
:102AB000013B0A4A1360094B1B68002BF0DC00BF86
:102AC000074B9A68074B1B689A42F9D8FFF7B4FF87
:102AD000002318460837BD4680BD00BF0400002013
:102AE00010E000E04011002080B489B000AF7860B1
:102AF00039607B68FB61FB6953E8003FBB61BB69E0
:102B0000002B02D06FF005030FE03B687B617B6810
:102B10003B6139697A6941E80023FB60FB68002B5F
:102B2000E7D1BFF35F8F00BF002318462437BD46AF
:102B30005DF8047B704780B483B000AF7860BFF36A
:102B40005F8F00BF7B6800221A6000BF0C37BD4654
:102B50005DF8047B7047000080B483B000AF03468B
:102B6000FB71FB793F2B0DD9FB79403BFB71184B77
:102B7000DB68FA79012101FA02F21146144A0B438B
:102B8000D3601EE0FB791F2B0FD9FB79203BFB7133
:102B90004FF080439B6CFA79012101FA02F2114651
:102BA0004FF080420B4393640BE04FF080435B6A2D
:102BB000FA79012101FA02F211464FF080420B43EB
:102BC000536200BF0C37BD465DF8047B704700BF01
:102BD0000000084080B483B000AF0346FB71FB796E
:102BE0003F2B0ED9FB79403BFB71194BDB68FA791F
:102BF000012101FA02F2D2431146154A0B40D3607B
:102C000020E0FB791F2B10D9FB79203BFB714FF0A3
:102C100080439B6CFA79012101FA02F2D2431146FA
:102C20004FF080420B4093640CE04FF080435B6AAE
:102C3000FA79012101FA02F2D24311464FF08042A3
:102C40000B40536200BF0C37BD465DF8047B7047F4
:102C50000000084080B582B000AF0346FB71FB79ED
:102C6000072B6CD801A252F823F000BFC52C00102E
:102C70003F2D0010F72C0010EB2C00108D2C0010B5
:102C8000A92C0010232D0010E12C00104FF08043E0
:102C90009B684FF0804243F4002393604FF0006044
:102CA00000F056F803464CE04FF080439B684FF02D
:102CB000804243F4801393604FF0805000F048F856
:102CC00003463EE04FF080439B684FF0804243F460
:102CD000802393604FF0806000F03AF8034630E0C4
:102CE0001A48FDF7E7FC03462BE04FF0005000F0D8
:102CF0002FF8034625E04FF080435B6F4FF0804292
:102D000043F0110353674FF080439B684FF08042BC
:102D100043F4803393604FF0807000F019F803465D
:102D20000FE04FF080439B684FF0804243F4003344
:102D300093604FF0007000F00BF8034601E06FF075
:102D4000020318460837BD4680BD00BF6CA00110C5
:102D500080B582B000AF786000214FF47A70FFF741
:102D60003FFE00BF4FF080439A687B681340002B02
:102D7000F8D0002318460837BD4680BD80B584B022
:102D800000AF0346FB714FF080439B6803F4606320
:102D9000FB60FB79072B00F2918001A252F823F02F
:102DA000EB2D0010BD2E0010532E00107D2E0010B4
:102DB000C12D0010112E0010932E00103B2E00107C
:102DC0004FF080439B6803F40023002B02D10420C2
:102DD000FFF740FF4FF080439B6823F460634FF0A0
:102DE000804243F4006393606BE04FF080439B6844
:102DF00003F48023002B02D10020FFF72BFF4FF0BC
:102E000080439B684FF0804223F46063936058E0F6
:102E10004FF080439B6803F48013002B02D1052000
:102E2000FFF718FF4FF080439B6823F460634FF077
:102E3000804243F42063936043E00720FFF70AFFDA
:102E40004FF080439B684FF0804243F4606393608F
:102E500037E04FF080439B6803F48033002B02D1AE
:102E60000220FFF7F7FE4FF080439B6823F4606376
:102E70004FF0804243F48063936022E04FF0804340
:102E80009B6823F460634FF0804243F4C063936017
:102E900017E04FF080439B6803F40033002B02D10E
:102EA0000620FFF7D7FE4FF080439B6823F4606352
:102EB0004FF0804243F44063936002E06FF00203FE
:102EC00018E04FF40050FFF743FF0346002B0ED0ED
:102ED0004FF080439B6823F46062FB6803F46063F7
:102EE0004FF0804113438B606FF0090302E0FDF760
:102EF0000DFA002318461037BD4680BD80B483B05C
:102F000000AF0346FB71FB793F2B12D9FB79403BA5
:102F1000FB71FB7901229A401D4B9A6000BF1C4B4C
:102F20009B68FA79012101FA02F21340002BF6D1D5
:102F300028E0FB791F2B14D9FB79203BFB71FB792F
:102F400001229A404FF080435A6400BF4FF0804303
:102F50005B6CFA79012101FA02F21340002BF5D1E2
:102F600010E0FB7901229A404FF080435A6000BF85
:102F70004FF080435B68FA79012101FA02F21340B5
:102F8000002BF5D100BF0C37BD465DF8047B7047C0
:102F90000000084080B582B000AF7860786800F02B
:102FA0001BF800BF0837BD4680BD80B582B000AFBA
:102FB0007860786800F054F800BF0837BD4680BDDF
:102FC00080B582B000AF7860786800F08DF800BFFF
:102FD0000837BD4680BD000080B485B000AF786082
:102FE0007B68194A934220D07B68184A93421AD0D2
:102FF0007B68174A934214D07B68164A93420ED0DE
:103000007B68154A934208D07B68144A934201D1E9
:1030100005230BE04FF0FF3308E0042306E0032311
:1030200004E0022302E0012300E00023FB607B6850
:10303000DB6843F001127B68DA6000BF1437BD46DD
:103040005DF8047B704700BF0000014000100140A4
:103050000020014000300140000C084000100840F2
:1030600080B485B000AF78607B68194A934220D065
:103070007B68184A93421AD07B68174A934214D04F
:103080007B68164A93420ED07B68154A934208D05B
:103090007B68144A934201D105230BE04FF0FF33C4
:1030A00008E0042306E0032304E0022302E00123F6
:1030B00000E00023FB607B689B6943F001227B6892
:1030C0009A6100BF1437BD465DF8047B704700BFAE
:1030D000000001400010014000200140003001408C
:1030E000000C08400010084080B485B000AF786044
:1030F0007B68194A934220D07B68184A93421AD0C1
:103100007B68174A934214D07B68164A93420ED0CC
:103110007B68154A934208D07B68144A934201D1D8
:1031200005230BE04FF0FF3308E0042306E0032300
:1031300004E0022302E0012300E00023FB607B683F
:103140009B6923F001227B689A6100BF1437BD465A
:103150005DF8047B704700BF000001400010014093
:103160000020014000300140000C084000100840E1
:1031700080B582B000AF786000BF786800F0B0FB27
:103180000346002BF9D0786800F052FB034618463E
:103190000837BD4680BD80B582B000AF7860396029
:1031A0003968786801F09CFA034618460837BD462E
:1031B00080BD80B582B000AF7860786801F02AFBEE
:1031C000034618460837BD4680BD000080B586B06E
:1031D00000AFF860B9601346FB71F86800F07EF844
:1031E00078617B69002B01D07B6963E0FB79042B5C
:1031F00006D0042B10DC022B06D0032B08D00BE0EA
:103200000620FFF727FD08E00520FFF723FD04E077
:103210000220FFF71FFD00E000BFFB68274A934232
:1032200014D0FB68264A93420ED0FB68254A93428D
:1032300008D0FB68244A934201D1032307E04FF0F2
:10324000FF3304E0022302E0012300E00023032B0C
:1032500026D801A252F823F069320010773200100C
:1032600085320010933200101848FDF723FA092028
:10327000FFF7B0FC17E01648FDF71CFA0A20FFF72D
:10328000A9FC10E01348FDF715FA2120FFF7A2FC76
:1032900009E01148FDF70EFA4420FFF79BFC02E01D
:1032A0006FF0020306E0FB791A46B968F86800F08F
:1032B000E5FB034618461837BD4680BD0020044094
:1032C00000300440004004400014084078A0011081
:1032D0009CA00110C0A00110E4A0011080B582B034
:1032E00000AF78607B68254A934214D07B68244AFB
:1032F00093420ED07B68234A934208D07B68224ACF
:10330000934201D1032307E04FF0FF3304E002238F
:1033100002E0012300E00023032B27D801A252F88A
:1033200023F000BF35330010433300105133001039
:103330005F3300100B20FFF7E1FD0920FFF70CFCC5
:1033400017E00C20FFF7DAFD0A20FFF705FC10E07C
:103350001C20FFF7D3FD2120FFF7FEFB09E04420EE
:10336000FFF7CCFD4420FFF7F7FB02E06FF002030C
:1033700000E0002318460837BD4680BD0020044009
:1033800000300440004004400014084080B588B07C
:1033900000AFF860B9601346FB710023BB610023E6
:1033A0007B61FB68794A93420ED0FB68784A93426E
:1033B0000AD0FB68774A934206D0FB68764A93426C
:1033C00002D06FF00203DDE0FB68734A934263D1E1
:1033D000FB6805225A61FB79042B16D0042B45DCCF
:1033E000002B01D0022B41D14FF4E102BB68B2FBAC
:1033F000F3F37B614FF4E103BA68B3FBF2F2B9680F
:1034000001FB02F29B1ABB6133E0FB681B6843F4CB
:103410008032FB681A60FB681B6843F40012FB688B
:103420001A60BB68B3F5165F04D107237B610023E4
:10343000BB610FE04FF48032BB68B2FBF3F37B61FA
:103440004FF48033BA68B3FBF2F2B96801FB02F2C1
:103450009B1ABB61BB68B3F5166F03D9FB680022EA
:103460005A6106E0FB6801225A6102E06FF0020334
:1034700088E07B69002B04D0BB685A08BB699A427C
:1034800002D27B6901337B617A69FB681A61F86853
:1034900000F088F8F86164E0FB6805225A61FB7966
:1034A000032B1DD0032B47DC002B02D0022B2CD08A
:1034B00042E0FB681A68FB681A60384B1B685A08C0
:1034C000BB68B2FBF3F37B61344B1B685B08BA68E3
:1034D000B3FBF2F2B96801FB02F29B1ABB612EE06A
:1034E000FB681B6843F48032FB681A602C4ABB6897
:1034F000B2FBF3F37B612A4BBA68B3FBF2F2B96813
:1035000001FB02F29B1ABB6119E0FB681B6843F4E4
:103510000032FB681A604FF4E102BB68B2FBF3F3C0
:103520007B614FF4E103BA68B3FBF2F2B96801FBC7
:1035300002F29B1ABB6102E06FF0020322E07B699A
:10354000002B04D0BB685A08BB699A4202D27B693F
:1035500001337B617A69FB681A61F86800F022F830
:10356000F861FB69002B0CDDFB681B6843F400422B
:10357000FB681A6000BFFB681B6803F40023002B84
:10358000F9D0FB6918462037BD4680BD00200440B5
:10359000003004400040044000140840080A0020A5
:1035A0000048E80180B485B000AF78600023FB607C
:1035B0007B68314A93420ED07B68304A93420AD0EE
:1035C0007B682F4A934206D07B682E4A934202D0F2
:1035D0006FF0020349E07B682A4A93421DD17B6861
:1035E0001B6803F44033B3F5803F03D14FF48033BD
:1035F000FB600CE07B681B6803F44033002B03D1B5
:103600004FF4E103FB6002E06FF002032DE0FA6883
:103610007B681B69B2FBF3F327E07B681B6803F44C
:103620004033B3F5803F02D1174BFB6018E07B6855
:103630001B6803F44033002B04D1144B1B685B0858
:10364000FB600DE07B681B6803F44033B3F5003F7B
:1036500003D14FF4E103FB6002E06FF0020304E0EA
:10366000FA687B681B69B2FBF3F318461437BD4652
:103670005DF8047B704700BF002004400030044028
:1036800000400440001408400048E801080A0020F7
:1036900080B582B000AF786039603968786800F032
:1036A00049FA034618460837BD4680BD80B582B04A
:1036B00000AF78600B46FB70FB781946786800F025
:1036C00077FA034618460837BD4680BD80B582B0FC
:1036D00000AF78600B46FB70FB781946786800F005
:1036E000A7FA034618460837BD4680BD80B584B0AA
:1036F00000AFF8600B467A60FB72FB7A012B3AD17F
:10370000FB683F4A934214D0FB683E4A93420ED076
:10371000FB683D4A934208D0FB683C4A934201D182
:10372000032307E04FF0FF3304E0022302E001230C
:1037300000E00023032B1BD801A252F823F000BFA6
:1037400051370010593700106137001069370010E9
:103750002F48FCF7AFFF48E02E48FCF7ABFF44E0F2
:103760002D48FCF7A7FF40E02C48FCF7A3FF3CE006
:103770006FF0020340E0FB68214A934214D0FB68DB
:10378000204A93420ED0FB681F4A934208D0FB6840
:103790001E4A934201D1032307E04FF0FF3304E0B8
:1037A000022302E0012300E00023032B1AD801A228
:1037B00052F823F0C5370010CD370010D537001070
:1037C000DD3700101648FCF775FF0EE01548FCF7D2
:1037D00071FF0AE01448FCF76DFF06E01348FCF7A0
:1037E00069FF02E06FF0020306E0FB7A7A6819468F
:1037F000F86800F0ADFA034618461037BD4680BDA4
:103800000020044000300440004004400014084000
:1038100084A00110A8A00110CCA00110F0A00110FC
:1038200090A00110B4A00110D8A00110FCA00110BC
:1038300080B582B000AF7860786800F0C9FA0346BE
:1038400018460837BD4680BD80B582B000AF7860AD
:103850000B46FB70FB781946786800F0E9FA0346DE
:1038600018460837BD4680BD80B582B000AF78608D
:103870007868FFF77DFC034618460837BD4680BDD3
:1038800080B584B000AFF860B9607A607A68B968D2
:10389000F86800F001FB034618461037BD4680BDAE
:1038A00080B584B000AFF860B9607A607A68B968B2
:1038B000F86800F043FB034618461037BD4680BD4C
:1038C00080B584B000AFF860B9607A607A68B96892
:1038D000F86800F083FB034618461037BD4680BDEC
:1038E00080B582B000AF7860786800F09DFB034639
:1038F00018460837BD4680BD80B584B000AFF8607B
:10390000B9607A607A68B968F86800F09CFB034691
:1039100018461037BD4680BD80B582B000AF7860D4
:10392000786800F0B6FB034618460837BD4680BDF0
:1039300080B582B000AF7860786800F0BDFB0346C8
:1039400018460837BD4680BD80B582B000AF7860AC
:1039500039603968786800F0E3FB03461846083799
:10396000BD4680BD80B582B000AF7860786800F059
:1039700011FC034618460837BD4680BD80B582B0AD
:1039800000AF7860786800F013FC034618460837EB
:10399000BD4680BD80B582B000AF786039603968BF
:1039A000786800F011FC034618460837BD4680BD14
:1039B00080B582B000AF786039603968786800F00F
:1039C0002DFC034618460837BD4680BD80B582B041
:1039D00000AF786039603968786800F04DFC0346C4
:1039E00018460837BD4680BD80B582B000AF78600C
:1039F000786800F06FFC034618460837BD4680BD66
:103A000080B582B000AF7860786800F06FFC034644
:103A100018460837BD4680BD80B582B000AF7860DB
:103A2000786800F021FF034618460837BD4680BD80
:103A300080B582B000AF7860786800F041FF03463F
:103A400018460837BD4680BD80B483B000AF03463A
:103A5000FB71FB7903F01F03012202FA03F1064A0E
:103A600097F907305B09403342F8231000BF0C3749
:103A7000BD465DF8047B704700E100E080B586B08C
:103A800000AFF860B9601346FB71FB68254A9342AA
:103A90000ED0FB68244A93420AD0FB68234A934223
:103AA00006D0FB68224A934202D06FF0020334E052
:103AB0000121F868FFF748FF78617B69002B01D08E
:103AC0007B692AE00821F868FFF7E2FD78617B69ED
:103AD000002B01D07B6920E00021F868FFF7F6FD9C
:103AE00078617B69002B01D07B6916E00021F868C2
:103AF000FFF7DCFD78617B69002B01D07B690CE06E
:103B0000FB791A46B968F868FFF740FC78617B6971
:103B1000002B01DA7B6900E0002318461837BD4608
:103B200080BD00BF0020044000300440004004403D
:103B30000014084080B483B000AF786039607B68BF
:103B4000174A93420ED07B68164A93420AD07B688C
:103B5000154A934206D07B68144A934202D06FF014
:103B6000020317E03B68042B02DD3B68082B02DDF3
:103B70006FF002030EE03B68053B9B023B607B68F5
:103B80001B6823F440623B6803F440631A437B687C
:103B90001A60002318460C37BD465DF8047B704759
:103BA000002004400030044000400440001408405D
:103BB00080B483B000AF78600B46FB707B68184A16
:103BC00093420ED07B68174A93420AD07B68164A0C
:103BD000934206D07B68154A934202D06FF00203ED
:103BE00017E0FB78002B02D0012B07D00DE07B689B
:103BF0001B6823F480527B681A6009E07B681B68AD
:103C000043F480527B681A6002E06FF0020300E028
:103C1000002318460C37BD465DF8047B704700BF93
:103C200000200440003004400040044000140840DC
:103C300080B483B000AF78600B46FB707B68404A6D
:103C400093420ED07B683F4A93420AD07B683E4A3B
:103C5000934206D07B683D4A934202D06FF0020344
:103C600067E0FB78042B60D801A252F823F000BF74
:103C7000853C0010933C0010B93C0010DF3C001064
:103C8000053D00107B681B6823F010027B681A60FA
:103C90004EE07B681B6843F010027B681A607B680B
:103CA0001B6823F020027B681A607B681B6823F086
:103CB00040027B681A603BE07B681B6843F010029F
:103CC0007B681A607B681B6823F020027B681A609F
:103CD0007B681B6843F040027B681A6028E07B68C1
:103CE0001B6843F010027B681A607B681B6843F016
:103CF00020027B681A607B681B6823F040027B68A7
:103D00001A6015E07B681B6843F010027B681A603C
:103D10007B681B6843F020027B681A607B681B6825
:103D200043F040027B681A6002E06FF0020300E09B
:103D3000002318460C37BD465DF8047B704700BF72
:103D400000200440003004400040044000140840BB
:103D500080B485B000AFF8600B467A60FB72FB68F8
:103D6000174A93420ED0FB68164A93420AD0FB686A
:103D7000154A934206D0FB68144A934202D06FF072
:103D8000020317E0FB7A002B02D0012B07D00DE0D5
:103D9000FB681B6823F40052FB681A6009E0FB68AB
:103DA0001B6843F40052FB681A6002E06FF00203E4
:103DB00000E0002318461437BD465DF8047B7047C9
:103DC000002004400030044000400440001408403B
:103DD00080B483B000AF78607B68114A93420ED004
:103DE0007B68104A93420AD07B680F4A934206D000
:103DF0007B680E4A934202D06FF002030AE07B68B0
:103E00005B6803F01003002B02D06FF00C0301E09D
:103E10007B681B6A18460C37BD465DF8047B70470B
:103E200000200440003004400040044000140840DA
:103E300080B483B000AF78600B46FB707B68124A99
:103E400093420ED07B68114A93420AD07B68104A95
:103E5000934206D07B680F4A934202D06FF0020370
:103E60000CE07B685B6803F08003002B02D06FF0EE
:103E70000B0303E0FA787B681A62002318460C37BC
:103E8000BD465DF8047B70470020044000300440CC
:103E9000004004400014084080B586B000AFF860D0
:103EA000B9607A6000237B61FB68204A93420ED0A0
:103EB000FB681F4A93420AD0FB681E4A934206D011
:103EC000FB681D4A934202D06FF0020329E0BB68F1
:103ED000002B02D14FF0FF3323E07B68002B17D17A
:103EE0004FF0FF331DE0F868FFF7BEFC38613B6917
:103EF000002B04DA7B687A691A603B6911E07B6900
:103F0000BA6813443A69D2B21A707B6901337B6193
:103F10007B681B687A699A42E5DB7B687A691A607C
:103F2000002318461837BD4680BD00BF002004405E
:103F300000300440004004400014084080B586B0C2
:103F400000AFF860B9607A6000237B61FB681F4AAC
:103F500093420ED0FB681E4A93420AD0FB681D4A6A
:103F6000934206D0FB681C4A934202D06FF00203D2
:103F700028E0BB68002B02D14FF0FF3322E07B68C2
:103F8000002B16D14FF0FF331CE07B69BA68134455
:103F90001B781946F868FFF757FC38613B69002B1E
:103FA00004D07B687A691A603B690BE07B69013356
:103FB0007B617B681B687A699A42E6DB7B687A6979
:103FC0001A60002318461837BD4680BD0020044003
:103FD00000300440004004400014084080B487B022
:103FE00000AFF860B9607A6000237B610FE0FB6886
:103FF0005B6803F01003002B0ED1FB68196ABA68E6
:104000007B691344CAB21A707B6901337B617A6998
:104010007B689A42EBD300E000BF7B6918461C37EF
:10402000BD465DF8047B704780B483B000AF786014
:104030007B685B681B0A03F00F0318460C37BD460C
:104040005DF8047B704780B487B000AFF860B9605A
:104050007A6000237B610FE0FB685B6803F08003FC
:10406000002B0ED1BA687B6913441B781A46FB6893
:104070001A627B6901337B617A697B689A42EBD370
:1040800000E000BF7B6918461C37BD465DF8047B25
:10409000704780B485B000AF78607B685B681B0BAD
:1040A00003F00F03FB60FB68C3F1080318461437E5
:1040B000BD465DF8047B704780B483B000AF786084
:1040C0007B68134A93420ED07B68124A93420AD00F
:1040D0007B68114A934206D07B68104A934202D013
:1040E0006FF002030DE07B681B6843F480727B680D
:1040F0001A6000BF7B681B6803F48073002BF9D142
:10410000002318460C37BD465DF8047B704700BF9E
:1041100000200440003004400040044000140840E7
:1041200080B483B000AF786039607B68154A9342F1
:104130000ED07B68144A93420AD07B68134A93429C
:1041400006D07B68124A934202D06FF0020313E05C
:104150003B68002B02D03B68082B02D96FF00203AA
:104160000AE07B681B6823F00F023B6803F00F0333
:104170001A437B681A60002318460C37BD465DF869
:10418000047B70470020044000300440004004409D
:104190000014084080B483B000AF78607B681B686F
:1041A00003F00F0318460C37BD465DF8047B7047DB
:1041B00080B483B000AF78607B68DB6818460C374A
:1041C000BD465DF8047B704780B483B000AF786073
:1041D00039607B680D4A93420ED07B680C4A93424B
:1041E0000AD07B680B4A934206D07B680A4A934206
:1041F00002D06FF0020303E07B683A68DA600023C4
:1042000018460C37BD465DF8047B7047002004401B
:1042100000300440004004400014084080B483B0E3
:1042200000AF786039607B680F4A93420ED07B689C
:104230000E4A93420AD07B680D4A934206D07B68AF
:104240000C4A934202D06FF0020306E07B689A6842
:104250003B681A437B689A60002318460C37BD46BA
:104260005DF8047B704700BF00200440003004402C
:10427000004004400014084080B483B000AF786070
:1042800039607B680F4A93420ED07B680E4A934296
:104290000AD07B680D4A934206D07B680C4A934251
:1042A00002D06FF0020307E07B689A683B68DB434B
:1042B0001A407B689A60002318460C37BD465DF8AB
:1042C000047B70470020044000300440004004405C
:1042D0000014084080B483B000AF78607B685B68EE
:1042E00018460C37BD465DF8047B704780B586B034
:1042F00000AF78607B681B68874A934217D07B6861
:104300001B68864A934210D07B681B68844A93429C
:1043100009D07B681B68834A934201D1032307E0DD
:104320004FF0FF3304E0022302E0012300E000230A
:104330007B617B69002B02DA6FF0030331E17A4A7B
:104340007B6952F82330002B14D1784A7B6952F8EC
:104350002330002B0ED17B681B684FF0FF311846CD
:10436000FFF734FB7B681B684FF0FF311846FFF7FF
:1043700011FB19E06D4A7B6952F82330002B06D0FF
:104380007B681B69002B02D06FF0050309E1664AC8
:104390007B6952F82330002B06D07B68DB68002B4A
:1043A00002D06FF00503FCE07B6800225A617B6855
:1043B00000229A617B68DB68002B78D07B685B68A1
:1043C000002B02D16FF00203EBE07B681B68524ABE
:1043D000934217D07B681B68504A934210D07B6889
:1043E0001B684F4A934209D07B681B684D4A934231
:1043F00001D1032307E04FF0FF3304E0022302E082
:10440000012300E0002348497A6841F823207B68B3
:104410001B6840211846FFF7CBFA7B681B681846DB
:10442000FFF77AFA38617B68DA687B685B69D31AD0
:104430003A69934228BF13463B617B6818687B68E2
:104440005A687B685B6913443A691946FFF754FA66
:1044500002467B685B691A447B685A617B681B680B
:104460001846FFF759FA0346032B20D97B685A698F
:104470007B68DB689A421AD17B69002B13D07B6979
:104480005BB2012B0DD07B695BB2022B07D07B693D
:104490005BB2032B01D1582306E0002304E0222362
:1044A00002E00F2300E00E231846FFF7CDFA7B68E9
:1044B0001B69002B74D07B689B68002B0ED17B6836
:1044C0001B684FF0FF311846FFF780FA7B681B68C6
:1044D0001846FFF72DFA6FF0020362E07B681B6855
:1044E0000D4A934224D07B681B680C4A934210D03B
:1044F0007B681B680A4A934209D07B681B68094A9B
:10450000934201D1032314E04FF0FF3311E0022363
:104510000FE001230DE000BF002004400030044004
:1045200000400440001408404C1100205C110020A1
:1045300000231E497A6841F823207B681B680B2101
:104540001846FFF735FA7B681B6810211846FFF7FD
:104550002FFA7B681B681846FFF7C2F9F8607B6882
:104560001A697B689B69D31AFA68934228BF13467D
:10457000FB607B6818687B689A687B689B6913445A
:10458000FA681946FFF79CF902467B689B691A4452
:104590007B689A617B681B6810211846FFF7FAF95F
:1045A000002318461837BD4680BD00BF5C110020AF
:1045B00080B584B000AF786039607B681D4A934253
:1045C00014D07B681C4A93420ED07B681B4A9342EE
:1045D00008D07B681A4A934201D1032307E04FF0C9
:1045E000FF3304E0022302E0012300E00023FB602C
:1045F000FB68002B02DA6FF0020316E0114AFB6839
:1046000052F82330BB60BB68002B0DD0BB68DB6960
:10461000002B09D00B4AFB68002142F82310BB682D
:10462000DB693968B8689847002318461037BD46DB
:1046300080BD00BF00200440003004400040044022
:10464000001408404C11002080B584B000AF7860A1
:1046500039607B681D4A934214D07B681C4A9342A0
:104660000ED07B681B4A934208D07B681A4A93425B
:1046700001D1032307E04FF0FF3304E0022302E0FF
:10468000012300E00023FB60FB68002B02DA6FF0DF
:10469000020316E0114AFB6852F82330BB60BB6886
:1046A000002B0DD0BB68DB69002B09D00B4AFB68DF
:1046B000002142F82310BB68DB693968B868984765
:1046C000002318461037BD4680BD00BF00200440BF
:1046D0000030044000400440001408405C110020F9
:1046E00080B584B000AF786039607B681B4A934224
:1046F00014D07B681A4A93420ED07B68194A9342C1
:1047000008D07B68184A934201D1032307E04FF099
:10471000FF3304E0022302E0012300E00023FB60FA
:10472000FB68002B02DA6FF0020312E03968786848
:10473000FFF73EFF0D4AFB6852F823200C49FB6847
:1047400051F823309A4203D039687868FFF77CFF2C
:10475000002318461037BD4680BD00BF002004402E
:104760000030044000400440001408405C11002068
:104770004C11002080B582B000AF78607B680D4A94
:1047800093420ED07B680C4A93420AD07B680B4A56
:10479000934206D07B680A4A934202D06FF002032C
:1047A00004E040217868FFF711F900231846083724
:1047B000BD4680BD0020044000300440004004405D
:1047C0000014084080B582B000AF78607B680D4A65
:1047D00093420ED07B680C4A93420AD07B680B4A06
:1047E000934206D07B680A4A934202D06FF00203DC
:1047F00004E00B217868FFF7E9F800231846083732
:10480000BD4680BD0020044000300440004004400C
:104810000014084080B582B000AF78607B680E4A13
:1048200093420ED07B680D4A93420AD07B680C4AB3
:10483000934206D07B680B4A934202D06FF002038A
:1048400005E04FF0FF317868FFF7C0F80023184605
:104850000837BD4680BD00BF002004400030044042
:10486000004004400014084080B582B000AF78607A
:104870007B680F4A93420ED07B680E4A93420AD05F
:104880007B680D4A934206D07B680C4A934202D063
:104890006FF0020308E07868FEF78BFC6FF00F0101
:1048A0007868FEF778FC002318460837BD4680BDBF
:1048B0000020044000300440004004400014084040
:1048C00090B589B000AF78607B68974A934214D066
:1048D0007B68964A93420ED07B68954A934208D0F3
:1048E0007B68944A934201D1032307E04FF0FF33E2
:1048F00004E0022302E0012300E00023FB61FB69E6
:10490000002B02DA6FF003030AE17868FFF736F84C
:10491000B861894AFB6952F82330002B0ED1874ACF
:10492000FB6952F82330002B08D17B68DB681946FD
:104930007868FFF72FF86FF00303F1E07B689A685F
:10494000BB69134003F00B03002B0AD07868FEF715
:1049500030FC6FF008017868FEF71DFC6FF0030370
:10496000DEE0754AFB6952F823307B617B69002BDE
:1049700030D07B69DB68002B2CD07B691B68184624
:10498000FEF7CAFF38617B69DA687B695B69D31A15
:104990003A699A4205D97B69DA687B695B69D31AFF
:1049A00000E03B693B617B6918687B695A687B69F9
:1049B0005B6913443A691946FEF79EFF02467B691C
:1049C0005B691A447B695A617B691B684021184600
:1049D000FEF7E0FF594AFB6952F823307B617B699F
:1049E000002B4CD0BB6903F01003002B47D07B6930
:1049F0001B69002B43D07B691B681846FEF770FFCC
:104A0000F8607B691A697B699B69D31AFA689A42D4
:104A100005D97B691A697B699B69D31A00E0FB6839
:104A2000FB607B6918687B699A687B699B691344A2
:104A3000FA681946FEF744FF02467B699B691A44EF
:104A40007B699A617B691A697B699B69D41A7B6966
:104A50001B681846FEF786FF03469C4209D27B6915
:104A600018687B691A697B699B69D31A1946FEF736
:104A70006BFF7B691B6810211846FEF78BFF2F4ADE
:104A8000FB6952F823202C49FB6951F823309A42E4
:104A900017D17B69002B12D07B699A697B691B69EE
:104AA0009A420CD17B695A697B69DB689A4206D1CC
:104AB0007868FEF77EFB00217868FEF76CFB002328
:104AC0002EE01E4AFB6952F823307B617B69002B84
:104AD0000ED07B699A697B691B699A4208D1786814
:104AE000FFF770FE00217868FFF7AEFD002317E0A6
:104AF000114AFB6952F823307B617B69002B0ED091
:104B00007B695A697B69DB689A4208D17868FFF74C
:104B100031FE00217868FFF74BFD002300E0002301
:104B200018462437BD4690BD0020044000300440A4
:104B300000400440001408404C1100205C1100208B
:104B400080B588B000AFF8600B467A60FB727B6876
:104B500000221A60FB689A68FB7A13441B78BB77C3
:104B600097F90B30DB005BB203F038035BB243F024
:104B700040035BB2DBB23B7407F110030133BA7F31
:104B800001320021184609F047FAFB681868BB7F1C
:104B90009BB201339AB207F11003194601F0DCF819
:104BA000B861BB69002B02D04FF0FF3315E0012341
:104BB000FB770DE07B681B681B02FA7F20323A44CA
:104BC00012F8102C1A437B681A60FB7F0133FB77C5
:104BD000BA7FFB7F9A42EDD2BB6918462037BD46AB
:104BE00080BD80B588B000AFF8600B467A60FB727C
:104BF000FB689A68FB7A13441B78BB77FB7ADB006F
:104C0000DBB203F03803DBB23B750123FB770EE028
:104C1000BA7FFB7FD31ADB007A68DA40FB7FD2B21F
:104C200020333B4403F80C2CFB7F0133FB77BA7F26
:104C3000FB7F9A42ECD2FB681868BB7F9BB20133C2
:104C40009AB207F11403194601F086F8B861BB69FE
:104C5000002B02D04FF0FF3300E0BB69184620372D
:104C6000BD4680BD80B584B000AF78600B46FB7058
:104C70000023BB6007F108031A4601217868FFF79B
:104C80005FFFF860FB68002B02D04FF0FF3317E0A6
:104C9000BB6823F46043BB60FB785B039AB2BB68DC
:104CA0001343BB60BB681A4601217868FFF799FF80
:104CB000F860FB68002B02D04FF0FF3300E00023C8
:104CC00018461037BD4680BD80B584B000AF78600F
:104CD0000B46FB700023BB6007F108031A46022154
:104CE0007868FFF72DFFF860FB68002B02D04FF0CB
:104CF000FF3310E0BB6823F00703BB60FB7803F0D1
:104D00000702BB681343BB60BB681A460221786880
:104D1000FFF767FF034618461037BD4680BD80B5D4
:104D200086B000AFF8600B467A60FB72FB7A1946DA
:104D3000F868FFF7C9FF78617B69002B02D04FF05C
:104D4000FF3321E00121F868FFF78CFF78617B6970
:104D5000002B02D04FF0FF3316E0F86800F020F986
:104D600078617B69002B02D04FF0FF330CE07A684A
:104D70000321F868FFF7E4FE78617B69002B02D01D
:104D80004FF0FF3300E0002318461837BD4680BDC2
:104D90002DE9B04F9AB000AF78653965FA647B6D44
:104DA0001B697B667B6D1B7D002B05D07A6E4FF4F3
:104DB0007A7302FB03F37B667B6D5B7B002B28D051
:104DC0007B6D9B6803331B78DB00012202FA03F33F
:104DD0003B663B6D00229A4693467B6E00229846C6
:104DE000914608FB0BF20AFB09F31344AAFB0845A2
:104DF0002B441D463B6E00223B637A63D7E90C23AC
:104E00002046294608F0DEFE02460B4613463B6567
:104E10006EE07B6D9B6803331B78DB005A1E012319
:104E200093403B663A6D3B6E9A4230D33A6D3B6E8F
:104E3000D31A0022BB62FA627B6E00223B627A6266
:104E4000D7E90A452B46D7E90889424602FB03F217
:104E50004B46214601FB03F3134422464146A2FB85
:104E600001127A640A463A647A6C13447B643B6E9E
:104E7000013B0022BB61FA61D7E90623D7E91001A3
:104E800008F0A0FE02460B4613463B6530E03A6E42
:104E90003B6DD31A00223B617A617B6E0022BB60BE
:104EA000FA60D7E904452B46D7E90289424602FB5E
:104EB00003F24B46214601FB03F3134422464146CD
:104EC000A2FB0112FA630A46BA63FA6B1344FB634E
:104ED0003B6E013B00223B607A60D7E90023D7E9B3
:104EE0000E0108F06FFE02460B4613465B423B651F
:104EF0003A6DFB6C1A60FB6D18466837BD46BDE81D
:104F0000B08F80B584B000AF78600B46FB70002393
:104F1000BB6007F108031A4602217868FFF710FE0C
:104F2000F860FB68002B02D04FF0FF3311E0BB6844
:104F300023F4E063BB60FB781B0203F4E062BB6810
:104F40001343BB60BB681A4602217868FFF749FE2D
:104F5000034618461037BD4680BD80B584B000AF0B
:104F6000786039600023BB6007F108031A4602210C
:104F70007868FFF7E5FDF860FB68002B02D04FF082
:104F8000FF3309E0BB6803F4E063BB60BB681B0A46
:104F9000DAB23B681A70002318461037BD4680BD50
:104FA00080B586B000AF78604FF6FF737B6117E085
:104FB00007F10C031A4600217868FFF7C1FD38613C
:104FC0003B69002B02D04FF0FF330EE0FB6803F08B
:104FD0008003002B01D1002307E07B69013B7B614B
:104FE0007B69002BE4D14FF0FF3318461837BD46DC
:104FF00080BD000080B588B000AFF860B9607A600D
:105000003B60FB68FB613B68B3F90030DBB207F142
:1050100014021946F869FFF782FEB861BB69002BDC
:1050200001D0BB6906E07B69044A7968B8680BF077
:105030005BF9034618462037BD4680BDECA1011040
:1050400080B588B000AFF860B9607A603B60FB68FB
:10505000FB6107F117031946F869FFF77EFFB86196
:10506000BB69002B01D0BB6906E0FB7D044A79686F
:10507000B8680BF039F9034618462037BD4680BDA5
:10508000ECA1011080B588B000AFF860B9607A601B
:105090003B60FB68FB61B86807F02BF8B861BB693F
:1050A000DBB21946F869FFF72CFF78617B69002BAA
:1050B00001D07B6900E07B6818462037BD4680BD83
:1050C00080B588B000AF78607B68FB61FB695B6886
:1050D0009B6807F110021146184606F092FDB86170
:1050E000BB69002B08D0FB691A68FB695B6819462D
:1050F000104600F0CAFA3FE0FB695B689B6807F165
:1051000014021146184606F0F5FCFB695B689B68C3
:1051100007F10C021146184606F0F1FB3B691B69CA
:10512000002B06D03B691B69386979693A69526975
:105130009847FB68002B0ED1FB691B681A69FB6955
:105140005B68DB681946104600F0C6FCFB695B68CB
:1051500001221A7110E0FB691B68DB681B69FA69A0
:105160005268796910469847FB691A68FB695B6861
:105170001946104600F04DFA2037BD4680BD80B577
:1051800086B000AF786039603B68002B03D03B6885
:105190009B68002B02D16FF015037FE03B689B6892
:1051A0001B68002B02D16FF0570377E007F108036B
:1051B000184606F0F9FEBB68184606F0FFFE3B688D
:1051C0009B681B6839687868984778617B69002B11
:1051D0005ED17B681B681C33184606F0E5FE7B68D1
:1051E0001B683A689268DA6000233B6122E07B68C2
:1051F0001B6899683A691346DB009B1ADB000B4475
:10520000083300220121184606F00AFB78617B6909
:10521000002B1FD17B681B6899683A691346DB0035
:105220009B1ADB000B443033184606F0BDFE3B6989
:1052300001333B613B685B683A699A42D7D37B682C
:105240001B689A6901329A61BB68184606F0C0FE75
:10525000002323E000BF0023FB600FE07B681B6896
:1052600099683A691346DB009B1ADB000B449B6884
:10527000184606F019FBFB680133FB60FA683B69CE
:105280009A42EBD37B681B68184600F00BF800E0ED
:1052900000BFBB68184606F09BFE7B6918461837AE
:1052A000BD4680BD90B585B000AF78607B68002BAF
:1052B00002D16FF0150365E07B689B69002B01D17B
:1052C00000235FE00023FB6041E07B689B689B68F4
:1052D000184606F0E9FAB860BB68002B01D0BB683D
:1052E00050E07B689968FA681346DB009B1ADB0084
:1052F0000B441B6B184606F075FE7B681B69002B80
:1053000022D07B689968FA681346DB009B1ADB00A1
:105310000B44DB69002B17D07B6818697B689968A0
:10532000FA681346DB009B1ADB000B44DC687B68E1
:105330009968FA681346DB009B1ADB000B441033B4
:105340001A46214600F082FBFB680133FB607B6854
:105350005B68FA689A42B8D37B68DB69184606F046
:1053600041FE7B68DB685B6878689847B860BB681B
:10537000002B01D0BB6805E07B689B695A1E7B68E7
:105380009A61002318461437BD4690BD80B584B09D
:1053900000AF786039607B68002B03D07B68DB68E6
:1053A000002B02D16FF015032AE07B68DB689B6855
:1053B000002B02D16FF0570322E07B68DB691846AF
:1053C00006F0FCFD7B68DB689B6807F1080211466C
:1053D00078689847F860FB68002B0AD17B68996869
:1053E000BA681346DB009B1ADB00CA183B681A60D8
:1053F00000E000BF7B68DB69184606F0E9FDFB684A
:1054000018461037BD4680BD80B584B000AF7860C7
:1054100039607B68002B06D07B68DB68002B02D0EC
:105420003B68002B02D16FF015031BE07B68DB6843
:10543000DB68002B02D16FF0570313E03B681B6B56
:10544000184606F0BBFD7B68DB68DB683A681268CB
:10545000114678689847F8603B681B6B184606F061
:10546000B7FDFB6818461037BD4680BD80B588B0D3
:1054700000AFF860B9607A603B60FB68002B08D031
:10548000BB68002B05D07B68002B02D03B68002B4B
:1054900002D16FF0150399E03B681B6B184606F0CC
:1054A0008DFD0023FB610FE03B689868FA691346A5
:1054B000DB0013449B001A46BB681344194606F0F0
:1054C0006FFAFB690133FB61FA697B689A42EBD39F
:1054D000FB681B69002B57D03B6810337B613B682E
:1054E00003F120027B695A603B681B681A467B699E
:1054F000DA60BB681A7F7B695A723B68FA681A6285
:105500003B683A685A62BB681B7B012B02DC002BAC
:1055100003DA0AE0022B04D007E07B690A221A7240
:1055200007E07B6908221A7203E06FF01503BB6184
:1055300034E0FB68DB681B69B96838689847B86174
:10554000BB69002B27D1FB681B6A002B04D0FB68CA
:105550001A6A7B691A6002E07B691E4A1A60FB685E
:1055600018693B68DB687A69194600F04BFAB86144
:10557000BB69002B11D1FB6818693B68D968BB680F
:105580009B691A4600F0CAFA3B681B6B184606F086
:105590001FFD00231AE000BF00E000BF0023FB61F5
:1055A0000AE03B689B6807F110021146184606F0B6
:1055B00028FBFB690133FB61FA697B689A42F0D3EF
:1055C0003B681B6B184606F003FDBB691846203785
:1055D000BD4680BDC150001080B582B000AF78607C
:1055E0007B681B6B184606F0E9FC7B68002B02D138
:1055F0006FF0150309E07B68002283F834207B6894
:105600001B6B184606F0E4FC002318460837BD461D
:1056100080BD80B584B000AF786039607B68002BB6
:1056200006D07B68DB68002B02D03B68002B02D1E0
:105630006FF0150325E07B68DB685B69002B02D106
:105640006FF057031DE03B681B6B184606F0B6FC75
:105650007B681B69002B07D07B681A693B68DB6895
:105660001946104600F016FA7B68DB685B693968FA
:1056700078689847F8603B681B6B184606F0A8FCF2
:10568000FB6818461037BD4680BD80B584B000AFBA
:10569000786039607B68002B06D07B68DB68002B64
:1056A00002D03B68002B02D16FF0150331E07B681C
:1056B000DB689B69002B02D16FF0570329E03B6840
:1056C0001B6B184606F07AFC7B681B69002B07D021
:1056D0007B681A693B68DB681946104600F0FCF9E4
:1056E0003B689B6807F108021146184606F089FAE4
:1056F000F860FB68002BF3D07B68DB689B69396836
:1057000078689847F8603B681B6B184606F060FCA9
:10571000FB6818461037BD4680BD80B483B000AF2B
:10572000786039603B68002B01D1012301E03B68C0
:105730001B7918460C37BD465DF8047B704780B571
:1057400084B000AF786039607B68002B06D07B683E
:10575000DB68002B02D03B68002B01D101231EE047
:105760007B68DB681B6A002B01D1012317E03B68D3
:105770001B6B184606F022FC7B68DB681B6A3968E5
:10578000786898470346FB603B681B6B184606F039
:105790001FFCFB68002B14BF01230023DBB218465B
:1057A0001037BD4680BD80B584B000AF78603960E9
:1057B0003B68002B03D03B68DB68002B02D16FF005
:1057C000150319E03B68DB681B68002B02D16FF002
:1057D000570311E03B68DB681B68396878689847B5
:1057E000F860FB68002B01D0FB6805E07B681B6854
:1057F0003A68D268DA60002318461037BD4680BD8B
:1058000080B584B000AF786039603B68002B04D06D
:105810003B685B68B3F1FF3F04D17B6800221A60EC
:10582000002320E03B68DB68002B02D16FF01503FA
:1058300019E03B68DB685B68002B02D16FF057030F
:1058400011E03B68DB685B68396878689847F86006
:10585000FB68002B01D0FB6805E07B681B683A6899
:10586000D268DA60002318461037BD4680BD80B587
:1058700082B000AF78607B68002B15D07B68DB6856
:10588000002B02D16FF015030FE07B68DB689B688B
:10589000002B02D16FF0570307E07B68DB689B6841
:1058A00078689847034600E0002318460837BD464D
:1058B00080BD80B582B000AF78600B46FB707B681E
:1058C000002B17D07B68DB68002B02D16FF015032B
:1058D00011E07B68DB681B69002B02D16FF0570376
:1058E00009E07B68DB681B69FA781146786898479D
:1058F000034600E0002318460837BD4680BD80B54A
:1059000082B000AF78600B46FB707B68002B17D02D
:105910007B68DB68002B02D16FF0150311E07B6818
:10592000DB689B69002B02D16FF0570309E07B68AD
:10593000DB689B69FA78114678689847034600E06F
:10594000002318460837BD4680BD80B584B000AF3F
:10595000786039603B68002B03D03B685B68002BA4
:1059600002D16FF015031EE03B685B681B68002BDB
:1059700002D16FF0570316E03B685B681B6839681B
:1059800078689847F860FB68002B01D0FB680AE054
:105990007B681B689A6801329A607B681B683A686A
:1059A00052685A60002318461037BD4680BD80B546
:1059B00082B000AF78607B68002B03D07B685B68A7
:1059C000002B02D16FF0150318E07B685B685B6AFF
:1059D000002B02D16FF0570310E07B689B685A1EC2
:1059E0007B689A607B689B68002B01D0002305E0F0
:1059F0007B685B685B6A7868984703461846083797
:105A0000BD4680BD80B584B000AFF860B9607A60F3
:105A1000FB68002B03D0FB685B68002B02D16FF0A2
:105A200015030FE0FB685B685B68002B02D16FF029
:105A3000570307E0FB685B685B687A68B968F868D9
:105A40009847034618461037BD4680BD80B584B0E0
:105A500000AFF860B9607A60FB68002B03D0FB6888
:105A60005B68002B02D16FF015030FE0FB685B68E9
:105A70009B68002B02D16FF0570307E0FB685B685F
:105A80009B687A68B968F8689847034618461037E3
:105A9000BD4680BD80B582B000AF786039607B685C
:105AA000002B03D07B685B68002B02D16FF01503DD
:105AB0000EE07B685B689B69002B02D16FF0570397
:105AC00006E07B685B689B6939687868984703469D
:105AD00018460837BD4680BD80B582B000AF7860FB
